:020000040000FA
:100C00008631762E7E310800863174082000DE00A1
:100C10007808DF007908E0007A08E1007B08E2004C
:100C20007C08E3007D08E4007E08E5007F08E6001C
:100C300021308600223087002100901E262E2000C1
:100C4000901E262E9331D3238631622E2100101E52
:100C5000302E2000101E302E923180228631622EDE
:100C60000B1F622E2100141C3C2E2000141C3C2E55
:100C70009431A6248631622E2100911D502E200031
:100C8000911D502E6D08031D492E97314427863142
:100C9000622E6D080319622E8631BD268631622EC2
:100CA0002100911C5A2E2000911C5A2E94314C2464
:100CB0008631622E2100111C622E2000111C622E32
:100CC0009331912320006608FF006508FE00640848
:100CD000FD006308FC006208FB006108FA00600880
:100CE000F9005F08F8005E08F40009008631782EEC
:100CF000DE30840088308500EC30860023308700A9
:100D00000030F50080309231FB228631883100209E
:100D10008631F300A1308400923085006730860070
:100D2000003087000030F50007309231FB22863119
:100D30006C308400243085008430F4000330F500EA
:100D40009231EF228631F001F101F201203084006E
:100D5000003085003430F4000030F5009231EF228D
:100D60002100A001A101A201A301A401200055308E
:100D700086002030870095319F2D2000911124009E
:100D8000951FA92F95132000C3014008023E84003F
:100D90008501003FFE00013FFF007E0884007F08C0
:100DA00085008001800AC0010800A91808002808F1
:100DB000C0002808840085010008C20028088400BB
:100DC0008501013FC1000430A8072808543A031DDB
:100DD000EB2E5030A8002910280827060319A91463
:100DE0002400161402302000C3000800612F2400E4
:100DF000161F002F2000AB0A04309431682408002D
:100E00007208FF007108FE00FF36FE0C7E0891009C
:100E1000711C0E2F0B302000C3000800033020008F
:100E2000C30008002400161F1B2F2000AB0A04304B
:100E3000943168240800961406307205FF00F030E3
:100E40007F04F1000030F20071142000BE01BE0AE0
:100E5000F22E3E030319402F410884008501003F14
:100E6000F100013FF2004108033E84008501003F8C
:100E7000B200013FB300410884008501023FBF007A
:100E8000710824009100711C0E2F05302000C30052
:100E900008002400161F542F2000AB0A240016134C
:100EA00005309431682408002000BF033F0A031D69
:100EB000642F0530C107C20B612F003094316824C4
:100EC000080024009614F22E3208840033088500AE
:100ED0000008240091002000B20A0319B30A080098
:100EE0002400161F7B2F2000AB0A043094316824A5
:100EF000240016130800961508302000C3000800CF
:100F00000830C30024009615080032088400330816
:100F100085002400110880002000B20A0319B30ADA
:100F2000BF030319992F2400961206302000C30036
:100F30009D2F240096169231E422240016160800F4
:100F40000030943168240800AB0A063094316824DC
:100F5000080020004308003A0319D52E013A03196E
:100F6000F62E033A0319292F013A0319492F073A9C
:100F70000319A02F013A0319702F033A0319802F88
:100F8000013A0319A02F0F3A0319852F023A0319CA
:100F9000F72E013A0319122FA42F08004331200025
:100FA000B801B9010030FD3FFE3FFF3F901EE42F26
:100FB0000030FD3FFE3FFF3F003039023C30031957
:100FC00038020318FE2F90120608840007088500D7
:100FD0003D310130800701310030803D013100306A
:100FE000803D3E31003FFF3A031DFC2F013FFF3A99
:100FF000031DFC2F023F023A031DD62F7D3108004E
:101000005534163021009700080048310030FC3F6D
:10101000FD3FFE3FFF3F763FFE00773FFF007E082B
:10102000FC007F08FD000030FD1BFF30FE00FF00CC
:101030007C3FF8007D3FF9007E3FFA007F3FFB00D8
:101040007F087B02031D2E287E087A02031D2E28AE
:101050007D087902031D2E287C08780203186A286F
:101060000030F83FF93FFA3FFB3F0000000000006E
:101070000000060884000708850038310130800729
:1010800001310030803D01310030803D01310030C0
:10109000803D7B3F031D59287A3F031D5928783F27
:1010A000F40020307402793FF4000330743B031CD9
:1010B000352806088400070885003C310130800788
:1010C00001310030803D01310030803D0131003080
:1010D000803D0B28763108007D3FFD007E3FFE00FD
:1010E0007F3FFF00FF1F8C287D3FFD007E3FFE00FD
:1010F0007F3FFF000030FA000030FB008030FC0032
:101100007D08FA027E08FB3B7F08FC3B7A08FD3F26
:101110007B08FE3F7C08FF3F7A3FFD007B3FFE00DF
:101120007C3FFF00FF1FAC287A3FFD007B3FFE00A5
:101130007C3FFF000030FA000030FB008030FC00F4
:101140007D08FA027E08FB3B7F08FC3B7A08FA3FE9
:101150007B08FB3F7C08FC3F0030FD000030FE00B8
:101160008030FF007D3F7D06FD3F7E3F7E06FE3FD7
:101170007F3F7F06FF3F0030FD000030FE008030E3
:10118000FF007A3F7D06FA3F7B3F7E06FB3F7C3FB8
:101190007F06FC3F7F3FF4007C3F7402031DDA288A
:1011A0007E3FF4007B3F7402031DDA287D3FF4008C
:1011B0007A3F7402031C03107A31080000340134B2
:1011C0000234033404340534063407340834093453
:1011D0000A340B340C340D340E340F341034113403
:1011E00012341334143415341634173418341934B3
:1011F0001A341B341C341D341E341F342034213463
:101200002234233424342534263427342834293412
:101210002A342B342C342D342E342F3430343134C2
:101220003234333434343534363437343834393472
:101230003A343B343C343D343E343F344034413422
:1012400042344334443445344634473448344934D2
:101250004A344B344C344D344E344F345034513482
:101260005234533454345534563457345834593432
:101270005A345B345C345D345E345F3460346134E2
:101280006234633464346534663467346834693492
:101290006A346B346C346D346E346F347034713442
:1012A00072347334743475347634773478347934F2
:1012B0007A347B347C347D347E347F347C3F031934
:1012C00069297F3FF4007E3FF4047D3FF404031D51
:1012D0007929F401F501F601FA297C3F013EFC3F32
:1012E0007F3F8936FF3F7E3F890CFE3F7D3F890C63
:1012F000FD3F7D3FFD007E3FFE007F3FFF00FE3053
:101300007F0503199D296D297C3F013EFC3F06089E
:101310008400070885003D3101308007013100302D
:10132000803D01310030803D7F3F8936FF3F7E3F69
:10133000890CFE3F7D3F890CFD3F7D3FFD007E3FD8
:10134000FE007F3FFF00FF307F050319BD29842980
:101350007C3FFF0002307F02031CC0297C3FF40069
:1013600001307402FC3F06088400070885003D3107
:1013700080350131800D0131800D7E3F891FA82904
:101380007C3F0918D229FF30FD007F30FE00FF307E
:10139000FF007D3F7D05FD3F7E3F7E05FE3F7F3F99
:1013A0007F05FF3F7C3F8936FC3F7C3FFF00FE010D
:1013B000FD017D3F7D04FD3F7E3F7E04FE3F7F3F7C
:1013C0007F04FF3F7B3F0319F4290030FD0000300C
:1013D000FE008030FF007D3F7D04FD3F7E3F7E04A8
:1013E000FE3F7F3F7F04FF3F7D3FF4007E3FF500DF
:1013F0007F3FF6007B3108004631743FFD00753FAA
:10140000FE00763FFF0003107E0D7F0DFE3F890832
:101410000319172A773FFD00783FFE00793FFF0050
:1014200003107E0D7F0DFD3F8908031D1B2AF4016B
:10143000F501F601A02A0030FA3FFB3FFC3F7D3F5B
:10144000FF008930FF077E3FF4007F087402FE3FF3
:10145000763FFD3FF93006078400FF30073D8500E9
:101460007D3FF40000087406FD3F7D3F8039FD3F5D
:10147000753F8917F53F0030F63F783F8917F83FF1
:101480000030F93F1830FF3F060884000708850048
:101490003A3180350131800D0131800D763FF40005
:1014A000793F7402031D5E2A753FF400783F740291
:1014B000031D5E2A743FF400773F7402031C832AE5
:1014C000773FFD00783FFE00793FFF00060884006B
:1014D0000708850034317D08800201317E08803B99
:1014E00001317F08803B3E310130FD000030FE00BD
:1014F0000030FF007A3F7D04FA3F7B3F7E04FB3FD4
:101500007C3F7F04FC3F06088400070885003431D7
:1015100080350131800D0131800D7F3FF4000130B5
:101520007402FF3F031D442A7D3F1E007D3F1E00C5
:10153000783F1E00783F1E00783F1E0089315E21F3
:10154000743108004631773FFD00783FFE00793F57
:10155000FF0003107E0D7F0DFF3F89080319BD2A90
:10156000743FFD00753FFE00763FFF0003107E0DC7
:101570007F0DFD3F8908031DC12AF401F501F60125
:101580004B2B7D3FFF007B30FF077F3F7F07FF3FF7
:10159000793FFD3FF63006078400FF30073D8500A8
:1015A0007D3FF40000087406FD3F7D3F8039FD3F1C
:1015B000783F8917F83F753F8917F53F0030F63FB0
:1015C0000030FA3FFB3FFC3F0730FE3F773F091CEE
:1015D000F82A7A3FF400743F7407FA3F7B3FF40027
:1015E000753F743DFB3F7C3FF400763F743DFC3F0C
:1015F000793F8936F93F783F890CF83F773F890C6E
:10160000F73F060884000708850034318035013132
:10161000800D0131800D7E3FF40001307402FE3FE9
:10162000031DE62A0930FE3F773F091C262B7A3F2F
:10163000F400743F7407FA3F7B3FF400753F743D3C
:10164000FB3F7C3FF400763F743DFC3F793F893699
:10165000F93F783F890CF83F773F890CF73F7C3F93
:101660008936FC3F7B3F890CFB3F7A3F890CFA3F70
:101670007E3FF40001307402FE3F031D142B7D3FBA
:101680001E007E3F1E00783F1E00783F1E00783F00
:101690001E0089315E21743108004531FB30060798
:1016A000FE00FF30073DFF007E08FE3F7F08FF3F42
:1016B00020006708023EFE000030683DFF007E0803
:1016C0001E007F081E00933125238B31FD00FE0193
:1016D000FF017E3F84007F3F85007D08803F7E08BC
:1016E000813F7F08823F7E3F84007F3F8500003F2F
:1016F000FD00013FFE00023FFF007E08FF007D0865
:10170000FE00FD017E3F84007F3F85007D08803F15
:101710007E08813F7F08823F7E3F84007F3F8500B7
:10172000003FFD00013FFE00023FFF002000670870
:10173000013EFA000030683DFB007A081E007B087D
:101740001E00933125238B31FA00FB01FC017A083E
:10175000FD047B08FE047C08FF047E3F84007F3F7D
:1017600085007D08803F7E08813F7F08823F7E3F65
:1017700084007F3F8500003FFD00013FFE00023FE7
:10178000FF007E08FF007D08FE00FD017E3F840013
:101790007F3F85007D08803F7E08813F7F08823F34
:1017A0007E3F84007F3F8500003FFD00013FFE003B
:1017B000023FFF00200067081E0068081E009331EA
:1017C00025238B31FA00FB01FC017A08FD047B081C
:1017D000FE047C08FF047E3F84007F3F85007D0877
:1017E000803F7E08813F7F08823F03302000E7076B
:1017F0000318E80A7B3F1E007B3F1E007B3F1E0054
:1018000000301E0080301E003F301E008931FC2158
:101810007B3FF4007C3FF5007D3FF6007B31080004
:101820004C310130FF3F3730FD000630FE003C30C8
:10183000FF007D08FA3F7E08FB3F7F08FC3F383001
:10184000FD000630FE003430FF007D08F73F7E08C3
:10185000F83F7F08F93F1230FD000330FE003C30B6
:10186000FF007D08F43F7E08F53F7F08F63F6C30AF
:10187000FE002430FF007E08FD3F7F08FE3F02305F
:10188000200048060319D92C460803194A2C923126
:101890007D228C31440803193F2C3608023EFE009D
:1018A0000030373DFF007E081E007F081E00933188
:1018B000EA238C3174081E0075081E0076081E008D
:1018C000743F1E00743F1E00743F1E008A31A22226
:1018D0008C3174081E0075081E0076081E0020005A
:1018E00038081E0039081E009331EA238C31740831
:1018F0001E0075081E0076081E00743F1E00743F0F
:101900001E00743F1E008A31A2228C3174081E0012
:1019100075081E0076081E008E31A4268C317D3F8E
:1019200084007E3F85007408803F7508813F7608FB
:10193000823F7F3F013EFF3F743F1E00743F1E0009
:10194000743F1E007A3F84007B3F8500003F1E00ED
:10195000013F1E00023F1E0088316C208C31031CA9
:10196000CD2C2000C701C70A000000002000901203
:101970008731CE278C319231C9228C310000000092
:101980007F3FFF00FF30FF077F087F077F072000B2
:10199000BA00C601C4014708DA2C2000C4017D3F0B
:1019A000033EFD3FF4017E3F743DFE3FB801B901A7
:1019B0003F2C0130743108004F313330FD0053307B
:1019C000FE003B30FF007D08F73F7E08F83F7F08B0
:1019D000F93F4030FD001C30FE004630FF007D081E
:1019E000F13F7E08F23F7F08F33F4030FD001C309E
:1019F000FE004630FF007D08F43F7E08F53F7F087B
:101A0000F63F713F1E00713F1E00713F1E00003007
:101A10001E00B0301E0040301E008A31A2228C31E0
:101A200074081E0075081E0076081E006E3F1E001A
:101A30006E3F1E006E3F1E006E3F1E006E3F1E007A
:101A40006E3F1E008E31A4268C3174081E0075086E
:101A50001E0076081E008931FC218C317408FD3F80
:101A60007508FE3F7608FF3F713F1E00713F1E0064
:101A7000713F1E00CD301E009C301E0040301E0005
:101A80008A31A2228C3174081E0075081E00760867
:101A90001E006E3F1E006E3F1E006E3F1E006E3F1A
:101AA0001E006E3F1E006E3F1E008E31A4268C313C
:101AB00074081E0075081E0076081E008931FC217E
:101AC0008C317408FA3F7508FB3F7608FC3F0F30F5
:101AD0009431C9248C3174081E0075081E0093319E
:101AE000EA238C3174081E0075081E0076081E005B
:101AF000743F1E00743F1E00743F1E008A31A222F4
:101B00008C3174082000AC007508AD007608AE007A
:101B10007D3F1E007D3F1E007D3F1E002C081E00E5
:101B20002D081E002E081E00743F1E00743F1E006C
:101B3000743F1E0088316C208C310318A12D0130B8
:101B4000A22D0030FE00FF017E081E007F081E004F
:101B5000953115258C3174081E0075081E00760815
:101B60001E0088316C208C310318B82D0130B92D3E
:101B700000307131080049310030FA3FFB3FFC3F33
:101B800000008C3110248D31003A0319A22EC701B8
:101B90006C30FE002430FF007E08FD3F7F08FE3FD2
:101BA0000030FF3F8B314D238D317408F73F7508AE
:101BB000F83F7608F93F7D3F84007E3F8500003F77
:101BC0001E00013F1E00023F1E00743F1E00743FB6
:101BD0001E00743F1E009431EE248D3174081E00E7
:101BE00075081E0076081E007A3F84007B3F850042
:101BF000003F1E00013F1E00023F1E00713F1E00FD
:101C0000713F1E00713F1E008E31A4268D31740875
:101C10001E0075081E0076081E008931FC218D31DA
:101C200074081E0075081E0076081E0000301E0095
:101C300020301E0041301E008A31A2228D317408EE
:101C40002000AF007508B0007608B10000301E001B
:101C500000301E0000301E002F081E0030081E003D
:101C600031081E0088316C208D3103184E2E200063
:101C70002F081E0030081E0031081E0000301E0014
:101C800080301E00BF301E008A31A2228D317408C0
:101C90002000AF007508B0007608B10020002F08C2
:101CA0001E0030081E0031081E00773F1E00773FDF
:101CB0001E00773F1E0088316C208D3103186D2E79
:101CC00020002F08FD003008FE003108FF007D08CD
:101CD000FA3F7E08FB3F7F08FC3F20002F081E00D4
:101CE00030081E0031081E009A301E00D9301E0038
:101CF0003F301E0088316C208D31031C812E000086
:101D00008A2E03302000E7007030E8000930C80058
:101D10000030A22E7D3F033EFD3FF4017E3F743D27
:101D2000FE3F7F3F013EFF3F7F3FFF0013307F02BA
:101D3000031CD22D03302000E7007030E800C801FA
:101D4000C80A01307731080043317A3FFD007B3FFC
:101D5000FE007C3FFF0003107E0D7F0DFD3F773FAF
:101D6000FD00783FFE00793FFF0003107E0D7F0DE0
:101D7000FE3F7D3F0319CC2E7D3FFF007E3F7F025B
:101D80000318D22E7D3FFF007E3FFE007F08FE023B
:101D900019307E02031CD22E773FF400783FF50005
:101DA000793FEA2E7E3F0319E52E7E3FFF007D3FFF
:101DB0007F020318EC2E7E3FFF007D3FFE007F0870
:101DC000FE0219307E02031CEC2E7A3FF4007B3FAA
:101DD000F5007C3FF600FE2F0630FF3F7A3FFD0006
:101DE0007B3FFE007C3FFF00FF1FF92E7F3F8038C6
:101DF000FF3F773FFD00783FFE00793FFF00FF1F68
:101E0000042F7F3F4038FF3F7B3F8917FB3F003067
:101E1000FC3F783F8917F83F0030F93F7D3FFF00D6
:101E20007E3F7F020318462F0608840007088500BE
:101E3000373180350131800D0131800D7E3FF40056
:101E400001307402FE3F7D3FFF007E3F7F06031995
:101E50003F2F7F3FF40001307402FF3F7F3F07397F
:101E600003193F2F142F7C3F8936FC3F7B3F890CA1
:101E7000FB3F7A3F890CFA3F7D3F013EFD3F7E3FAD
:101E8000FF007D3F7F0603197D2F332F7E3FFF002C
:101E90007D3F7F0203187D2F060884000708850018
:101EA0003A3180350131800D0131800D7D3FF400E4
:101EB00001307402FD3F7D3FFF007E3F7F06031926
:101EC000772F7F3FF40001307402FF3F7F3F0739D7
:101ED0000319772F4C2F793F8936F93F783F890CCA
:101EE000F83F773F890CF73F7E3F013EFE3F7E3F44
:101EF000FF007D3F7F06031D6B2F7F3F891F9C2FB7
:101F0000FF30FD00FF30FE00FF30FF007A3F7D060E
:101F1000FA3F7B3F7E06FB3F7C3F7F06FC3F060887
:101F20008400070885003A31013080070131003014
:101F3000803D01310030803D7F3F091FBB2FFF30C6
:101F4000FD00FF30FE00FF30FF00773F7D06F73FCA
:101F5000783F7E06F83F793F7F06F93F0608840008
:101F60000708850037310130800701310030803D9E
:101F700001310030803D0030FF3F773FF4007A3F71
:101F80007407F73F783FF4007B3F743DF83F793F9B
:101F9000F4007C3F743DF93F773FFD00783FFE0041
:101FA000793FFF00FF1FF22FFF30FD00FF30FE00E2
:101FB000FF30FF00773F7D06F73F783F7E06F83F12
:101FC000793F7F06F93F060884000708850037310E
:101FD0000130800701310030803D01310030803D0B
:101FE0000130FF3F7F3F1E007C3F1E00753F1E00FB
:101FF000753F1E00753F1E0089315E217731080054
:1024E20008000800080020001F11080020001B142B
:1024F2000800200095010800200097170800270017
:10250200131E0800943101240800200091100000DD
:1025120020001F1508007E3F2000D6007F3FD70015
:102522007E3108007E3F2000DA007F3FDB007E31F3
:1025320008007E3F2000D4007F3FD5007E31080096
:1025420003347034023470340134AA34013420006C
:102552001B087F3F9A007E3F99007E3108002000D1
:102562005C081E005D081E009231A822080032009D
:1025720091019201930194019501960108002000B6
:102582001B10000000009231B022B401B501080016
:10259200200097130000000092317A22B801B9019D
:1025A2000800013021009D00E0309E009F019B0148
:1025B2009C0108006030320099009B019D010730A8
:1025C2009F009E01080005302000C107C20BEC2AC3
:1025D2000430C3000800C301C30A0800640080017C
:1025E20001310130F4020030F53B7508740403191F
:1025F2000034F02AF40012001E000130F402003010
:10260200F53B7508740403190034FC2AB8301E0027
:102612000B301E0095313F2593310000B8301E006B
:102622000B301E0095313F2508004131FF3F1B2B27
:102632000000192B7F3F013A0319192B033A0319A2
:10264200232B232B7F3108007E3F310091007F3FF7
:102652009200151715140000000000000000310060
:1026620013087E310800FF3020009E009D0191106A
:102672002100911073301E0012301E0092319A22F6
:1026820006309F00080070080319492BF0014E2BF9
:102692007008031D4E2BF001F00A700897319A273B
:1026A20009302000C8000800C03024009400263001
:1026B20095008030960008309700FE30930010306D
:1026C200920020009111210091150800833025000D
:1026D200930094019201910100301E0000301E000F
:1026E20086310226FC3025009F05200014102100AF
:1026F2001414080003302000C5008E1400000000EE
:1027020020000E155A085B04031908005B08FF003D
:102712005A08FE007F088A007E080A0093310800EA
:10272200200011105C081E005D081E009231A822D4
:102732009331B40A0319B50A01303502773003190F
:102742003402031C080093317B2308005030200020
:102752009800960195011608D900D8011508D804E9
:1027620090122100901671301E0012301E0092311C
:102772008C22903097000800203020009C009A01A3
:1027820099011A08DD00DC011908DC04111021008E
:10279200111472301E0012301E0092319322013049
:1027A2009B00080020009012B80A0319B90A5908C0
:1027B2009600580895005608570403190800570850
:1027C200FF005608FE007F088A007E080A00933147
:1027D200080000301E008E301E007C3FFE007D3F50
:1027E200FF007E08FD007F08FE00FF017D081E003D
:1027F2007E081E007F081E0089315E217E3108009E
:1028020014301E0000301E00883105209431200053
:102812000C1E0F2CCA01C901C90A142C0C1A142C43
:10282200C901CA01CA0A0230C800270013120800EF
:1028320050302000A8005030A700A9142910AB0185
:10284200C0302400940028309500083097000330EF
:10285200920020009111111121009115111508000B
:102862009231B82294319531D62594319231DB22BE
:1028720094318831012094319231D22294319331B2
:10288200672394319331A72394319331BD2394313B
:1028920093313423080020009110000092317422F9
:1028A20094310000923186229431000005302000DC
:1028B200C80054085504031908005508FF005408BD
:1028C200FE007F088A007E080A0094310800413128
:1028D200FF3F2400161520004008023E84008501B7
:1028E200120000040319832C4008023E8400850173
:1028F200003FFE00013FFF007E0884007F08850044
:102902007F3F8000C3017F3108008B137F3F31007E
:1029120092007E3F91007D3F930015170000310029
:10292200151555309600AA30960095149A2C000081
:10293200000031009518982C00000000310015119C
:10294200000000008B177D310800200014100330B6
:1029520048060319AE2C0430C80047080319B42CEA
:10296200B801B90108004608031DBC2CC601C60AFD
:102972000530C500080092317A2225001208200095
:10298200B700250011082000B600C401C40A0800DF
:102992004131FF3F21001D1000007F3FFF00FF0D6E
:1029A200FF0D21001D087F0603397F069D000000F0
:1029B20021001D140D30890BDC2C000021009D1418
:1029C200000021009D1CE82C00000000E22C1C08E5
:1029D200F5001B08F4007F3108007F3FF4007E3FC2
:1029E200F4047D3FF4040319052D0030FD0000308E
:1029F200FE008030FF007D3F7D06FD3F7E3F7E066C
:102A0200FE3F7F3F7F06FF3F7D3F1E007D3F1E0052
:102A12007D3F1E00773F1E00773F1E00773F1E005E
:102A22008E31A4267A31080041310030FF3F7E3FCB
:102A3200891F282D7E3FF400F4097D3F8909890A08
:102A42000319F40AFD3F7408FE3F0130FF3F7F3F48
:102A52001E008E301E007B3FFE007C3FFF007E0882
:102A6200FD007F08FE00FF017D081E007E081E009B
:102A72007F081E0089315E217D310800443100301B
:102A8200FC3FFD3F0030FE3FFF3F7B3FF4007F3FB6
:102A92007402031D502D7A3FF4007E3F7402031C22
:102AA2005B2D00007E3F013EFE3FF4017F3F743DFF
:102AB200FF3F462D7C3F013EFC3FF4017D3F743DCC
:102AC200FD3F7C3FFE007D3FFF0003307F02E93087
:102AD20003197E02031C432D7A3108004431003071
:102AE200FC3FFD3F0030FE3FFF3F7B3FF4007F3F56
:102AF2007402031D802D7A3FF4007E3F7402031C92
:102B02008B2D00007E3F013EFE3FF4017F3F743D6E
:102B1200FF3F762D7C3F013EFC3FF4017D3F743D3B
:102B2200FD3F7C3FFE007D3FFF0000307F026530AD
:102B320003197E02031C732D7A310800943131246B
:102B420095319631A32695318B170B17C62D9331EC
:102B520044239531C62D963113269531C62D9631D3
:102B62005B269531200047080319C62DC70170085E
:102B720097319A27953109302000C800C62D8D3132
:102B8200BB259531003A031DC7014808013A0319D4
:102B9200A82D033A0319AC2D013A0319B02D073AB7
:102BA2000319C02DC62D8631762E22008C018D018F
:102BB20001308E00373021008C00F0308D00E13082
:102BC2008E0023008E01E0308D0021308C00240025
:102BD2008D018C018E0125008C018D018E01373013
:102BE20026008C00F0308D00FF308E003F30270031
:102BF2008C00F0308D00FF308E0013121216111669
:102C020019303D00A00002303C00A00018303D0009
:102C1200920010303C00A100210010160C303C0044
:102C22009400080020004A0803191A2E92317722D4
:102C3200080049080319292E033045060319292ED5
:102C42009231C0221110CA01C901C801C80A080084
:102C520049080319452E03304506031D452E013050
:102C620035027730031934020318452E9231C022FF
:102C720096311110CA01C901C501700897319A270E
:102C820009302000C8000800490803190800033071
:102C92004506031D0800013035027730031934025E
:102CA200031C08009231C0221110CA01C90103306D
:102CB200C800080043318C3110249631003A0319C0
:102CC200A12E6C30FE002430FF007E08FD3F7F08FD
:102CD200FE3FAA301E0001301E0070301E009431EB
:102CE2008624963120003A081E0069081E006A08F0
:102CF2001E009431862496310030FF3F7F3F200032
:102D02003A02031CA02E7D3F84007E3F850000080E
:102D12001E0067081E0068081E0094318624963142
:102D22002000E70A0319E80A7D3F013EFD3FF40156
:102D32007E3F743DFE3F7F3F013EFF3F7F2E0000FE
:102D42007D310800413100301E0070301E00933189
:102D520025239631FF3F7F3FAA3A031DBA2EFF304B
:102D62001E0000301E0070301E0094318624963101
:102D7200AC2E72301E0070301E0093312523963126
:102D8200013A0319CD2E01301E0072301E00703040
:102D92001E0094318624963173301E0070301E005E
:102DA200933125239631023A0319E02E02301E0098
:102DB20073301E0070301E00943186249631923199
:102DC200C92296319231C0229631F00170089731B2
:102DD2009A2709302000C800C5017F31080041311F
:102DE200FF3F312F2000BB01BB0A422F02302000DF
:102DF200BB00422F7308BC001D2F3C08EC3EFE00B6
:102E0200FF012330FF3D7E0884007F0885007308A0
:102E12008000BC0A80303C02031C1D2FBC011D2F08
:102E220020003B08003A0319FE2E013A0319FB2E3B
:102E3200033A03191D2FFE2EBB01422F20003C082E
:102E4200EC3E840085012330853D0008240091007A
:102E52002000BC0A80303C02031C422FBC01422FDE
:102E62007F3F003A0319F32E013A03191F2F033A49
:102E72000319112F013A0319422F073A0319F72EAA
:102E8200422F7F310800200091113D08203E84002E
:102E92008501240011088000141D702F941A161F3A
:102EA200572F03309631F02697316E2F20002003E2
:102EB200031D642F00301E0070301E009331252345
:102EC200973124009100AA3020002006031D6C2FA8
:102ED2006C08240091002000BD010000972F941E71
:102EE2006E2F941E972F023020002006031D942F70
:102EF200BD012400151693310723973100301E00BF
:102F020070301E00933125239731AA3A0319932F6B
:102F1200AA301E0000301E0070301E00943186243C
:102F220097317F2F010000002000BD0A24001516F2
:102F320008004131FF3F7F3F0319C12FAA30200013
:102F4200EC008C31DC249731003A031DAC2F0130A8
:102F5200933116239731A13021008E00000000002A
:102F620020008E100000000020000E15000000005E
:102F72002000ED0193315523973120000E16FE2FCC
:102F82007F3F031DFE2F55302000EC000E1700007E
:102F9200E13021008E0064301E0000301E009531A9
:102FA2006F259731D82F6B08031DDB2F00002000FF
:102FB2000E1BD42F000020008E1400000000200001
:102FC2000E110000000020006B08031DF72F3030A7
:102FD2001E0075301E0095316F259731000030308C
:102FE2001E0075301E0095316F25973120000E129C
:0E2FF200EB01ED01ED0A943119247F31080046
:020000040001F9
:08000E00ECFFF3DFFFFFFFFF31
:00000001FF
