version:01.02
:020000040000FA
:100C00008631802E7E310800863174082000DD0098
:100C10007808DE007908DF007A08E0007B08E10050
:100C20007C08E2007D08E3007E08E4007F08E50020
:100C3000A5308600223087002100901E262E20003D
:100C4000901E262E96318A2686316C2E2100101E8B
:100C5000302E2000101E302E9531232586316C2E2B
:100C60000B1F6C2E2100111F3B2E2000111F3B2E4D
:100C70009631732686312100111D4B2E2000111D47
:100C80004B2E3D08FF003C08FE007F088A007E08CE
:100C90000A0086316C2E2100911920009119412EF5
:100CA0002100141C5A2E2000141C5A2E9731632741
:100CB00086316C2E2100911C642E2000911C642E24
:100CC0009631EB2686316C2E2100111C6C2E2000F3
:100CD000111C6C2E9631312620006508FF00640837
:100CE000FE006308FD006208FC006108FB0060086C
:100CF000FA005F08F9005E08F8005D08F4000900DA
:100D00008631822E8731FF278631E600023084004B
:100D100025308500EE30F4000230F50088310020E7
:100D20008631F001F101F201F3012030840000303E
:100D300085003D30F4000030F500883100202000AF
:100D400047308600203087008A310E2A5331033025
:100D5000F93F7030FA3F0030F03FF13FF23F003092
:100D6000F33FF43FF53F72082000BF00F030060764
:100D7000FE00FF30073DFF007E08FB3F7F08FC3F81
:100D80008D31B5258631003A0319B72F2000C701F0
:100D90000230FE002530FF007E08FD3F7F08FE3F49
:100DA0000030FF3F7F3FFF0020002508803AF4001D
:100DB00080307402031DDE2E7F082402031CB52F31
:100DC0007B3FFE007C3FFF007E0884007F0885009B
:100DD0000231793F023EFE007A3FFF000030FF3DC6
:100DE0007E081E007F081E009531EE2586318000AA
:100DF0007B3FFE007C3FFF007E0884007F0885006B
:100E00000131793F013EFE007A3FFF000030FF3D97
:100E10007E081E007F081E009531EE258631800079
:100E20007B3F84007C3F8500793F1E00793F1E0098
:100E30009531EE2586318000703FF63F713FF73FD8
:100E4000723FF83F793F033EF93FF4017A3F743D2A
:100E5000FA3F763F1E00763F1E00763F1E007A3F27
:100E600084007B3F8500003F1E00013F1E00023FC3
:100E70001E009731AA27863174081E0075081E00CF
:100E800076081E007A3F84007B3F8500003F1E00ED
:100E9000013F1E00023F1E008C316424863174081D
:100EA000ED3F7508EE3F7608EF3F00301E00003042
:100EB0001E0000301E006A3F1E006A3F1E006A3F8F
:100EC0001E008A31D922863103187B2F6D3F1E0008
:100ED0006D3F1E006D3F1E0000301E0080301E0062
:100EE000BF301E008D310A2586317408ED3F75082C
:100EF000EE3F7608EF3F6D3F1E006D3F1E006D3FD9
:100F00001E00703F1E00703F1E00703F1E008A31A1
:100F1000D92286310318922F6D3FF33F6E3FF43F85
:100F20006F3FF53FCD301E004C301E003E301E009E
:100F30006A3F1E006A3F1E006A3F1E008A31D922A6
:100F400086310318A52F0000AA2F20003F08F200C9
:100F50000030C02F7D3F033EFD3FF4017E3F743DD6
:100F6000FE3F7F3F013EFF3FD22EF201F20AFA30F0
:100F70001E0002301E0025301E0088317120013015
:100F80006D31080022008C018D0101308E00373058
:100F900021008C00F0308D0001308E0023008E0186
:100FA000E0308D0021308C0024008D018C018E01F9
:100FB00025008C018D018E01373026008C00F03029
:100FC0008D00FF308E003F3027008C00F0308D0008
:100FD000FF308E0013121216111619303D00A000BA
:100FE00002303C00A00018303D00920010303C0060
:100FF000A100210010160C303C0094000800AA3417
:101000006400800101310130F4020030F53B7508C5
:10101000740403190034012843312000B401B501E0
:101020000030FD3FFE3FFF3F901E22280030FD3F75
:10103000FE3FFF3F003035023C30031934020318F5
:101040003C28901206088400070885003D310130D5
:10105000800701310030803D01310030803D3E315C
:10106000003FFF3A031D3A28013FFF3A031D3A288B
:10107000023F023A031D14287D3108004331FD3F31
:101080000030FE3F7C3F03196E280130FF3F7C3F5C
:10109000891B51287C3F8935FC3F7F3F013EFF3F44
:1010A00047287E3F8935FE3F7D3FFF007C3F7F0222
:1010B000031C64287C3FFF007D3FF4007F0874021E
:1010C000FD3F7E3F0138FE3F7C3F8936FC3F7F3F3E
:1010D000F40001307402FF3F031D51287E3F7C3134
:1010E000080042310030FE3FFF3F0030FE3FFF3F2F
:1010F0007E3FFE007F3FFF007B3FFF3EFC00FF3056
:1011000003180030FD007D08803AF4007F08803A23
:101110007402031D8D287E087C02031CA3287C3FDB
:1011200084007D3F850080017C3F013EFC3FF4014F
:101130007D3F743DFD3F7E3F013EFE3FF4017F3F1A
:10114000743DFF3F78287B3108009531D4258831E4
:1011500008309531852588317F3095318D2588314E
:1011600064301E0009301E0095314B258831003057
:101170001E0000301E009431E82488311E301E000D
:1011800015301E0095315925883119301E00153053
:101190001E009531522588310F301E0015301E007B
:1011A00095314425883100301E0000301E009431F6
:1011B000EA2488319431FE24080000301E0070308B
:1011C0001E009531EE2588310000000055302000CA
:1011D000E6008E140E119531B72588319531A5257D
:1011E0008831F10171088B314B2388318831A5207A
:1011F00088312000C501803022009800990120002C
:101200000E130A301E0053301E0000301E008831BD
:10121000712088310A301E0049301E0000301E0047
:10122000883171200930F20009302000BF00080029
:1012300020004808031922297108031D222994312E
:10124000F8240800730803193229033045060319EE
:1012500032299531A5251110C801F301F30AF201D5
:10126000F20A0800730803194E2903304506031DCE
:101270004E2901302F02773003192E0203184E2910
:101280009531A52589311110C801F301C5018E11D1
:1012900071088B314B230930F200080073080319E1
:1012A000080003304506031D080001302F02773087
:1012B00003192E02031C08009531A5251110C80141
:1012C000F3010330F20008009431EF2489319531A5
:1012D0002F258931003A0319772995311425893151
:1012E000003A03197529013080290230802995318F
:1012F00014258931003A03197F29033080290430ED
:101300002000C0009F299531DF2589319531362590
:101310008931003A0319AD29973107278931AD2961
:101320009531DF258931AD29862995310725893108
:10133000003A0319AD29973186278931AD29400834
:10134000013A03198329033A03199029013A031931
:101350009429073A03199529AD299431F224000004
:10136000080045310330FB3F7030FC3F8D31B5251F
:101370008931003A03190C2A0230FE002530FF00A3
:101380007E08FD3F7F08FE3FAA301E0001301E0090
:1013900070301E0097314227893120003E081E0020
:1013A00002301E0070301E00973142278931033011
:1013B0001E0020003E0888313E2089312000A40014
:1013C000A501FF30A407031CA5030030FF3F7F3FAA
:1013D00020003E02031C0B2A7D3F84007E3F8500D7
:1013E00000081E007A3F1E007A3F1E0097314227F8
:1013F00089317B3F013EFB3FF4017C3F743DFC3F64
:101400007D3F013EFD3FF4017E3F743DFE3F7F3F47
:10141000013EFF3FE72900007B3108009731242778
:101420008A318831DD208A318B170B175C2A953180
:10143000FD258A315C2A893118218A315C2A71089C
:101440000319242A09304D2A8931B1218A3120001B
:10145000470803195C2AC7018E1400000000200011
:101460000E110000000020008E11222A8631A626CF
:101470008A31003A03195C2A2000C7015C2A200047
:101480005303031D5C2A0A301E0049301E00003041
:101490001E00883171208A310630F2005C2A9431B6
:1014A000FB248A31AA301E0000301E0070301E005E
:1014B000973142278A3101007208013A0319172A2D
:1014C000033A03191B2A013A03191F2A073A031981
:1014D000362A013A03193F2A033A03194F2A5C2A94
:1014E0008631802E48310030FC3FFD3FFE3FFF3FFC
:1014F000763FFE00773FFF007E08FC007F08FD007E
:101500000030FD1BFF30FE00FF007C3FF8007D3FF8
:10151000F9007E3FFA007F3FFB007F087B02031D3E
:101520009B2A7E087A02031D9B2A7D087902031DEF
:101530009B2A7C0878020318D72A0030F83FF93F2D
:10154000FA3FFB3F00000000000000000608840096
:101550000708850038310130800701310030803DB7
:1015600001310030803D01310030803D7B3F031D63
:10157000C62A7A3F031DC62A783FF4002030740241
:10158000793FF4000330743B031CA22A0608840050
:10159000070885003C310130800701310030803D73
:1015A00001310030803D01310030803D782A7631B4
:1015B00008007D3FFD007E3FFE007F3FFF00FF1FD4
:1015C000F92A7D3FFD007E3FFE007F3FFF00003097
:1015D000FA000030FB008030FC007D08FA027E0833
:1015E000FB3B7F08FC3B7A08FD3F7B08FE3F7C0805
:1015F000FF3F7A3FFD007B3FFE007C3FFF00FF1F67
:10160000192B7A3FFD007B3FFE007C3FFF0000303E
:10161000FA000030FB008030FC007D08FA027E08F2
:10162000FB3B7F08FC3B7A08FA3F7B08FB3F7C08CA
:10163000FC3F0030FD000030FE008030FF007D3FA9
:101640007D06FD3F7E3F7E06FE3F7F3F7F06FF3FDC
:101650000030FD000030FE008030FF007A3F7D0644
:10166000FA3F7B3F7E06FB3F7C3F7F06FC3F7F3F90
:10167000F4007C3F7402031D472B7E3FF4007B3F48
:101680007402031D472B7D3FF4007A3F7402031C54
:1016900003107A3108004131FF3F7F3F03198C2B43
:1016A000210010120000000021001410AA302000B8
:1016B000E6000000000020008E1000000000200066
:1016C0000E150000000020000E16712B5530540638
:1016D0000319762BFF301E0000301E009731D127F2
:1016E0008B31AA3020005306031D662B0A301E00E2
:1016F00053301E0000301E00883171208B310000F5
:10170000000020000E17000000002100101600004D
:10171000000021001414C42B7F3F031DC42BAA30EA
:1017200020006606031DB82B0000000020008E1468
:101730000000000055302000C900AA30CA00AB2BC1
:10174000553054060319B02B10301E0027301E00F0
:101750009731D1278B31AA3020005306031DA02BCF
:101760000A301E0049301E0000301E0088317120F2
:1017700020008E140000000020000E110000000068
:1017800020000E125530E6007F3108007C3F03191F
:10179000D12B7F3FF4007E3FF4047D3FF404031D12
:1017A000E12BF401F501F601622C7C3F013EFC3F88
:1017B0007F3F8936FF3F7E3F890CFE3F7D3F890C8E
:1017C000FD3F7D3FFD007E3FFE007F3FFF00FE307E
:1017D0007F050319052CD52B7C3F013EFC3F0608F5
:1017E0008400070885003D31013080070131003059
:1017F000803D01310030803D7F3F8936FF3F7E3F95
:10180000890CFE3F7D3F890CFD3F7D3FFD007E3F03
:10181000FE007F3FFF00FF307F050319252CEC2BD6
:101820007C3FFF0002307F02031C282C7C3FF40029
:1018300001307402FC3F06088400070885003D3132
:1018400080350131800D0131800D7E3F891F102CC4
:101850007C3F09183A2CFF30FD007F30FE00FF303E
:10186000FF007D3F7D05FD3F7E3F7E05FE3F7F3FC4
:101870007F05FF3F7C3F8936FC3F7C3FFF00FE0138
:10188000FD017D3F7D04FD3F7E3F7E04FE3F7F3FA7
:101890007F04FF3F7B3F03195C2C0030FD000030CC
:1018A000FE008030FF007D3F7D04FD3F7E3F7E04D3
:1018B000FE3F7F3F7F04FF3F7D3FF4007E3FF5000A
:1018C0007F3FF6007B3108004631743FFD00753FD5
:1018D000FE00763FFF0003107E0D7F0DFE3F89085E
:1018E00003197F2C773FFD00783FFE00793FFF0012
:1018F00003107E0D7F0DFD3F8908031D832CF4012D
:10190000F501F601082D0030FA3FFB3FFC3F7D3F1B
:10191000FF008930FF077E3FF4007F087402FE3F1E
:10192000763FFD3FF93006078400FF30073D850014
:101930007D3FF40000087406FD3F7D3F8039FD3F88
:10194000753F8917F53F0030F63F783F8917F83F1C
:101950000030F93F1830FF3F060884000708850073
:101960003A3180350131800D0131800D763FF40030
:10197000793F7402031DC62C753FF400783F740252
:10198000031DC62C743FF400773F7402031CEB2C3C
:10199000773FFD00783FFE00793FFF000608840096
:1019A0000708850034317D08800201317E08803BC4
:1019B00001317F08803B3E310130FD000030FE00E8
:1019C0000030FF007A3F7D04FA3F7B3F7E04FB3FFF
:1019D0007C3F7F04FC3F0608840007088500343103
:1019E00080350131800D0131800D7F3FF4000130E1
:1019F0007402FF3F031DAC2C7D3F1E007D3F1E0087
:101A0000783F1E00783F1E00783F1E008B31C623B2
:101A1000743108004631773FFD00783FFE00793F82
:101A2000FF0003107E0D7F0DFF3F89080319252D50
:101A3000743FFD00753FFE00763FFF0003107E0DF2
:101A40007F0DFD3F8908031D292DF401F501F601E5
:101A5000B32D7D3FFF007B30FF077F3F7F07FF3FB8
:101A6000793FFD3FF63006078400FF30073D8500D3
:101A70007D3FF40000087406FD3F7D3F8039FD3F47
:101A8000783F8917F83F753F8917F53F0030F63FDB
:101A90000030FA3FFB3FFC3F0730FE3F773F091C19
:101AA000602D7A3FF400743F7407FA3F7B3FF400E7
:101AB000753F743DFB3F7C3FF400763F743DFC3F37
:101AC000793F8936F93F783F890CF83F773F890C99
:101AD000F73F06088400070885003431803501315E
:101AE000800D0131800D7E3FF40001307402FE3F15
:101AF000031D4E2D0930FE3F773F091C8E2D7A3F86
:101B0000F400743F7407FA3F7B3FF400753F743D67
:101B1000FB3F7C3FF400763F743DFC3F793F8936C4
:101B2000F93F783F890CF83F773F890CF73F7C3FBE
:101B30008936FC3F7B3F890CFB3F7A3F890CFA3F9B
:101B40007E3FF40001307402FE3F031D7C2D7D3F7B
:101B50001E007E3F1E00783F1E00783F1E00783F2B
:101B60001E008B31C623743108004F310130FF3F16
:101B70003730FD000630FE003C30FF007D08FA3FA4
:101B80007E08FB3F7F08FC3F3830FD000630FE003A
:101B90003430FF007D08F73F7E08F83F7F08F93FAB
:101BA0001230FD000330FE003C30FF007D08F43FA2
:101BB0007E08F53F7F08F63F0030F13FF23FF33FEC
:101BC0000230FE002530FF007E08FD3F7F08FE3F0B
:101BD0009D2E200046080319F02D953104258D31E6
:101BE000440803199D2E3208023EFE000030333DAA
:101BF000FF007E081E007F081E009631A1268D3151
:101C000074081E0075081E0076081E00743F1E0032
:101C1000743F1E00743F1E008D310A258D317408FB
:101C20001E0075081E0076081E00200034081E00E5
:101C300035081E009631A1268D3174081E007508E6
:101C40001E0076081E00743F1E00743F1E00743F85
:101C50001E008D310A258D3174081E0075081E0086
:101C600076081E008E31A4268D317D3F84007E3F94
:101C700085007408803F7508813F7608823F7F3F6A
:101C8000013EFF3F743F1E00743F1E00743F1E0064
:101C90007A3F84007B3F8500003F1E00013F1E000D
:101CA000023F1E008A31D9228D31031C732E200081
:101CB000C701C70A000000002000901288310C20E4
:101CC0008D319531B7258D31000000007F3FFF0039
:101CD000FF30FF077F087F077F072000BE00C60197
:101CE000C4014708A22E7D3F84007E3F8500003F4F
:101CF0001E00013F1E00023F1E006E3F1E006E3F91
:101D00001E006E3F1E008A31D9228D31031C922E97
:101D10002000C701901288310C208D319531B725F4
:101D20008D31A12E2000C4017D3F033EFD3FF40113
:101D30007E3F743DFE3FB401B50102307206031DC3
:101D4000E92D00307131080043317A3FFD007B3FBF
:101D5000FE007C3FFF0003107E0D7F0DFD3F773FAF
:101D6000FD00783FFE00793FFF0003107E0D7F0DE0
:101D7000FE3F7D3F0319CC2E7D3FFF007E3F7F025B
:101D80000318D22E7D3FFF007E3FFE007F08FE023B
:101D900019307E02031CD22E773FF400783FF50005
:101DA000793FEA2E7E3F0319E52E7E3FFF007D3FFF
:101DB0007F020318EC2E7E3FFF007D3FFE007F0870
:101DC000FE0219307E02031CEC2E7A3FF4007B3FAA
:101DD000F5007C3FF600FE2F0630FF3F7A3FFD0006
:101DE0007B3FFE007C3FFF00FF1FF92E7F3F8038C6
:101DF000FF3F773FFD00783FFE00793FFF00FF1F68
:101E0000042F7F3F4038FF3F7B3F8917FB3F003067
:101E1000FC3F783F8917F83F0030F93F7D3FFF00D6
:101E20007E3F7F020318462F0608840007088500BE
:101E3000373180350131800D0131800D7E3FF40056
:101E400001307402FE3F7D3FFF007E3F7F06031995
:101E50003F2F7F3FF40001307402FF3F7F3F07397F
:101E600003193F2F142F7C3F8936FC3F7B3F890CA1
:101E7000FB3F7A3F890CFA3F7D3F013EFD3F7E3FAD
:101E8000FF007D3F7F0603197D2F332F7E3FFF002C
:101E90007D3F7F0203187D2F060884000708850018
:101EA0003A3180350131800D0131800D7D3FF400E4
:101EB00001307402FD3F7D3FFF007E3F7F06031926
:101EC000772F7F3FF40001307402FF3F7F3F0739D7
:101ED0000319772F4C2F793F8936F93F783F890CCA
:101EE000F83F773F890CF73F7E3F013EFE3F7E3F44
:101EF000FF007D3F7F06031D6B2F7F3F891F9C2FB7
:101F0000FF30FD00FF30FE00FF30FF007A3F7D060E
:101F1000FA3F7B3F7E06FB3F7C3F7F06FC3F060887
:101F20008400070885003A31013080070131003014
:101F3000803D01310030803D7F3F091FBB2FFF30C6
:101F4000FD00FF30FE00FF30FF00773F7D06F73FCA
:101F5000783F7E06F83F793F7F06F93F0608840008
:101F60000708850037310130800701310030803D9E
:101F700001310030803D0030FF3F773FF4007A3F71
:101F80007407F73F783FF4007B3F743DF83F793F9B
:101F9000F4007C3F743DF93F773FFD00783FFE0041
:101FA000793FFF00FF1FF22FFF30FD00FF30FE00E2
:101FB000FF30FF00773F7D06F73F783F7E06F83F12
:101FC000793F7F06F93F060884000708850037310E
:101FD0000130800701310030803D01310030803D0B
:101FE0000130FF3F7F3F1E007C3F1E00753F1E00FB
:101FF000753F1E00753F1E008B31C62377310800E8
:1029CA000800080008007E3108007E310800240053
:1029DA0011080800200091110800240015160800AB
:1029EA0020001F11080020001B1408009531AE2595
:1029FA000800210091150800200095010800200018
:102A0A00971708002400140801390800163021001D
:102A1A00970008009431EC242000C100080024002B
:102A2A00140C890C013908009431EC242000C200EE
:102A3A0008002000430895313D2508002700131E91
:102A4A0008009631B82608002000911000002000E6
:102A5A001F15080003102400941E03140030093DBA
:102A6A00080003102400141C03140030093D080058
:102A7A004131FF3F7F3F240091007F3108007E3FB4
:102A8A002000B6007F3FB7007E3108007E3F20005D
:102A9A00BC007F3FBD007E3108007E3F2000BA00A7
:102AAA007F3FBB007E3108007E3F2000B8007F3F99
:102ABA00B9007E3108007E3F2000A8007F3FA900B0
:102ACA007E3108007E3F2000AC007F3FAD007E31A2
:102ADA0008007E3F2000A6007F3FA7007E31080045
:102AEA0020001B087F3F9A007E3F99007E31080034
:102AFA00200030081E0031081E0095317525080097
:102B0A004131FF3F7F3F0935240092007F310800A1
:102B1A004131FF3F7F3F0935240093007F31080090
:102B2A00240094010630950496019512F0010800DC
:102B3A0032009101920193019401950196010800D6
:102B4A0020001B100000000095317D25AE01AF0169
:102B5A000800403024009400063095048130960025
:102B6A0095120800200097130000000095310125F6
:102B7A00B401B5010800013021009D00E0309E003B
:102B8A009F019B019C0111130800320099019B01CE
:102B9A009D0106309F009E011C180800D12D2400BB
:102BAA00951A08004030940006309504813096004A
:102BBA00951608002000360837040319080037085C
:102BCA00FF003608FE007F088A007E080A00953159
:102BDA0008007E3F310091007F3F920015171514BF
:102BEA000000000000000000310013087E310800D8
:102BFA0071080319022EF101072E7108031D072E11
:102C0A00F101F10A71088B314B230930F2000800F7
:102C1A00FF3020009E009D01911021009110E730A5
:102C2A001E0014301E0095316E2506309F000800E4
:102C3A0083302500930094019201910100301E0017
:102C4A0000301E0086310226FC3025009F05200038
:102C5A0014102100141408002000111030081E005E
:102C6A0031081E00953175259631AE0A0319AF0A4F
:102C7A0001302F02773003192E02031C0800963107
:102C8A00D0260800503020009800960195011608B9
:102C9A00AB00AA011508AA04901221009016E5308B
:102CAA001E0014301E0095316025903097000800F0
:102CBA00203020009C009A0199011A08B100B00145
:102CCA001908B004111021001114E6301E00143046
:102CDA001E009531672501309B0008004131200014
:102CEA00111321001D0C890C3F39FF3F7F3F200043
:102CFA00A000A101A10A21001B082000A2002100B6
:102D0A001C082000A3007F31080020009012B40A9A
:102D1A000319B50A2B0896002A08950028082904E1
:102D2A00031908002908FF002808FE007F088A0006
:102D3A007E080A009631080000301E008E301E0000
:102D4A007C3FFE007D3FFF007E08FD007F08FE00FD
:102D5A00FF017D081E007E081E007F081E008B31C1
:102D6A00C6237E31080014301E0000301E008A314E
:102D7A007222963120000C1EC62EC801F301F30AF6
:102D8A00CB2E0C1ACB2EF301C801C80A0230F2006E
:102D9A002700131208007108031DDC2E03302000DF
:102DAA00C5008E1500000000000020008E102000D3
:102DBA002C082D04031908002D08FF002C08FE001A
:102DCA007F088A007E080A009631080020009110C8
:102DDA0000009431F5249631000095312925963169
:102DEA0000000530F2002000260827040319080015
:102DFA002708FF002608FE007F088A007E080A00CE
:102E0A00973108000A3070020318142F7008493EDF
:102E1A008400850100082000C300F00A152FF00184
:102E2A00200038083904031908003908FF00380857
:102E3A00FE007F088A007E080A0097310800953153
:102E4A009D2597318731C22797319531CA25973108
:102E5A0095310B2597319531C025973196311D262D
:102E6A00973196314726973196315D2697319631BB
:102E7A000D2697319531952508008B137F3F310038
:102E8A0092007E3F91007D3F9300151700000000DD
:102E9A003100151555309600AA3096009514572F13
:102EAA000000000031009518552F00000000310085
:102EBA001511000000008B177D3108002000141046
:102ECA000330720603196B2F0430F2004708031906
:102EDA00712FB401B50108004608031D792FC601F8
:102EEA00C60A0530C50008009531012525001208DB
:102EFA002000B300250011082000B200C401C40A52
:102F0A0008007008533E84008501240011088000DF
:102F1A0009307006031D9A2FAA30200053060319A0
:102F2A00982F0530F200F0019B2FF00A20003A0892
:102F3A003B04031908003B08FF003A08FE007F081B
:102F4A008A007E080A00973108007F3FF4007E3F1E
:102F5A00F4047D3FF4040319C12F0030FD00003052
:102F6A00FE008030FF007D3F7D06FD3F7E3F7E06EE
:102F7A00FE3F7F3F7F06FF3F7D3F1E007D3F1E00D5
:102F8A007D3F1E00773F1E00773F1E00773F1E00E1
:102F9A008E31A4267A31080044310030FE3FFF3FCB
:102FAA007E3FFE007F3FFF0000307F02653003193D
:102FBA007E020318FE2F7E3F013EFE3FF4017F3F53
:102FCA00743DFF3F0030FC3FFD3F7B3FF4007D3FF7
:102FDA007402031DF42F7A3FF4007C3F7402031C31
:102FEA00D52F7C3F013EFC3FF4017D3F743DFD3F00
:062FFA00EA2F7A31080005
:020000040001F9
:08000E008CFFF3DFFFFFFFFF91
:00000001FF
