:020000040000FA
:100A00008531762D7E310800853174082000E000A4
:100A10007808E1007908E2007A08E3007B08E40046
:100A20007C08E5007D08E6007E08E7007F08E80016
:100A30001E308600223087002100901E262D2000C7
:100A4000901E262D9431F4248531622D2100101E34
:100A5000302D2000101E302D9331B1238531622DB1
:100A60000B1F622D2100141C3C2D2000141C3C2D5A
:100A70009531AB258531622D2100911D502D20002F
:100A8000911D502D6E08031D492D88311C20853184
:100A9000622D6E080319622D8E31EF268531622D8D
:100AA0002100911C5A2D2000911C5A2D88310020C4
:100AB0008531622D2100111C622D2000111C622D38
:100AC0009431B22420006808FF006708FE00660821
:100AD000FD006508FC006408FB006308FA0062087A
:100AE000F9006108F8006008F40009008531782DEC
:100AF000F430840089308500EC3086002330870094
:100B00000030F500803094312B2485319331A023BF
:100B10008531F300BD308400933085006930860054
:100B2000003087000030F500063094312B248531E9
:100B30006C308400243085008430F4000330F500EC
:100B400094311F248531F001F101F201203084003D
:100B5000003085003630F4000030F50094311F2459
:100B600020004F308600203087009631FC2E433124
:100B70007A3FFD007B3FFE007C3FFF0003107E0DAF
:100B80007F0DFD3F773FFD00783FFE00793FFF007E
:100B900003107E0D7F0DFE3F7D3F0319DF2D7D3F4E
:100BA000FF007E3F7F020318E52D7D3FFF007E3F63
:100BB000FE007F08FE0219307E02031CE52D773F00
:100BC000F400783FF500793FFD2D7E3F0319F82DA5
:100BD0007E3FFF007D3F7F020318FF2D7E3FFF0019
:100BE0007D3FFE007F08FE0219307E02031CFF2DB0
:100BF0007A3FF4007B3FF5007C3FF600112F063072
:100C0000FF3F7A3FFD007B3FFE007C3FFF00FF1F60
:100C10000C2E7F3F8038FF3F773FFD00783FFE007E
:100C2000793FFF00FF1F172E7F3F4038FF3F7B3F7C
:100C30008917FB3F0030FC3F783F8917F83F0030B1
:100C4000F93F7D3FFF007E3F7F020318592E0608C3
:100C5000840007088500373180350131800D01316E
:100C6000800D7E3FF40001307402FE3F7D3FFF00A7
:100C70007E3F7F060319522E7F3FF400013074023D
:100C8000FF3F7F3F07390319522E272E7C3F8936BD
:100C9000FC3F7B3F890CFB3F7A3F890CFA3F7D3F4D
:100CA000013EFD3F7E3FFF007D3F7F060319902EF2
:100CB000462E7E3FFF007D3F7F020318902E0608E0
:100CC0008400070885003A3180350131800D0131FB
:100CD000800D7D3FF40001307402FD3F7D3FFF0039
:100CE0007E3F7F0603198A2E7F3FF4000130740295
:100CF000FF3F7F3F073903198A2E5F2E793F8936E0
:100D0000F93F783F890CF83F773F890CF73F7E3FEA
:100D1000013EFE3F7E3FFF007D3F7F06031D7E2E8E
:100D20007F3F891FAF2EFF30FD00FF30FE00FF30F8
:100D3000FF007A3F7D06FA3F7B3F7E06FB3F7C3F0C
:100D40007F06FC3F06088400070885003A31013021
:100D5000800701310030803D01310030803D7F3F10
:100D6000091FCE2EFF30FD00FF30FE00FF30FF00D8
:100D7000773F7D06F73F783F7E06F83F793F7F0655
:100D8000F93F0608840007088500373101308007E5
:100D900001310030803D01310030803D0030FF3FA7
:100DA000773FF4007A3F7407F73F783FF4007B3FCA
:100DB000743DF83F793FF4007C3F743DF93F773F45
:100DC000FD00783FFE00793FFF00FF1F052FFF3039
:100DD000FD00FF30FE00FF30FF00773F7D06F73F4C
:100DE000783F7E06F83F793F7F06F93F060884008A
:100DF0000708850037310130800701310030803D20
:100E000001310030803D0130FF3F7F3F1E007C3FBD
:100E10001E00753F1E00753F1E00753F1E008A3183
:100E20007422773108004F313330FD005330FE001B
:100E30003B30FF007D08F73F7E08F83F7F08F93F11
:100E40004030FD001C30FE004630FF007D08F13FC1
:100E50007E08F23F7F08F33F4030FD001C30FE006B
:100E60004630FF007D08F43F7E08F53F7F08F63FDF
:100E7000713F1E00713F1E00713F1E0000301E00BA
:100E8000B0301E0040301E008B31B823873174080B
:100E90001E0075081E0076081E006E3F1E006E3F85
:100EA0001E006E3F1E006E3F1E006E3F1E006E3F16
:100EB0001E008531B725873174081E0075081E0095
:100EC00076081E008B31122387317408FD3F7508A8
:100ED000FE3F7608FF3F713F1E00713F1E00713FCD
:100EE0001E00CD301E009C301E0040301E008B3195
:100EF000B823873174081E0075081E0076081E008E
:100F00006E3F1E006E3F1E006E3F1E006E3F1E00B5
:100F10006E3F1E006E3F1E008531B7258731740875
:100F20001E0075081E0076081E008B3112238731C3
:100F30007408FA3F7508FB3F7608FC3F0F30953187
:100F4000CE25873174081E0075081E0095310B25CB
:100F5000873174081E0075081E0076081E00743F55
:100F60001E00743F1E00743F1E008B31B823873172
:100F700074082000AC007508AD007608AE007D3F17
:100F80001E007D3F1E007D3F1E002C081E002D0808
:100F90001E002E081E00743F1E00743F1E00743F8A
:100FA0001E008931822187310318D82F0130D92FB3
:100FB0000030FE00FF017E081E007F081E009631F3
:100FC0004026873174081E0075081E0076081E0032
:100FD0008931822187310318EF2F0130F02F003043
:100FE000713108004131FF3FF62FF52F7F3F013A65
:100FF0000319F52F033A0319FE2FFE2F7F31080046
:101000002000911000009331A1238831000093311A
:10101000B7238831000005302000C500560857046A
:10102000031908005708FF005608FE007F088A00D1
:101030007E080A0088310800200091113A08203EFD
:1010400084008501240011088000141D4828941A8A
:10105000161F2F280330883166208831462820004B
:101060002003031D3C2800301E0070301E00943108
:101070004624883124009100AA3020002006031D58
:1010800044285530240091002000BA010000632854
:10109000941E4628941E6328023020002006031D5B
:1010A0006028BA0124001516943137248831AA30FB
:1010B0001E0000301E0070301E0095318B2501008F
:1010C00000002000BA0A2400151608004131FF3F35
:1010D000A7282000B801B80AB82802302000B800BC
:1010E000B8287308B90093283908EC3EFE00FF01C8
:1010F0002330FF3D7E0884007F0885007308800050
:10110000B90A80303902031C9328B90193282000C2
:101110003808003A03197428013A03197128033A70
:10112000031993287428B801B82820003908EC3E28
:10113000840085012330853D0008240091002000B3
:10114000B90A80303902031CB828B901B8287F3F9A
:10115000003A03196928013A03199528033A03193B
:101160008728013A0319B828073A03196D28B828C7
:101170007F3108004131FF3F7F3F0319DE2887316F
:1011800013278831003A031DC92801308731F2271F
:101190008831A13021008E000000000020008E1058
:1011A0000000000020000E15000000002000EE01ED
:1011B00094317624883120000E1619297F3F031DB3
:1011C000192920000E170000E13021008E00643044
:1011D0001E0000301E0096319A268831F3286D08D3
:1011E000031DF628000020000E1BEF280000200041
:1011F0008E140000000020000E11000000002000EE
:101200006D08031D122930301E0075301E00963106
:101210009A268831000030301E0075301E0096314D
:101220009A26883120000E12ED01EE01EE0A95316A
:101230003A257F31080048310030FC3FFD3FFE3F3A
:10124000FF3F763FFE00773FFF007E08FC007F08EF
:10125000FD000030FD1BFF30FE00FF007C3FF8006A
:101260007D3FF9007E3FFA007F3FFB007F087B0255
:10127000031D44297E087A02031D44297D08790252
:10128000031D44297C087802031880290030F83FA8
:10129000F93FFA3FFB3F0000000000000000060895
:1012A00084000708850038310130800701310030A3
:1012B000803D01310030803D01310030803D7B3F79
:1012C000031D6F297A3F031D6F29783FF4002030FA
:1012D0007402793FF4000330743B031C4B29060869
:1012E0008400070885003C3101308007013100305F
:1012F000803D01310030803D01310030803D2129A9
:10130000763108007D3FFD007E3FFE007F3FFF00FD
:10131000FF1FA2297D3FFD007E3FFE007F3FFF00B3
:101320000030FA000030FB008030FC007D08FA023B
:101330007E08FB3B7F08FC3B7A08FD3F7B08FE3FB5
:101340007C08FF3F7A3FFD007B3FFE007C3FFF00B3
:10135000FF1FC2297A3FFD007B3FFE007C3FFF005C
:101360000030FA000030FB008030FC007D08FA02FB
:101370007E08FB3B7F08FC3B7A08FA3F7B08FB3F7B
:101380007C08FC3F0030FD000030FE008030FF0094
:101390007D3F7D06FD3F7E3F7E06FE3F7F3F7F0611
:1013A000FF3F0030FD000030FE008030FF007A3F3C
:1013B0007D06FA3F7B3F7E06FB3F7C3F7F06FC3F7E
:1013C0007F3FF4007C3F7402031DF0297E3FF40050
:1013D0007B3F7402031DF0297D3FF4007A3F7402C5
:1013E000031C03107A310800003401340234033442
:1013F0000434053406340734083409340A340B3411
:101400000C340D340E340F341034113412341334C0
:101410001434153416341734183419341A341B3470
:101420001C341D341E341F34203421342234233420
:101430002434253426342734283429342A342B34D0
:101440002C342D342E342F34303431343234333480
:101450003434353436343734383439343A343B3430
:101460003C343D343E343F344034413442344334E0
:101470004434453446344734483449344A344B3490
:101480004C344D344E344F34503451345234533440
:101490005434553456345734583459345A345B34F0
:1014A0005C345D345E345F346034613462346334A0
:1014B0006434653466346734683469346A346B3450
:1014C0006C346D346E346F34703471347234733400
:1014D0007434753476347734783479347A347B34B0
:1014E0007C347D347E347F347C3F03197F2A7F3FF8
:1014F000F4007E3FF4047D3FF404031D8F2AF401C1
:10150000F501F601102B7C3F013EFC3F7F3F893601
:10151000FF3F7E3F890CFE3F7D3F890CFD3F7D3FB5
:10152000FD007E3FFE007F3FFF00FE307F05031978
:10153000B32A832A7C3F013EFC3F0608840007084B
:1015400085003D310130800701310030803D01319F
:101550000030803D7F3F8936FF3F7E3F890CFE3F54
:101560007D3F890CFD3F7D3FFD007E3FFE007F3FBC
:10157000FF00FF307F050319D32A9A2A7C3FFF0022
:1015800002307F02031CD62A7C3FF4000130740233
:10159000FC3F06088400070885003D318035013195
:1015A000800D0131800D7E3F891FBE2A7C3F0918C6
:1015B000E82AFF30FD007F30FE00FF30FF007D3F56
:1015C0007D05FD3F7E3F7E05FE3F7F3F7F05FF3F60
:1015D0007C3F8936FC3F7C3FFF00FE01FD017D3FE3
:1015E0007D04FD3F7E3F7E04FE3F7F3F7F04FF3F43
:1015F0007B3F03190A2B0030FD000030FE008030D5
:10160000FF007D3F7D04FD3F7E3F7E04FE3F7F3F28
:101610007F04FF3F7D3FF4007E3FF5007F3FF600F3
:101620007B3108004631743FFD00753FFE00763F78
:10163000FF0003107E0D7F0DFE3F890803192D2B3F
:10164000773FFD00783FFE00793FFF0003107E0DDD
:101650007F0DFD3F8908031D312BF401F501F601D3
:10166000B62B0030FA3FFB3FFC3F7D3FFF00893047
:10167000FF077E3FF4007F087402FE3F763FFD3F88
:10168000F93006078400FF30073D85007D3FF400F8
:1016900000087406FD3F7D3F8039FD3F753F891787
:1016A000F53F0030F63F783F8917F83F0030F93FAB
:1016B0001830FF3F06088400070885003A3180355E
:1016C0000131800D0131800D763FF400793F7402C5
:1016D000031D742B753FF400783F7402031D742BB7
:1016E000743FF400773F7402031C992B773FFD0091
:1016F000783FFE00793FFF00060884000708850058
:1017000034317D08800201317E08803B01317F0841
:10171000803B3E310130FD000030FE000030FF0014
:101720007A3F7D04FA3F7B3F7E04FB3F7C3F7F0492
:10173000FC3F0608840007088500343180350131FC
:10174000800D0131800D7F3FF40001307402FF3FB6
:10175000031D5A2B7D3F1E007D3F1E00783F1E005B
:10176000783F1E00783F1E008A31742274310800D1
:101770004631773FFD00783FFE00793FFF000310C0
:101780007E0D7F0DFF3F89080319D32B743FFD00A9
:10179000753FFE00763FFF0003107E0D7F0DFD3F7D
:1017A0008908031DD72BF401F501F601612C7D3F5B
:1017B000FF007B30FF077F3F7F07FF3F793FFD3F03
:1017C000F63006078400FF30073D85007D3FF400BA
:1017D00000087406FD3F7D3F8039FD3F783F891743
:1017E000F83F753F8917F53F0030F63F0030FA3F6C
:1017F000FB3FFC3F0730FE3F773F091C0E2C7A3F32
:10180000F400743F7407FA3F7B3FF400753F743D6A
:10181000FB3F7C3FF400763F743DFC3F793F8936C7
:10182000F93F783F890CF83F773F890CF73F06086E
:10183000840007088500343180350131800D013185
:10184000800D7E3FF40001307402FE3F031DFC2B2F
:101850000930FE3F773F091C3C2C7A3FF400743F6F
:101860007407FA3F7B3FF400753F743DFB3F7C3FBC
:10187000F400763F743DFC3F793F8936F93F783F6D
:10188000890CF83F773F890CF73F7C3F8936FC3F56
:101890007B3F890CFB3F7A3F890CFA3F7E3FF40087
:1018A00001307402FE3F031D2A2C7D3F1E007E3F47
:1018B0001E00783F1E00783F1E00783F1E008A31D0
:1018C0007422743108004531FB300607FE00FF30FA
:1018D000073DFF007E08FE3F7F08FF3F20006908AC
:1018E000023EFE0000306A3DFF007E081E007F08B9
:1018F0001E00943146248C31FD00FE01FF017E3F25
:1019000084007F3F85007D08803F7E08813F7F08FF
:10191000823F7E3F84007F3F8500003FFD00013F06
:10192000FE00023FFF007E08FF007D08FE00FD0173
:101930007E3F84007F3F85007D08803F7E08813F99
:101940007F08823F7E3F84007F3F8500003FFD008F
:10195000013FFE00023FFF0020006908013EFA003F
:1019600000306A3DFB007A081E007B081E0094319F
:1019700046248C31FA00FB01FC017A08FD047B0847
:10198000FE047C08FF047E3F84007F3F85007D08C5
:10199000803F7E08813F7F08823F7E3F84007F3FFB
:1019A0008500003FFD00013FFE00023FFF007E0872
:1019B000FF007D08FE00FD017E3F84007F3F850023
:1019C0007D08803F7E08813F7F08823F7E3F840004
:1019D0007F3F8500003FFD00013FFE00023FFF000A
:1019E000200069081E006A081E00943146248C31CC
:1019F000FA00FB01FC017A08FD047B08FE047C0868
:101A0000FF047E3F84007F3F85007D08803F7E0885
:101A1000813F7F08823F03302000E9070318EA0A6C
:101A20007B3F1E007B3F1E007B3F1E0000301E00E0
:101A300080301E003F301E008B3112237B3FF400AC
:101A40007C3FF5007D3FF6007B3108004C310130D2
:101A5000FF3F3730FD000630FE003C30FF007D08C0
:101A6000FA3F7E08FB3F7F08FC3F3830FD00063020
:101A7000FE003430FF007D08F73F7E08F83F7F0806
:101A8000F93F1230FD000330FE003C30FF007D08BE
:101A9000F43F7E08F53F7F08F63F6C30FE002430AF
:101AA000FF007E08FD3F7F08FE3F02302000450614
:101AB0000319EF2D43080319602D9331AA238D31AB
:101AC00041080319552D3308023EFE000030343D15
:101AD000FF007E081E007F081E0095310B258D310A
:101AE00074081E0075081E0076081E00743F1E0054
:101AF000743F1E00743F1E008B31B8238D31740873
:101B00001E0075081E0076081E00200035081E0005
:101B100036081E0095310B258D3174081E0075089E
:101B20001E0076081E00743F1E00743F1E00743FA6
:101B30001E008B31B8238D3174081E0075081E00FD
:101B400076081E008531B7258D317D3F84007E3FAC
:101B500085007408803F7508813F7608823F7F3F8B
:101B6000013EFF3F743F1E00743F1E00743F1E0085
:101B70007A3F84007B3F8500003F1E00013F1E002E
:101B8000023F1E00893182218D31031CE32D20008C
:101B9000C401C40A00000000200090129631CA2639
:101BA0008D319331F9238D31000000007F3FFF001C
:101BB000FF30FF077F087F077F072000B700C301C2
:101BC000C1014408F02D2000C1017D3F033EFD3FCF
:101BD000F4017E3F743DFE3FB501B601552D013045
:101BE000743108004F313330FD000330FE004130C6
:101BF000FF007D08FA3F7E08FB3F7F08FC3F003076
:101C0000F73FF83FF93F7A3F1E007A3F1E007A3FC8
:101C10001E00CD301E004C301E0040301E008B31A7
:101C200012238D317408FA3F7508FB3F7608FC3F9C
:101C30008D3126258D31003A0319ED2EC4016C300B
:101C4000FE002430FF007E08FD3F7F08FE3F00308D
:101C5000FF3F8C3163248D317408F43F7508F53FE4
:101C60007608F63F7D3F84007E3F8500003F1E00E2
:101C7000013F1E00023F1E00713F1E00713F1E000B
:101C8000713F1E00963119268D3174081E007508AB
:101C90001E0076081E007A3F84007B3F8500003FCF
:101CA0001E00013F1E00023F1E006E3F1E006E3FE1
:101CB0001E006E3F1E008531B7258D3174081E0051
:101CC00075081E0076081E008B3112238D317408B2
:101CD0001E0075081E0076081E0000301E00203011
:101CE0001E0041301E008B31B8238D317408F13F46
:101CF0007508F23F7608F33F00301E0000301E00EA
:101D000000301E006E3F1E006E3F1E006E3F1E0024
:101D1000893182218D310318A22E713F1E00713F3F
:101D20001E00713F1E0000301E0080301E00BF30BC
:101D30001E008B31B8238D317408F13F7508F23FD6
:101D40007608F33F713F1E00713F1E00713F1E0079
:101D5000743F1E00743F1E00743F1E0089318221B3
:101D60008D310318B92E713FF73F723FF83F733F33
:101D7000F93F713F1E00713F1E00713F1E00003091
:101D80001E0040301E0040301E00893182218D31FE
:101D9000031CCC2E0000D52E03302000E90070304B
:101DA000EA000930C5000030ED2E7D3F033EFD3FC7
:101DB000F4017E3F743DFE3F7F3F013EFF3F7F3F8A
:101DC000FF0013307F02031C292E03302000E9009E
:101DD0007030EA00C501C50A0130713108002000E9
:101DE00091112400951FDB2F95132000C0013D08A1
:101DF000023E84008501003FFE00013FFF007E0897
:101E000084007F0885008001800ABD010800A918B0
:101E100008002808BD002808840085010008BF00CC
:101E2000280884008501013FBE000430A807280867
:101E3000563A031D1D2F5230A800291028082706E6
:101E40000319A9142400161402302000C000080051
:101E5000932F2400161F322F2000AB0A0430953137
:101E60006D2508007208FF007108FE00FF36FE0CA9
:101E70007E089100711C402F0B302000C00008002C
:101E800003302000C00008002400161F4D2F200042
:101E9000AB0A043095316D250800961406307205A2
:101EA000FF00F0307F04F1000030F20071142000D8
:101EB000BB01BB0A242F3B030319722F3E08840089
:101EC0008501003FF100013FF2003E08033E84001F
:101ED0008501003FAF00013FB0003E08840085014E
:101EE000023FBC00710824009100711C402F053096
:101EF0002000C00008002400161F862F2000AB0A17
:101F000024001613053095316D2508002000BC0310
:101F10003C0A031D962F0530BE07BF0B932F0030E0
:101F200095316D25080024009614242F2F08840075
:101F3000300885000008240091002000AF0A031932
:101F4000B00A08002400161FAD2F2000AB0A043091
:101F500095316D25240016130800961508302000D1
:101F6000C00008000830C0002400961508002F08A3
:101F70008400300885002400110880002000AF0A8A
:101F80000319B00ABC030319CB2F240096120630A4
:101F90002000C000CF2F2400961694311424240072
:101FA00016160800003095316D250800AB0A063082
:101FB00095316D25080020004008003A0319072FCD
:101FC000013A0319282F033A03195B2F013A031929
:101FD0007B2F073A0319D22F013A0319A22F033A94
:101FE0000319B22F013A0319D22F0F3A0319B72F51
:101FF000023A0319292F013A0319442FD62F08005A
:10273A00080008000800553420001F110800200076
:10274A001B140800200095010800200097170800B4
:10275A0016302100970008002700131E0800953143
:10276A002225080020009110000020001F150800F3
:10277A000334703402347034013401347E3F200053
:10278A00D8007F3FD9007E3108007E3F2000DC0060
:10279A007F3FDD007E3108007E3F2000D6007F3F6C
:1027AA00D7007E31080020001B087F3F9A007E3F39
:1027BA0099007E31080020005E081E005F081E0096
:1027CA009331D823080032009101920193019401B8
:1027DA0095019601080020001B10000000009331AB
:1027EA00E023B101B20108002000971300000000A5
:1027FA009331A723B501B6010800013021009D00DD
:10280A00E0309E009F019B019C010800603032006D
:10281A0099009B019D0107309F009E010800053029
:10282A002000BE07BF0B1C2C0430C0000800C001EA
:10283A00C00A08006400800101310130F40200304E
:10284A00F53B7508740403190034202CF4001200B7
:10285A001E000130F4020030F53B750874040319B8
:10286A0000342C2CB8301E000B301E0096316A261C
:10287A0094310000B8301E000B301E0096316A26D3
:10288A0008007E3F310091007F3F92001517151412
:10289A000000000000000000310013087E3108002B
:1028AA00FF3020009E009D019110210091109F3061
:1028BA001E0013301E009331D12306309F000800FA
:1028CA00700803196A2CF0016F2C7008031D6F2C15
:1028DA00F001F00A70088831BA2009302000C500DA
:1028EA000800C030240094002630950080309600FD
:1028FA0008309700FE3093001030920020009111AA
:10290A00210091150800833025009300940192015B
:10291A00910100301E0000301E0085310225FC3076
:10292A0025009F052000141021001414080003300C
:10293A002000C2008E140000000020000E155C0862
:10294A005D04031908005D08FF005C08FE007F08AB
:10295A008A007E080A0094310800200011105E08DF
:10296A001E005F081E009331D8239431B10A03195F
:10297A00B20A01303202773003193102031C08000F
:10298A0094319C240800503020009800960195014B
:10299A001608DB00DA011508DA04901221009016F5
:1029AA009D301E0013301E009331C32390309700D0
:1029BA000800203020009C009A0199011A08DF00C3
:1029CA00DE011908DE041110210011149E301E00C8
:1029DA0013301E009331CA2301309B0008002000E7
:1029EA009012B50A0319B60A5B0896005A089500B0
:1029FA0058085904031908005908FF005808FE002E
:102A0A007F088A007E080A009531080000301E00FF
:102A1A008E301E007C3FFE007D3FFF007E08FD00D9
:102A2A007F08FE00FF017D081E007E081E007F0849
:102A3A001E008A3174227E31080014301E000030D4
:102A4A001E0089311B21953120000C1E302DC70133
:102A5A00C601C60A352D0C1A352DC601C701C70A8B
:102A6A000230C50027001312080052302000A800C7
:102A7A005230A700A9142910AB01C03024009400D9
:102A8A0028309500083097000330920020009111F9
:102A9A00111121009115111508009331E823953180
:102AAA0097313327953194310B2495319331AD23E6
:102ABA009531943102249531943188249531943199
:102ACA00C82495319431DE24953194315524080077
:102ADA004131FF3F2400161520003D08023E8400C4
:102AEA008501120000040319882D3D08023E840066
:102AFA008501003FFE00013FFF007E0884007F0839
:102B0A0085007F3F8000C0017F3108008B137F3F23
:102B1A00310092007E3F91007D3F9300151700001F
:102B2A003100151555309600AA30960095149F2D40
:102B3A0000000000310095189D2D000000003100B2
:102B4A001511000000008B177D31080020001410B9
:102B5A00033045060319B32D0430C5004408031990
:102B6A00B92DB501B60108004308031DC12DC301E3
:102B7A00C30A0530C20008009331A72325001208B2
:102B8A002000B400250011082000B300C101C10AC9
:102B9A0008004131FF3F21001D1000007F3FFF0068
:102BAA00FF0DFF0D21001D087F0603397F069D00DA
:102BBA00000021001D140D30890BE12D00002100B9
:102BCA009D14000021009D1CED2D00000000E72D42
:102BDA001C08F5001B08F4007F3108004131003061
:102BEA001E0070301E00943146249531FF3F7F3F0E
:102BFA00AA3A031D092EFF301E0000301E00703055
:102C0A001E0095318B2595319331F92395319331F6
:102C1A00F0239531F00170088831BA20093020007C
:102C2A00C500C2017F3108007F3FF4007E3FF404F3
:102C3A007D3FF4040319302E0030FD000030FE0001
:102C4A008030FF007D3F7D06FD3F7E3F7E06FE3FD2
:102C5A007F3F7F06FF3F7D3F1E007D3F1E007D3F79
:102C6A001E00773F1E00773F1E00773F1E0085310A
:102C7A00B7257A31080041310030FF3F7E3F891F76
:102C8A00532E7E3FF400F4097D3F8909890A03190E
:102C9A00F40AFD3F7408FE3F0130FF3F7F3F1E00EC
:102CAA008E301E007B3FFE007C3FFF007E08FD0049
:102CBA007F08FE00FF017D081E007E081E007F08B7
:102CCA001E008A3174227D31080044310030FC3FF5
:102CDA00FD3F0030FE3FFF3F7B3FF4007F3F740221
:102CEA00031D7B2E7A3FF4007E3F7402031C862E5E
:102CFA0000007E3F013EFE3FF4017F3F743DFF3FEF
:102D0A00712E7C3F013EFC3FF4017D3F743DFD3F47
:102D1A007C3FFE007D3FFF0003307F02E93003194C
:102D2A007E02031C6E2E7A31080044310030FC3FCB
:102D3A00FD3F0030FE3FFF3F7B3FF4007F3F7402C0
:102D4A00031DAB2E7A3FF4007E3F7402031CB62E9D
:102D5A0000007E3F013EFE3FF4017F3F743DFF3F8E
:102D6A00A12E7C3F013EFC3FF4017D3F743DFD3FB7
:102D7A007C3FFE007D3FFF0000307F026530031973
:102D8A007E02031C9E2E7A31080043312000B501D1
:102D9A00B6010030FD3FFE3FFF3F901EE02E00309F
:102DAA00FD3FFE3FFF3F003036023C30031935023B
:102DBA000318FA2E901206088400070885003D3190
:102DCA000130800701310030803D01310030803D03
:102DDA003E31003FFF3A031DF82E013FFF3A031D23
:102DEA00F82E023F023A031DD22E7D31080095319A
:102DFA00522596319531F32596318B170B17232FD0
:102E0A00943165249631232F973170279631232FD9
:102E1A009731B8279631200044080319232FC4019B
:102E2A0070088831BA20963109302000C500232F56
:102E3A008D31F2259631003A031DC4014508013A45
:102E4A000319052F033A0319092F013A03190D2F04
:102E5A00073A03191D2F232F8531762D22008C0165
:102E6A008D0101308E00373021008C00F0308D004A
:102E7A00E1308E0023008E01E0308D0021308C007D
:102E8A0024008D018C018E0125008C018D018E019B
:102E9A00373026008C00F0308D00FF308E003F3036
:102EAA0027008C00F0308D00FF308E0013121216AE
:102EBA00111619303D00A00002303C00A000183065
:102ECA003D00920010303C00A100210010160C3089
:102EDA003C0094000800200047080319772F93311B
:102EEA00A423080046080319862F03304206031953
:102EFA00862F9331F0231110C701C601C501C50AF7
:102F0A00080046080319A22F03304206031DA22F08
:102F1A00013032027730031931020318A22F93319C
:102F2A00F02397311110C701C601C2017008883118
:102F3A00BA2009302000C500080046080319080015
:102F4A0003304206031D08000130320277300319AC
:102F5A003102031C08009331F0231110C701C60186
:102F6A000330C500080043318D3126259731003AD8
:102F7A000319FE2F6C30FE002430FF007E08FD3F4F
:102F8A007F08FE3FAA301E0001301E0070301E006E
:102F9A0095318B259731200037081E006B081E00DB
:102FAA006C081E0095318B2597310030FF3F7F3F1B
:102FBA0020003702031CFD2F7D3F84007E3F8500E1
:102FCA0000081E0069081E006A081E0095318B253C
:102FDA0097312000E90A0319EA0A7D3F013EFD3FC5
:102FEA00F4017E3F743DFE3F7F3F013EFF3FDC2FF1
:062FFA0000007D3108001B
:00000001FF
