:020000040000FA
:100A00008531762D7E310800853174082000DF00A5
:100A10007808E0007908E1007A08E2007B08E3004A
:100A20007C08E4007D08E5007E08E6007F08E7001A
:100A30001C308600223087002100901E262D2000C9
:100A4000901E262D953153258531622D2100101ED3
:100A5000302D2000101E302D943116248531622D4A
:100A60000B1F622D2100141C3C2D2000141C3C2D5A
:100A7000883101208531622D2100911D502D2000EB
:100A8000911D502D6B08031D492D8831242085317F
:100A9000622D6B080319622D8E31EF268531622D90
:100AA0002100911C5A2D2000911C5A2D9531CC25E6
:100AB0008531622D2100111C622D2000111C622D38
:100AC0009531112520006708FF006608FE006508C3
:100AD000FD006408FC006308FB006208FA0061087E
:100AE000F9006008F8005F08F40009008531782DEE
:100AF000FC30840089308500EC308600233087008C
:100B00000030F500803094318A248531883100200E
:100B10008531F300123084009430850068308600FF
:100B2000003087000030F500043094318A2485318C
:100B30006C308400243085008430F4000330F500EC
:100B400094317E248531F001F101F20120308400DE
:100B5000003085003530F4000030F50094317E24FB
:100B600020004C308600203087009631982E43318B
:100B70007A3FFD007B3FFE007C3FFF0003107E0DAF
:100B80007F0DFD3F773FFD00783FFE00793FFF007E
:100B900003107E0D7F0DFE3F7D3F0319DF2D7D3F4E
:100BA000FF007E3F7F020318E52D7D3FFF007E3F63
:100BB000FE007F08FE0219307E02031CE52D773F00
:100BC000F400783FF500793FFD2D7E3F0319F82DA5
:100BD0007E3FFF007D3F7F020318FF2D7E3FFF0019
:100BE0007D3FFE007F08FE0219307E02031CFF2DB0
:100BF0007A3FF4007B3FF5007C3FF600112F063072
:100C0000FF3F7A3FFD007B3FFE007C3FFF00FF1F60
:100C10000C2E7F3F8038FF3F773FFD00783FFE007E
:100C2000793FFF00FF1F172E7F3F4038FF3F7B3F7C
:100C30008917FB3F0030FC3F783F8917F83F0030B1
:100C4000F93F7D3FFF007E3F7F020318592E0608C3
:100C5000840007088500373180350131800D01316E
:100C6000800D7E3FF40001307402FE3F7D3FFF00A7
:100C70007E3F7F060319522E7F3FF400013074023D
:100C8000FF3F7F3F07390319522E272E7C3F8936BD
:100C9000FC3F7B3F890CFB3F7A3F890CFA3F7D3F4D
:100CA000013EFD3F7E3FFF007D3F7F060319902EF2
:100CB000462E7E3FFF007D3F7F020318902E0608E0
:100CC0008400070885003A3180350131800D0131FB
:100CD000800D7D3FF40001307402FD3F7D3FFF0039
:100CE0007E3F7F0603198A2E7F3FF4000130740295
:100CF000FF3F7F3F073903198A2E5F2E793F8936E0
:100D0000F93F783F890CF83F773F890CF73F7E3FEA
:100D1000013EFE3F7E3FFF007D3F7F06031D7E2E8E
:100D20007F3F891FAF2EFF30FD00FF30FE00FF30F8
:100D3000FF007A3F7D06FA3F7B3F7E06FB3F7C3F0C
:100D40007F06FC3F06088400070885003A31013021
:100D5000800701310030803D01310030803D7F3F10
:100D6000091FCE2EFF30FD00FF30FE00FF30FF00D8
:100D7000773F7D06F73F783F7E06F83F793F7F0655
:100D8000F93F0608840007088500373101308007E5
:100D900001310030803D01310030803D0030FF3FA7
:100DA000773FF4007A3F7407F73F783FF4007B3FCA
:100DB000743DF83F793FF4007C3F743DF93F773F45
:100DC000FD00783FFE00793FFF00FF1F052FFF3039
:100DD000FD00FF30FE00FF30FF00773F7D06F73F4C
:100DE000783F7E06F83F793F7F06F93F060884008A
:100DF0000708850037310130800701310030803D20
:100E000001310030803D0130FF3F7F3F1E007C3FBD
:100E10001E00753F1E00753F1E00753F1E008A3183
:100E20007C22773108004F313330FD005330FE0013
:100E30003B30FF007D08F73F7E08F83F7F08F93F11
:100E40004030FD001C30FE004630FF007D08F13FC1
:100E50007E08F23F7F08F33F4030FD001C30FE006B
:100E60004630FF007D08F43F7E08F53F7F08F63FDF
:100E7000713F1E00713F1E00713F1E0000301E00BA
:100E8000B0301E0040301E008B31C0238731740803
:100E90001E0075081E0076081E006E3F1E006E3F85
:100EA0001E006E3F1E006E3F1E006E3F1E006E3F16
:100EB0001E008531B725873174081E0075081E0095
:100EC00076081E008B311A2387317408FD3F7508A0
:100ED000FE3F7608FF3F713F1E00713F1E00713FCD
:100EE0001E00CD301E009C301E0040301E008B3195
:100EF000C023873174081E0075081E0076081E0086
:100F00006E3F1E006E3F1E006E3F1E006E3F1E00B5
:100F10006E3F1E006E3F1E008531B7258731740875
:100F20001E0075081E0076081E008B311A238731BB
:100F30007408FA3F7508FB3F7608FC3F0F30963186
:100F40002626873174081E0075081E0095316A2513
:100F5000873174081E0075081E0076081E00743F55
:100F60001E00743F1E00743F1E008B31C02387316A
:100F700074082000AC007508AD007608AE007D3F17
:100F80001E007D3F1E007D3F1E002C081E002D0808
:100F90001E002E081E00743F1E00743F1E00743F8A
:100FA0001E0089318A2187310318D82F0130D92FAB
:100FB0000030FE00FF017E081E007F081E009631F3
:100FC000BF26873174081E0075081E0076081E00B3
:100FD00089318A2187310318EF2F0130F02F00303B
:100FE000713108004131FF3FF62FF52F7F3F013A65
:100FF0000319F52F033A0319FE2FFE2F7F31080046
:101000005534200014100330440603190928043015
:10101000C400430803190F28B501B60108004208AF
:10102000031D1728C201C20A0530C100080094310F
:101030000824250012082000B40025001108200013
:10104000B300C001C00A0800200091113908203EF9
:1010500084008501240011088000141D5028941A72
:10106000161F3728033088316E2088314E28200023
:101070002003031D442800301E0070301E009431F0
:10108000A524883124009100AA3020002006031DE9
:101090004C285530240091002000B90100006B2835
:1010A000941E4E28941E6B28023020002006031D3B
:1010B0006828B90124001516943196248831AA3085
:1010C0001E0000301E0070301E0096310626010002
:1010D00000002000B90A2400151608004131FF3F26
:1010E000AF282000B701B70AC02802302000B7009F
:1010F000C0287308B8009B283808EC3EFE00FF01AA
:101100002330FF3D7E0884007F088500730880003F
:10111000B80A80303802031C9B28B8019B282000A5
:101120003708003A03197C28013A03197928033A51
:1011300003199B287C28B701C02820003808EC3E02
:10114000840085012330853D0008240091002000A3
:10115000B80A80303802031CC028B801C0287F3F7D
:10116000003A03197128013A03199D28033A03191B
:101170008F28013A0319C028073A03197528C02897
:101180007F3108004131FF3F7F3F0319E628873157
:1011900013278831003A031DD12801308731F22707
:1011A0008831A13021008E000000000020008E1048
:1011B0000000000020000E15000000002000EB01E0
:1011C0009431D524883120000E1621297F3F031D3C
:1011D000212920000E170000E13021008E0064302C
:1011E0001E0000301E00973119278831FB286A083D
:1011F000031DFE28000020000E1BF7280000200021
:101200008E140000000020000E11000000002000DD
:101210006A08031D1A2930301E0075301E009731F0
:1012200019278831000030301E0075301E009731BC
:101230001927883120000E12EA01EB01EB0A9531E3
:1012400099257F31080048310030FC3FFD3FFE3FCB
:10125000FF3F763FFE00773FFF007E08FC007F08DF
:10126000FD000030FD1BFF30FE00FF007C3FF8005A
:101270007D3FF9007E3FFA007F3FFB007F087B0245
:10128000031D4C297E087A02031D4C297D08790232
:10129000031D4C297C087802031888290030F83F88
:1012A000F93FFA3FFB3F0000000000000000060885
:1012B0008400070885003831013080070131003093
:1012C000803D01310030803D01310030803D7B3F69
:1012D000031D77297A3F031D7729783FF4002030DA
:1012E0007402793FF4000330743B031C5329060851
:1012F0008400070885003C3101308007013100304F
:10130000803D01310030803D01310030803D292990
:10131000763108007D3FFD007E3FFE007F3FFF00ED
:10132000FF1FAA297D3FFD007E3FFE007F3FFF009B
:101330000030FA000030FB008030FC007D08FA022B
:101340007E08FB3B7F08FC3B7A08FD3F7B08FE3FA5
:101350007C08FF3F7A3FFD007B3FFE007C3FFF00A3
:10136000FF1FCA297A3FFD007B3FFE007C3FFF0044
:101370000030FA000030FB008030FC007D08FA02EB
:101380007E08FB3B7F08FC3B7A08FA3F7B08FB3F6B
:101390007C08FC3F0030FD000030FE008030FF0084
:1013A0007D3F7D06FD3F7E3F7E06FE3F7F3F7F0601
:1013B000FF3F0030FD000030FE008030FF007A3F2C
:1013C0007D06FA3F7B3F7E06FB3F7C3F7F06FC3F6E
:1013D0007F3FF4007C3F7402031DF8297E3FF40038
:1013E0007B3F7402031DF8297D3FF4007A3F7402AD
:1013F000031C03107A310800003401340234033432
:101400000434053406340734083409340A340B3400
:101410000C340D340E340F341034113412341334B0
:101420001434153416341734183419341A341B3460
:101430001C341D341E341F34203421342234233410
:101440002434253426342734283429342A342B34C0
:101450002C342D342E342F34303431343234333470
:101460003434353436343734383439343A343B3420
:101470003C343D343E343F344034413442344334D0
:101480004434453446344734483449344A344B3480
:101490004C344D344E344F34503451345234533430
:1014A0005434553456345734583459345A345B34E0
:1014B0005C345D345E345F34603461346234633490
:1014C0006434653466346734683469346A346B3440
:1014D0006C346D346E346F347034713472347334F0
:1014E0007434753476347734783479347A347B34A0
:1014F0007C347D347E347F347C3F0319872A7F3FE0
:10150000F4007E3FF4047D3FF404031D972AF401A8
:10151000F501F601182B7C3F013EFC3F7F3F8936E9
:10152000FF3F7E3F890CFE3F7D3F890CFD3F7D3FA5
:10153000FD007E3FFE007F3FFF00FE307F05031968
:10154000BB2A8B2A7C3F013EFC3F0608840007082B
:1015500085003D310130800701310030803D01318F
:101560000030803D7F3F8936FF3F7E3F890CFE3F44
:101570007D3F890CFD3F7D3FFD007E3FFE007F3FAC
:10158000FF00FF307F050319DB2AA22A7C3FFF0002
:1015900002307F02031CDE2A7C3FF400013074021B
:1015A000FC3F06088400070885003D318035013185
:1015B000800D0131800D7E3F891FC62A7C3F0918AE
:1015C000F02AFF30FD007F30FE00FF30FF007D3F3E
:1015D0007D05FD3F7E3F7E05FE3F7F3F7F05FF3F50
:1015E0007C3F8936FC3F7C3FFF00FE01FD017D3FD3
:1015F0007D04FD3F7E3F7E04FE3F7F3F7F04FF3F33
:101600007B3F0319122B0030FD000030FE008030BC
:10161000FF007D3F7D04FD3F7E3F7E04FE3F7F3F18
:101620007F04FF3F7D3FF4007E3FF5007F3FF600E3
:101630007B3108004631743FFD00753FFE00763F68
:10164000FF0003107E0D7F0DFE3F89080319352B27
:10165000773FFD00783FFE00793FFF0003107E0DCD
:101660007F0DFD3F8908031D392BF401F501F601BB
:10167000BE2B0030FA3FFB3FFC3F7D3FFF0089302F
:10168000FF077E3FF4007F087402FE3F763FFD3F78
:10169000F93006078400FF30073D85007D3FF400E8
:1016A00000087406FD3F7D3F8039FD3F753F891777
:1016B000F53F0030F63F783F8917F83F0030F93F9B
:1016C0001830FF3F06088400070885003A3180354E
:1016D0000131800D0131800D763FF400793F7402B5
:1016E000031D7C2B753FF400783F7402031D7C2B97
:1016F000743FF400773F7402031CA12B773FFD0079
:10170000783FFE00793FFF00060884000708850047
:1017100034317D08800201317E08803B01317F0831
:10172000803B3E310130FD000030FE000030FF0004
:101730007A3F7D04FA3F7B3F7E04FB3F7C3F7F0482
:10174000FC3F0608840007088500343180350131EC
:10175000800D0131800D7F3FF40001307402FF3FA6
:10176000031D622B7D3F1E007D3F1E00783F1E0043
:10177000783F1E00783F1E008A317C2274310800B9
:101780004631773FFD00783FFE00793FFF000310B0
:101790007E0D7F0DFF3F89080319DB2B743FFD0091
:1017A000753FFE00763FFF0003107E0D7F0DFD3F6D
:1017B0008908031DDF2BF401F501F601692C7D3F3B
:1017C000FF007B30FF077F3F7F07FF3F793FFD3FF3
:1017D000F63006078400FF30073D85007D3FF400AA
:1017E00000087406FD3F7D3F8039FD3F783F891733
:1017F000F83F753F8917F53F0030F63F0030FA3F5C
:10180000FB3FFC3F0730FE3F773F091C162C7A3F19
:10181000F400743F7407FA3F7B3FF400753F743D5A
:10182000FB3F7C3FF400763F743DFC3F793F8936B7
:10183000F93F783F890CF83F773F890CF73F06085E
:10184000840007088500343180350131800D013175
:10185000800D7E3FF40001307402FE3F031D042C16
:101860000930FE3F773F091C442C7A3FF400743F57
:101870007407FA3F7B3FF400753F743DFB3F7C3FAC
:10188000F400763F743DFC3F793F8936F93F783F5D
:10189000890CF83F773F890CF73F7C3F8936FC3F46
:1018A0007B3F890CFB3F7A3F890CFA3F7E3FF40077
:1018B00001307402FE3F031D322C7D3F1E007E3F2F
:1018C0001E00783F1E00783F1E00783F1E008A31C0
:1018D0007C22743108004531FB300607FE00FF30E2
:1018E000073DFF007E08FE3F7F08FF3F200068089D
:1018F000023EFE000030693DFF007E081E007F08AA
:101900001E009431A5248C31FD00FE01FF017E3FB5
:1019100084007F3F85007D08803F7E08813F7F08EF
:10192000823F7E3F84007F3F8500003FFD00013FF6
:10193000FE00023FFF007E08FF007D08FE00FD0163
:101940007E3F84007F3F85007D08803F7E08813F89
:101950007F08823F7E3F84007F3F8500003FFD007F
:10196000013FFE00023FFF0020006808013EFA0030
:101970000030693DFB007A081E007B081E00943190
:10198000A5248C31FA00FB01FC017A08FD047B08D8
:10199000FE047C08FF047E3F84007F3F85007D08B5
:1019A000803F7E08813F7F08823F7E3F84007F3FEB
:1019B0008500003FFD00013FFE00023FFF007E0862
:1019C000FF007D08FE00FD017E3F84007F3F850013
:1019D0007D08803F7E08813F7F08823F7E3F8400F4
:1019E0007F3F8500003FFD00013FFE00023FFF00FA
:1019F000200068081E0069081E009431A5248C315F
:101A0000FA00FB01FC017A08FD047B08FE047C0857
:101A1000FF047E3F84007F3F85007D08803F7E0875
:101A2000813F7F08823F03302000E8070318E90A5E
:101A30007B3F1E007B3F1E007B3F1E0000301E00D0
:101A400080301E003F301E008B311A237B3FF40094
:101A50007C3FF5007D3FF6007B3108004C310130C2
:101A6000FF3F3730FD000630FE003C30FF007D08B0
:101A7000FA3F7E08FB3F7F08FC3F3830FD00063010
:101A8000FE003430FF007D08F73F7E08F83F7F08F6
:101A9000F93F1230FD000330FE003C30FF007D08AE
:101AA000F43F7E08F53F7F08F63F6C30FE0024309F
:101AB000FF007E08FD3F7F08FE3F02302000440605
:101AC0000319EF2D42080319682D94310B248D3131
:101AD000400803195D2D3308023EFE000030343DFE
:101AE000FF007E081E007F081E0095316A258D319B
:101AF00074081E0075081E0076081E00743F1E0044
:101B0000743F1E00743F1E008B31C0238D3174085A
:101B10001E0075081E0076081E00200035081E00F5
:101B200036081E0095316A258D3174081E0075082F
:101B30001E0076081E00743F1E00743F1E00743F96
:101B40001E008B31C0238D3174081E0075081E00E5
:101B500076081E008531B7258D317D3F84007E3F9C
:101B600085007408803F7508813F7608823F7F3F7B
:101B7000013EFF3F743F1E00743F1E00743F1E0075
:101B80007A3F84007B3F8500003F1E00013F1E001E
:101B9000023F1E0089318A218D31031CE32D200074
:101BA000C301C30A000000002000901297314927AA
:101BB0008D31943158248D31000000002000C20185
:101BC000C0014308F02D2000C0017D3F033EFD3FD2
:101BD000F4017E3F743DFE3FB501B6015D2D01303D
:101BE000743108004F313330FD000330FE004130C6
:101BF000FF007D08FA3F7E08FB3F7F08FC3F003076
:101C0000F73FF83FF93F7A3F1E007A3F1E007A3FC8
:101C10001E00CD301E004C301E0040301E008B31A7
:101C20001A238D317408FA3F7508FB3F7608FC3F94
:101C30008D312E258D31003A0319ED2EC3016C3004
:101C4000FE002430FF007E08FD3F7F08FE3F00308D
:101C5000FF3F8C316B248D317408F43F7508F53FDC
:101C60007608F63F7D3F84007E3F8500003F1E00E2
:101C7000013F1E00023F1E00713F1E00713F1E000B
:101C8000713F1E00963171268D3174081E00750853
:101C90001E0076081E007A3F84007B3F8500003FCF
:101CA0001E00013F1E00023F1E006E3F1E006E3FE1
:101CB0001E006E3F1E008531B7258D3174081E0051
:101CC00075081E0076081E008B311A238D317408AA
:101CD0001E0075081E0076081E0000301E00203011
:101CE0001E0041301E008B31C0238D317408F13F3E
:101CF0007508F23F7608F33F00301E0000301E00EA
:101D000000301E006E3F1E006E3F1E006E3F1E0024
:101D100089318A218D310318A22E713F1E00713F37
:101D20001E00713F1E0000301E0080301E00BF30BC
:101D30001E008B31C0238D317408F13F7508F23FCE
:101D40007608F33F713F1E00713F1E00713F1E0079
:101D5000743F1E00743F1E00743F1E0089318A21AB
:101D60008D310318B92E713FF73F723FF83F733F33
:101D7000F93F713F1E00713F1E00713F1E00003091
:101D80001E0040301E0040301E0089318A218D31F6
:101D9000031CCC2E0000D52E03302000E80070304C
:101DA000E9000930C4000030ED2E7D3F033EFD3FC9
:101DB000F4017E3F743DFE3F7F3F013EFF3F7F3F8A
:101DC000FF0013307F02031C292E03302000E8009F
:101DD0007030E900C401C40A0130713108002000EC
:101DE00091112400951FDB2F95132000BF013C08A3
:101DF000023E84008501003FFE00013FFF007E0897
:101E000084007F0885008001800ABC010800A918B1
:101E100008002808BC002808840085010008BE00CE
:101E2000280884008501013FBD000430A807280868
:101E3000553A031D1D2F5130A800291028082706E8
:101E40000319A9142400161402302000BF00080052
:101E5000932F2400161F322F2000AB0A0430953137
:101E6000E82508007208FF007108FE00FF36FE0C2E
:101E70007E089100711C402F0B302000BF0008002D
:101E800003302000BF0008002400161F4D2F200043
:101E9000AB0A04309531E825080096140630720527
:101EA000FF00F0307F04F1000030F20071142000D8
:101EB000BA01BA0A242F3A030319722F3D0884008D
:101EC0008501003FF100013FF2003D08033E840020
:101ED0008501003FAF00013FB0003D08840085014F
:101EE000023FBB00710824009100711C402F053097
:101EF0002000BF0008002400161F862F2000AB0A18
:101F00002400161305309531E82508002000BB0396
:101F10003B0A031D962F0530BD07BE0B932F0030E3
:101F20009531E825080024009614242F2F088400FA
:101F3000300885000008240091002000AF0A031932
:101F4000B00A08002400161FAD2F2000AB0A043091
:101F50009531E82524001613080096150830200056
:101F6000BF0008000830BF002400961508002F08A5
:101F70008400300885002400110880002000AF0A8A
:101F80000319B00ABB030319CB2F240096120630A5
:101F90002000BF00CF2F2400961694317324240014
:101FA0001616080000309531E8250800AB0A063007
:101FB0009531E825080020003F08003A0319072F53
:101FC000013A0319282F033A03195B2F013A031929
:101FD0007B2F073A0319D22F013A0319A22F033A94
:101FE0000319B22F013A0319D22F0F3A0319B72F51
:101FF000023A0319292F013A0319442FD62F08005A
:1027FE0008000800080020001F11080020001B140C
:10280E0008002000950108002000971708001630D8
:10281E00210097000800033470340134013427007E
:10282E00131E08009531812508002000911000002C
:10283E0020001F1508007E3F2000D7007F3FD800E4
:10284E007E3108007E3F2000DB007F3FDC007E31C2
:10285E0008007E3F2000D5007F3FD6007E31080065
:10286E0020001B087F3F9A007E3F99007E310800B2
:10287E0020005D081E005E081E00943137240800FB
:10288E003200910192019301940195019601080085
:10289E0020001B100000000094313F24B101B20152
:1028AE000800200097130000000094310824B501A1
:1028BE00B6010800013021009D00E0309E009F010E
:1028CE009B019C0108006030320099009B019D0124
:1028DE0007309F009E01080005302000BD07BE0B8B
:1028EE007B2C0430BF000800BF01BF0A0800640043
:1028FE00800101310130F4020030F53B750874049B
:10290E00031900347F2CF40012001E000130F40273
:10291E000030F53B75087404031900348B2CB83065
:10292E001E000B301E009631E92694310000B8309F
:10293E001E000B301E009631E92608007E3F310046
:10294E0091007F3F92001517151400000000000043
:10295E000000310013087E310800FF3020009E0079
:10296E009D0191102100911001301E0014301E00A7
:10297E009431302406309F00080070080319C92CCA
:10298E00F001CE2C7008031DCE2CF001F00A700859
:10299E008831C22009302000C4000800C030240055
:1029AE009400263095008030960008309700FE3057
:1029BE009300103092002000911121009115080013
:1029CE0083302500930094019201910100301E0086
:1029DE0000301E0085310225FC3025009F052000A9
:1029EE00141021001414080003302000C1008E14AE
:1029FE000000000020000E155B085C04031908009F
:102A0E005C08FF005B08FE007F088A007E080A0053
:102A1E0095310800200011105D081E005E081E0092
:102A2E00943137249531B10A0319B20A01303202BA
:102A3E00773003193102031C08009431FB2408007F
:102A4E00503020009800960195011608DA00D90141
:102A5E001508D904901221009016FF301E00133075
:102A6E001E00943122249030970008002030200060
:102A7E009C009A0199011A08DE00DD011908DD0497
:102A8E0011102100111400301E0014301E0094315C
:102A9E00292401309B00080020009012B50A03196A
:102AAE00B60A5A0896005908950057085804031993
:102ABE0008005808FF005708FE007F088A007E08AD
:102ACE000A009531080000301E008E301E007C3F3B
:102ADE00FE007D3FFF007E08FD007F08FE00FF0127
:102AEE007D081E007E081E007F081E008A317C2293
:102AFE007E31080014301E0000301E008931232163
:102B0E00953120000C1E8F2DC601C501C50A942DCE
:102B1E000C1A942DC501C601C60A0230C400270046
:102B2E001312080051302000A8005130A700A9143C
:102B3E002910AB01C03024009400283095000830D5
:102B4E009700033092002000911111112100911570
:102B5E001115080094314724953197317B27953113
:102B6E0094316A24953194310E2495319431612437
:102B7E0095319431E724953195312725953195314D
:102B8E003D2595319431B4240800200091100000A9
:102B9E00943102249531000094311C2495310000AB
:102BAE0005302000C40055085604031908005608C5
:102BBE00FF005508FE007F088A007E080A00953146
:102BCE0008004131FF3F2400161520003C08023E4C
:102BDE0084008501120000040319032E3C08023EF6
:102BEE0084008501003FFE00013FFF007E08840047
:102BFE007F0885007F3F8000BF017F3108008B1367
:102C0E007F3F310092007E3F91007D3F930015176C
:102C1E0000003100151555309600AA309600951417
:102C2E001A2E0000000031009518182E000000002A
:102C3E0031001511000000008B177D310800413165
:102C4E00FF3F21001D1000007F3FFF00FF0DFF0D15
:102C5E0021001D087F0603397F069D00000021001C
:102C6E001D140D30890B392E000021009D1400001B
:102C7E0021009D1C452E000000003F2E1C08F50073
:102C8E001B08F4007F310800413100301E00703007
:102C9E001E009431A5249631FF3F7F3FAA3A031DB3
:102CAE00612EFF301E0000301E0070301E00963167
:102CBE000626963194315824963194314F2496310C
:102CCE00F00170088831C22009302000C400C10113
:102CDE007F3108007F3FF4007E3FF4047D3FF40413
:102CEE000319882E0030FD000030FE008030FF00FA
:102CFE007D3F7D06FD3F7E3F7E06FE3F7F3F7F068A
:102D0E00FF3F7D3F1E007D3F1E007D3F1E00773F33
:102D1E001E00773F1E00773F1E008531B7257A31A2
:102D2E0008009531B125963196314B2696318B1789
:102D3E000B17AF2E9431C4249631AF2E9731B8278E
:102D4E009631AF2E8D31F2259631003A031DC30117
:102D5E004408013A0319A12E033A0319A52E013A8C
:102D6E000319AF2E073A0319A92EAF2E8531762DF2
:102D7E0041310030FF3F7E3F891FD22E7E3FF4004F
:102D8E00F4097D3F8909890A0319F40AFD3F740885
:102D9E00FE3F0130FF3F7F3F1E008E301E007B3F07
:102DAE00FE007C3FFF007E08FD007F08FE00FF0155
:102DBE007D081E007E081E007F081E008A317C22C0
:102DCE007D31080044310030FC3FFD3F0030FE3FB6
:102DDE00FF3F7B3FF4007F3F7402031DFA2E7A3FC4
:102DEE00F4007E3F7402031C052F00007E3F013E5F
:102DFE00FE3FF4017F3F743DFF3FF02E7C3F013ECE
:102E0E00FC3FF4017D3F743DFD3F7C3FFE007D3F66
:102E1E00FF0003307F02E93003197E02031CED2E02
:102E2E007A31080044310030FC3FFD3F0030FE3F58
:102E3E00FF3F7B3FF4007F3F7402031D2A2F7A3F32
:102E4E00F4007E3F7402031C352F00007E3F013ECE
:102E5E00FE3FF4017F3F743DFF3F202F7C3F013E3C
:102E6E00FC3FF4017D3F743DFD3F7C3FFE007D3F06
:102E7E00FF0000307F02653003197E02031C1D2FF8
:102E8E007A31080043312000B501B6010030FD3F14
:102E9E00FE3FFF3F901E5F2F0030FD3FFE3FFF3F86
:102EAE00003036023C30031935020318792F901288
:102EBE0006088400070885003D3101308007013186
:102ECE000030803D01310030803D3E31003FFF3A01
:102EDE00031D772F013FFF3A031D772F023F023A62
:102EEE00031D512F7D31080022008C018D01013010
:102EFE008E00373021008C00F0308D00E1308E00D6
:102F0E0023008E01E0308D0021308C0024008D01D5
:102F1E008C018E0125008C018D018E01373026002B
:102F2E008C00F0308D00FF308E003F3027008C007B
:102F3E00F0308D00FF308E0013121216111619305C
:102F4E003D00A00002303C00A00018303D00920071
:102F5E0010303C00A100210010160C303C009400F3
:102F6E000800200046080319BF2F943105240800DD
:102F7E0045080319CE2F033041060319CE2F943185
:102F8E004F241110C601C501C401C40A080045082A
:102F9E000319EA2F03304106031DEA2F01303202D6
:102FAE007730031931020318EA2F94314F249731E9
:102FBE001110C601C501C10170088831C220093047
:102FCE002000C4000800450803190800033041061C
:102FDE00031D080001303202773003193102031C41
:102FEE00080094314F241110C601C5010330C400EE
:022FFE000800C9
:00000001FF
