version:01.12
:020000040000FA
:100C00008631802E7E310800863174082000DD0098
:100C10007808DE007908DF007A08E0007B08E10050
:100C20007C08E2007D08E3007E08E4007F08E50020
:100C3000A5308600223087002100901E262E20003D
:100C4000901E262E96313C2686316C2E2100101ED9
:100C5000302E2000101E302E9431C92486316C2E87
:100C60000B1F6C2E2100111F3B2E2000111F3B2E4D
:100C70009631252686312100111D4B2E2000111D95
:100C80004B2E3D08FF003C08FE007F088A007E08CE
:100C90000A0086316C2E2100911920009119412EF5
:100CA0002100141C5A2E2000141C5A2E973115278F
:100CB00086316C2E2100911C642E2000911C642E24
:100CC00096319D2686316C2E2100111C6C2E200041
:100CD000111C6C2E9531E32520006508FF00640887
:100CE000FE006308FD006208FC006108FB0060086C
:100CF000FA005F08F9005E08F8005D08F4000900DA
:100D00008631822E94318D248631E60002308400B3
:100D100025308500EE30F4000230F5009531852550
:100D20008631F001F101F201F3012030840000303E
:100D300085003D30F4000030F50095318525200018
:100D400047308600203087008B314B2B53311030D9
:100D5000F93F7030FA3F0030F03FF13FF23F003092
:100D6000F33FF43FF53F0030ED3FEE3FEF3F7208B9
:100D70002000BF00F0300607FE00FF30073DFF00F7
:100D80007E08FB3F7F08FC3F03301E0002301E0040
:100D900070301E009531A025863197319927863114
:100DA0002000A400A501FF30A407031CA5038D317A
:100DB000B5258631003A0319CE2F2000C701023035
:100DC000FE002530FF007E08FD3F7F08FE3F00301B
:100DD000FF3F7F3FFF0020002508803AF40080306D
:100DE0007402031DF52E7F082402031CCC2F7B3FC9
:100DF000FE007C3FFF007E0884007F0885000231F2
:100E0000793F023EFE007A3FFF000030FF3D7E0842
:100E10001E007F081E009531A025863180007B3F93
:100E2000FE007C3FFF007E0884007F0885000131C2
:100E3000793F013EFE007A3FFF000030FF3D7E0813
:100E40001E007F081E009531A025863180007B3F63
:100E500084007C3F8500793F1E00793F1E0095315C
:100E6000A02586318000703FF63F713FF73F723F0B
:100E7000F83F793F033EF93FF4017A3F743DFA3F72
:100E8000763F1E00763F1E00763F1E007A3F8400AC
:100E90007B3F8500003F1E00013F1E00023F1E00F9
:100EA0008731D927863174081E0075081E00760820
:100EB0001E007A3F84007B3F8500003F1E00013FFB
:100EC0001E00023F1E008C31642486317408ED3F01
:100ED0007508EE3F7608EF3F00301E0000301E0020
:100EE00000301E006A3F1E006A3F1E006A3F1E005F
:100EF0008A315E2286310318922F6D3F1E006D3FAE
:100F00001E006D3F1E0000301E0080301E00BF30EE
:100F10001E008D310A2586317408ED3F7508EE3FBD
:100F20007608EF3F6D3F1E006D3F1E006D3F1E00B7
:100F3000703F1E00703F1E00703F1E008A315E220F
:100F400086310318A92F6D3FF33F6E3FF43F6F3F8B
:100F5000F53FCD301E004C301E003E301E006A3F73
:100F60001E006A3F1E006A3F1E008A315E228631E3
:100F70000318BC2F0000C12F20003F08F2000030F2
:100F8000D72F7D3F033EFD3FF4017E3F743DFE3F82
:100F90007F3F013EFF3FE92EF201F20AFA301E00C8
:100FA00002301E0025301E009731CC2701306D31F4
:100FB00008007F3FF4007E3FF4047D3FF4040319F2
:100FC000F02F0030FD000030FE008030FF007D3F3C
:100FD0007D06FD3F7E3F7E06FE3F7F3F7F06FF3F53
:100FE0007D3F1E007D3F1E007D3F1E00773F1E009F
:100FF000773F1E00773F1E008E31A4267A3108000D
:101000007008533E840085012400110880000930D7
:101010007006031D1428AA30200053060319122855
:101020000530F200F0011528F00A20003A083B04D0
:10103000031908003B08FF003A08FE007F088A00F9
:101040007E080A008831080095317A2588310830F9
:1010500095312B2588317F30953133258831E53026
:101060001E0008301E009431F124883100301E002B
:1010700000301E0094318E248831C4301E0014309C
:101080001E009431FF248831BF301E0014301E0032
:101090009431F8248831B5301E0014301E0094318C
:1010A000EA24883100301E0000301E009431902464
:1010B00088319431A424080022008C018D01013074
:1010C0008E00373021008C00F0308D0001308E0012
:1010D00023008E01E0308D0021308C0024008D0132
:1010E0008C018E0125008C018D018E013730260088
:1010F0008C00F0308D00FF308E003F3027008C00D8
:10110000F0308D00FF308E001312121611161930B8
:101110003D00A00002303C00A00018303D009200CD
:1011200010303C00A100210010160C303C0094004F
:101130000800200048080319A3287108031DA328EC
:1011400094319E24080073080319B3280330450620
:101150000319B32895314B251110C801F301F30A87
:10116000F201F20A080073080319CF28033045067C
:10117000031DCF2801302F02773003192E020318E8
:10118000CF2895314B2588311110C801F301C501D5
:101190008E1171088A31D0220930F20008007308DC
:1011A0000319080003304506031D080001302F0213
:1011B000773003192E02031C080095314B251110BE
:1011C000C801F3010330F2000800943195248831FE
:1011D0009431D5248831003A0319F8289431BA247F
:1011E0008831003A0319F62801300129023001291B
:1011F0009431BA248831003A0319002903300129B7
:1012000004302000C0002029953191258831943187
:10121000DC248831003A03192E299631B926883109
:101220002E299531912588312E2907299431AD2415
:101230008831003A03192E298831002088312E295F
:101240004008013A03190429033A03191129013A04
:1012500003191529073A031916292E2994319824C0
:101260000000080047311030F93F7030FA3F02307B
:10127000FD3F7030FE3F8D31B5258931003A0319AD
:1012800083290230FE002530FF007E08FB3F7F08E7
:10129000FC3FAA301E0001301E0070301E00963147
:1012A000F426893120003E081E0002301E007030F6
:1012B0001E009631F42689310030FF3F7F3F200029
:1012C0003E02031C82297B3F84007C3F850000088E
:1012D0001E00783F1E00783F1E009631F4268931AB
:1012E000793F013EF93FF4017A3F743DFA3F7B3F7D
:1012F000013EFB3FF4017C3F743DFC3F7F3F013EDC
:10130000FF3F5E2900007931080048310030FC3F82
:10131000FD3FFE3FFF3F763FFE00773FFF007E0828
:10132000FC007F08FD000030FD1BFF30FE00FF00C9
:101330007C3FF8007D3FF9007E3FFA007F3FFB00D5
:101340007F087B02031DAE297E087A02031DAE29A9
:101350007D087902031DAE297C0878020318EA296A
:101360000030F83FF93FFA3FFB3F0000000000006B
:101370000000060884000708850038310130800726
:1013800001310030803D01310030803D01310030BD
:10139000803D7B3F031DD9297A3F031DD929783F22
:1013A000F40020307402793FF4000330743B031CD6
:1013B000B52906088400070885003C310130800704
:1013C00001310030803D01310030803D013100307D
:1013D000803D8B2976310800413100301E0070308D
:1013E0001E009531A0258931FF3F000000005530D7
:1013F0002000E6008E140E117F3FAA3A031D0A2A30
:10140000FF301E0000301E0070301E009631F426A2
:101410008931FC2903301E0070301E009531A02553
:101420008931013A03191D2A01301E0003301E00C4
:1014300070301E009631F426893104301E00703061
:101440001E009531A0258931013A0319302A013057
:101450001E0004301E0070301E009631F4268931C3
:1014600095315D25893195314B258931F10171081F
:101470008A31D02289318831242089312000C50168
:10148000803022009800990120000E130A301E00BF
:1014900053301E0000301E009731CC2789310A30AE
:1014A0001E0049301E0000301E009731CC27093045
:1014B000F20009302000BF007F3108007D3FFD00B1
:1014C0007E3FFE007F3FFF00FF1F7E2A7D3FFD0025
:1014D0007E3FFE007F3FFF000030FA000030FB003F
:1014E0008030FC007D08FA027E08FB3B7F08FC3B55
:1014F0007A08FD3F7B08FE3F7C08FF3F7A3FFD00F6
:101500007B3FFE007C3FFF00FF1F9E2A7A3FFD00CD
:101510007B3FFE007C3FFF000030FA000030FB0004
:101520008030FC007D08FA027E08FB3B7F08FC3B14
:101530007A08FA3F7B08FB3F7C08FC3F0030FD0047
:101540000030FE008030FF007D3F7D06FD3F7E3F86
:101550007E06FE3F7F3F7F06FF3F0030FD000030EC
:10156000FE008030FF007A3F7D06FA3F7B3F7E061B
:10157000FB3F7C3F7F06FC3F7F3FF4007C3F7402D3
:10158000031DCC2A7E3FF4007B3F7402031DCC2A4E
:101590007D3FF4007A3F7402031C03107A31080087
:1015A0004131FF3F7F3F0319112B21001012000032
:1015B000000021001410AA302000E6000000000006
:1015C00020008E100000000020000E15000000001A
:1015D00020000E16F62A553054060319FB2AFF3058
:1015E0001E0000301E00973138278A31AA302000B3
:1015F0005306031DEB2A0A301E0053301E00003034
:101600001E009731CC278A310000000020000E1701
:10161000000000002100101600000000210014143A
:10162000492B7F3F031D492BAA3020006606031D6E
:101630003D2B0000000020008E14000000005530FB
:101640002000C900AA30CA00302B553054060319B7
:10165000352B10301E0027301E00973138278A3175
:10166000AA3020005306031D252B0A301E004930E6
:101670001E0000301E009731CC2720008E14000081
:10168000000020000E110000000020000E12553056
:10169000E6007F3108009631D6268B318931EC2166
:1016A0008B318B170B17B02B9531AF258B31B02BAE
:1016B000883199208B31B02B71080319612B0930C7
:1016C0008A2B893132218B31200047080319B02B36
:1016D000C7018E140000000020000E110000000061
:1016E00020008E115F2B8631A6268B31003A03191C
:1016F000B02B2000C701B02B20005303031D8C2BFF
:101700000A301E0049301E0000301E009731CC27E1
:101710008B310630F200B02B02305306031DB02B84
:1017200003301E0070301E009531A0258B31200043
:10173000CA0004301E0070301E009531A0258B3188
:101740002000CB005F2B9431A1248B31AA301E00E6
:1017500000301E0070301E009631F4268B310100DF
:101760007208013A0319542B033A0319582B013A12
:1017700003195C2B073A0319732B013A03197C2BCD
:10178000033A0319A32BB02B8631802E7C3F03191B
:10179000D12B7F3FF4007E3FF4047D3FF404031D12
:1017A000E12BF401F501F601622C7C3F013EFC3F88
:1017B0007F3F8936FF3F7E3F890CFE3F7D3F890C8E
:1017C000FD3F7D3FFD007E3FFE007F3FFF00FE307E
:1017D0007F050319052CD52B7C3F013EFC3F0608F5
:1017E0008400070885003D31013080070131003059
:1017F000803D01310030803D7F3F8936FF3F7E3F95
:10180000890CFE3F7D3F890CFD3F7D3FFD007E3F03
:10181000FE007F3FFF00FF307F050319252CEC2BD6
:101820007C3FFF0002307F02031C282C7C3FF40029
:1018300001307402FC3F06088400070885003D3132
:1018400080350131800D0131800D7E3F891F102CC4
:101850007C3F09183A2CFF30FD007F30FE00FF303E
:10186000FF007D3F7D05FD3F7E3F7E05FE3F7F3FC4
:101870007F05FF3F7C3F8936FC3F7C3FFF00FE0138
:10188000FD017D3F7D04FD3F7E3F7E04FE3F7F3FA7
:101890007F04FF3F7B3F03195C2C0030FD000030CC
:1018A000FE008030FF007D3F7D04FD3F7E3F7E04D3
:1018B000FE3F7F3F7F04FF3F7D3FF4007E3FF5000A
:1018C0007F3FF6007B3108004631743FFD00753FD5
:1018D000FE00763FFF0003107E0D7F0DFE3F89085E
:1018E00003197F2C773FFD00783FFE00793FFF0012
:1018F00003107E0D7F0DFD3F8908031D832CF4012D
:10190000F501F601082D0030FA3FFB3FFC3F7D3F1B
:10191000FF008930FF077E3FF4007F087402FE3F1E
:10192000763FFD3FF93006078400FF30073D850014
:101930007D3FF40000087406FD3F7D3F8039FD3F88
:10194000753F8917F53F0030F63F783F8917F83F1C
:101950000030F93F1830FF3F060884000708850073
:101960003A3180350131800D0131800D763FF40030
:10197000793F7402031DC62C753FF400783F740252
:10198000031DC62C743FF400773F7402031CEB2C3C
:10199000773FFD00783FFE00793FFF000608840096
:1019A0000708850034317D08800201317E08803BC4
:1019B00001317F08803B3E310130FD000030FE00E8
:1019C0000030FF007A3F7D04FA3F7B3F7E04FB3FFF
:1019D0007C3F7F04FC3F0608840007088500343103
:1019E00080350131800D0131800D7F3FF4000130E1
:1019F0007402FF3F031DAC2C7D3F1E007D3F1E0087
:101A0000783F1E00783F1E00783F1E008B31C623B2
:101A1000743108004631773FFD00783FFE00793F82
:101A2000FF0003107E0D7F0DFF3F89080319252D50
:101A3000743FFD00753FFE00763FFF0003107E0DF2
:101A40007F0DFD3F8908031D292DF401F501F601E5
:101A5000B32D7D3FFF007B30FF077F3F7F07FF3FB8
:101A6000793FFD3FF63006078400FF30073D8500D3
:101A70007D3FF40000087406FD3F7D3F8039FD3F47
:101A8000783F8917F83F753F8917F53F0030F63FDB
:101A90000030FA3FFB3FFC3F0730FE3F773F091C19
:101AA000602D7A3FF400743F7407FA3F7B3FF400E7
:101AB000753F743DFB3F7C3FF400763F743DFC3F37
:101AC000793F8936F93F783F890CF83F773F890C99
:101AD000F73F06088400070885003431803501315E
:101AE000800D0131800D7E3FF40001307402FE3F15
:101AF000031D4E2D0930FE3F773F091C8E2D7A3F86
:101B0000F400743F7407FA3F7B3FF400753F743D67
:101B1000FB3F7C3FF400763F743DFC3F793F8936C4
:101B2000F93F783F890CF83F773F890CF73F7C3FBE
:101B30008936FC3F7B3F890CFB3F7A3F890CFA3F9B
:101B40007E3FF40001307402FE3F031D7C2D7D3F7B
:101B50001E007E3F1E00783F1E00783F1E00783F2B
:101B60001E008B31C623743108004F310130FF3F16
:101B70003730FD000630FE003C30FF007D08FA3FA4
:101B80007E08FB3F7F08FC3F3830FD000630FE003A
:101B90003430FF007D08F73F7E08F83F7F08F93FAB
:101BA0001230FD000330FE003C30FF007D08F43FA2
:101BB0007E08F53F7F08F63F0030F13FF23FF33FEC
:101BC0000230FE002530FF007E08FD3F7F08FE3F0B
:101BD0009D2E200046080319F02D9431AA248D3142
:101BE000440803199D2E3208023EFE000030333DAA
:101BF000FF007E081E007F081E00963153268D319F
:101C000074081E0075081E0076081E00743F1E0032
:101C1000743F1E00743F1E008D310A258D317408FB
:101C20001E0075081E0076081E00200034081E00E5
:101C300035081E00963153268D3174081E00750834
:101C40001E0076081E00743F1E00743F1E00743F85
:101C50001E008D310A258D3174081E0075081E0086
:101C600076081E008E31A4268D317D3F84007E3F94
:101C700085007408803F7508813F7608823F7F3F6A
:101C8000013EFF3F743F1E00743F1E00743F1E0064
:101C90007A3F84007B3F8500003F1E00013F1E000D
:101CA000023F1E008A315E228D31031C732E2000FC
:101CB000C701C70A00000000200090129731672773
:101CC0008D3195315D258D31000000007F3FFF0093
:101CD000FF30FF077F087F077F072000BE00C60197
:101CE000C4014708A22E7D3F84007E3F8500003F4F
:101CF0001E00013F1E00023F1E006E3F1E006E3F91
:101D00001E006E3F1E008A315E228D31031C922E12
:101D10002000C7019012973167278D3195315D25DD
:101D20008D31A12E2000C4017D3F033EFD3FF40113
:101D30007E3F743DFE3FB401B50102307206031DC3
:101D4000E92D00307131080043317A3FFD007B3FBF
:101D5000FE007C3FFF0003107E0D7F0DFD3F773FAF
:101D6000FD00783FFE00793FFF0003107E0D7F0DE0
:101D7000FE3F7D3F0319CC2E7D3FFF007E3F7F025B
:101D80000318D22E7D3FFF007E3FFE007F08FE023B
:101D900019307E02031CD22E773FF400783FF50005
:101DA000793FEA2E7E3F0319E52E7E3FFF007D3FFF
:101DB0007F020318EC2E7E3FFF007D3FFE007F0870
:101DC000FE0219307E02031CEC2E7A3FF4007B3FAA
:101DD000F5007C3FF600FE2F0630FF3F7A3FFD0006
:101DE0007B3FFE007C3FFF00FF1FF92E7F3F8038C6
:101DF000FF3F773FFD00783FFE00793FFF00FF1F68
:101E0000042F7F3F4038FF3F7B3F8917FB3F003067
:101E1000FC3F783F8917F83F0030F93F7D3FFF00D6
:101E20007E3F7F020318462F0608840007088500BE
:101E3000373180350131800D0131800D7E3FF40056
:101E400001307402FE3F7D3FFF007E3F7F06031995
:101E50003F2F7F3FF40001307402FF3F7F3F07397F
:101E600003193F2F142F7C3F8936FC3F7B3F890CA1
:101E7000FB3F7A3F890CFA3F7D3F013EFD3F7E3FAD
:101E8000FF007D3F7F0603197D2F332F7E3FFF002C
:101E90007D3F7F0203187D2F060884000708850018
:101EA0003A3180350131800D0131800D7D3FF400E4
:101EB00001307402FD3F7D3FFF007E3F7F06031926
:101EC000772F7F3FF40001307402FF3F7F3F0739D7
:101ED0000319772F4C2F793F8936F93F783F890CCA
:101EE000F83F773F890CF73F7E3F013EFE3F7E3F44
:101EF000FF007D3F7F06031D6B2F7F3F891F9C2FB7
:101F0000FF30FD00FF30FE00FF30FF007A3F7D060E
:101F1000FA3F7B3F7E06FB3F7C3F7F06FC3F060887
:101F20008400070885003A31013080070131003014
:101F3000803D01310030803D7F3F091FBB2FFF30C6
:101F4000FD00FF30FE00FF30FF00773F7D06F73FCA
:101F5000783F7E06F83F793F7F06F93F0608840008
:101F60000708850037310130800701310030803D9E
:101F700001310030803D0030FF3F773FF4007A3F71
:101F80007407F73F783FF4007B3F743DF83F793F9B
:101F9000F4007C3F743DF93F773FFD00783FFE0041
:101FA000793FFF00FF1FF22FFF30FD00FF30FE00E2
:101FB000FF30FF00773F7D06F73F783F7E06F83F12
:101FC000793F7F06F93F060884000708850037310E
:101FD0000130800701310030803D01310030803D0B
:101FE0000130FF3F7F3F1E007C3F1E00753F1E00FB
:101FF000753F1E00753F1E008B31C62377310800E8
:10291400080008000800AA347E3108007E3108004F
:102924002400110808002000911108002400151645
:10293400080020001F11080020001B140800953116
:102944005425080021009115080020009501080075
:1029540020009717080024001408013908001630D5
:10296400210097000800943192242000C10008003F
:102974002400140C890C013908009431922420009D
:10298400C2000800200043089431E3240800270013
:10299400131E080096316A260800200091100000DA
:1029A40020001F15080003102400941E0314003097
:1029B400093D080003102400141C03140030093DD1
:1029C40008004131FF3F7F3F240091007F31080020
:1029D4007E3F2000B6007F3FB7007E3108007E3F77
:1029E4002000BC007F3FBD007E3108007E3F2000F8
:1029F400BA007F3FBB007E3108007E3F2000B80054
:102A04007F3FB9007E3108007E3F2000A8007F3F51
:102A1400A9007E3108007E3F2000AC007F3FAD005E
:102A24007E3108007E3F2000A6007F3FA7007E3154
:102A3400080020001B087F3F9A007E3F99007E31EA
:102A44000800200030081E0031081E0095311B25A7
:102A540008004131FF3F7F3F0935240092007F3158
:102A640008004131FF3F7F3F0935240093007F3147
:102A74000800240094010630950496019512F00193
:102A8400080032009101920193019401950196018D
:102A9400080020001B100000000095312325AE0122
:102AA400AF010800403024009400063095048130C2
:102AB400960095120800200097130000000094313E
:102AC400A724B401B5010800013021009D00E030C5
:102AD4009E009F019B019C01111308003200990183
:102AE4009B019D0106309F009E011C180800772D54
:102AF4002400951A08004030940006309504813073
:102B04009600951608006400800101310130F4023A
:102B14000030F53B7508740403190034862D200039
:102B240036083704031908003708FF003608FE008A
:102B34007F088A007E080A00953108007E3F310034
:102B440091007F3F9200151715140000000000004B
:102B54000000310013087E31080071080319B42DF8
:102B6400F101B92D7108031DB92DF101F10A7108A4
:102B74008A31D0220930F2000800FF3020009E0084
:102B84009D019110210091108C301E0014301E0004
:102B94009531142506309F000800833025009300EA
:102BA40094019201910100301E0000301E00863114
:102BB4000226FC3025009F05200014102100141467
:102BC40008002000111030081E0031081E00953145
:102BD4001B259531AE0A0319AF0A01302F02773055
:102BE40003192E02031C0800963182260800503077
:102BF40020009800960195011608AB00AA0115085B
:102C0400AA049012210090168A301E0014301E006F
:102C140095310625903097000800203020009C0054
:102C24009A0199011A08B100B0011908B0041110F1
:102C3400210011148B301E0014301E0095310D2517
:102C440001309B00080041312000111321001D0CAC
:102C5400890C3F39FF3F7F3F2000A000A101A10A5A
:102C640021001B082000A20021001C082000A30052
:102C74007F31080020009012B40A0319B50A2B080A
:102C840096002A0895002808290403190800290831
:102C9400FF002808FE007F088A007E080A0096319B
:102CA400080000301E008E301E007C3FFE007D3F79
:102CB400FF007E08FD007F08FE00FF017D081E0066
:102CC4007E081E007F081E008B31C6237E3108005B
:102CD40014301E0000301E008931852196312000F9
:102CE4000C1E782EC801F301F30A7D2E0C1A7D2EDA
:102CF400F301C801C80A0230F200270013120800C9
:102D04007108031D8E2E03302000C5008E150000AF
:102D14000000000020008E1020002C082D04031950
:102D240008002D08FF002C08FE007F088A007E089A
:102D34000A009631080020009110000094319B2471
:102D4400963100009431CF24963100000530F20012
:102D5400200026082704031908002708FF00260876
:102D6400FE007F088A007E080A00963108000A30B7
:102D740070020318C62E7008493E840085010008BD
:102D84002000C300F00AC72EF001200038083904DF
:102D9400031908003908FF003808FE007F088A007C
:102DA4007E080A0096310800953143259631883112
:102DB4005C2096319531702596319431B124963149
:102DC4009531662596319531CF2596319531F92582
:102DD400963196310F2696319531BF25963195312E
:102DE4003B2508008B137F3F310092007E3F91000A
:102DF4007D3F930015170000000031001515553074
:102E04009600AA3096009514092F000000003100A6
:102E14009518072F00000000310015110000000074
:102E24008B177D310800200014100330720603193B
:102E34001D2F0430F20047080319232FB401B501F4
:102E440008004608031D2B2FC601C60A0530C5001D
:102E540008009431A724250012082000B30025009F
:102E640011082000B200C401C40A08004431003033
:102E7400FE3FFF3F7E3FFE007F3FFF0000307F02AA
:102E8400653003197E020318652F7E3F013EFE3F25
:102E9400F4017F3F743DFF3F0030FC3FFD3F7B3F2B
:102EA400F4007D3F7402031D5B2F7A3FF4007C3FE6
:102EB4007402031C3C2F7C3F013EFC3FF4017D3F28
:102EC400743DFD3F512F7A31080043312000B40195
:102ED400B5010030FD3FFE3FFF3F901E7D2F0030C7
:102EE400FD3FFE3FFF3F003035023C300319340202
:102EF4000318972F901206088400070885003D31B7
:102F04000130800701310030803D01310030803DC7
:102F14003E31003FFF3A031D952F013FFF3A031D49
:102F2400952F023F023A031D6F2F7D310800433174
:102F3400FD3F0030FE3F7C3F0319C92F0130FF3FA6
:102F44007C3F891BAC2F7C3F8935FC3F7F3F013E92
:102F5400FF3FA22F7E3F8935FE3F7D3FFF007C3F30
:102F64007F02031CBF2F7C3FFF007D3FF4007F08DE
:102F74007402FD3F7E3F0138FE3F7C3F8936FC3FB3
:102F84007F3FF40001307402FF3F031DAC2F7E3FEE
:102F94007C31080042310030FE3FFF3F0030FE3FED
:102FA400FF3F7E3FFE007F3FFF007B3FFF3EFC0074
:102FB400FF3003180030FD007D08803AF4007F08DC
:102FC400803A7402031DE82F7E087C02031CFE2F46
:102FD4007C3F84007D3F850080017C3F013EFC3FB7
:102FE400F4017D3F743DFD3F7E3F013EFE3FF40111
:0C2FF4007F3F743DFF3FD32F7B3108006E
:020000040001F9
:08000E008CFFF3DFFFFFFFFF91
:00000001FF
