:020000040000FA
:100C00008631802E7E310800863174082000D8009D
:100C10007808D9007908DA007A08DB007B08DC0064
:100C20007C08DD007D08DE007E08DF007F08E00034
:100C30003A308600233087002100901E262E2000A7
:100C4000901E262E9531922586316C2E2100101E85
:100C5000302E2000101E302E9431282486316C2E28
:100C60000B1F6C2E2100111F3B2E2000111F3B2E4D
:100C700095317B2586312100111D4B2E2000111D41
:100C80004B2E3E08FF003D08FE007F088A007E08CC
:100C90000A0086316C2E2100911920009119412EF5
:100CA0002100141C5A2E2000141C5A2E9631732633
:100CB00086316C2E2100911C642E2000911C642E24
:100CC0009531DA2586316C2E2100111C6C2E200006
:100CD000111C6C2E9531392520006008FF005F083B
:100CE000FE005E08FD005D08FC005C08FB005B0880
:100CF000FA005A08F9005908F8005808F4000900E9
:100D00008631822E883100208631E1008831012031
:100D10008631E200883102208631E30088310320E9
:100D20008631E4002E30840026308500C230F40085
:100D30000130F5009431DB248631F001F101F2013C
:100D4000F30120308400003085003830F40000309A
:100D5000F5009431DB2420004530860020308700E8
:100D60008C31F32C50310330F93F7030FA3F0030B2
:100D7000F03FF13FF23F0030F63FF73FF83F720897
:100D80002000C000F0300607FE00FF30073DFF00E6
:100D90007E08FB3F7F08FC3F8D31B5258631003A48
:100DA0000319E42F2000C9012E30FE002630FF0079
:100DB0007E08FD3F7F08FE3F0030FF3F7B3FFE0087
:100DC0007C3FFF007E0884007F0885000231793F68
:100DD000023EFE007A3FFF000030FF3D7E081E000D
:100DE0007F081E009431F624863180007B3FFE0090
:100DF0007C3FFF007E0884007F0885000131793F39
:100E0000013EFE007A3FFF000030FF3D7E081E00DD
:100E10007F081E009431F624863180007B3F8400D9
:100E20007C3F8500793F1E00793F1E009431F624F7
:100E300086318000703FF33F713FF43F723FF53FD2
:100E4000793F033EF93FF4017A3F743DFA3F733F27
:100E50001E00733F1E00733F1E007A3F84007B3FDD
:100E60008500003F1E00013F1E00023F1E0088312A
:100E70000420863174081E0075081E0076081E00C6
:100E80007A3F84007B3F8500003F1E00013F1E002B
:100E9000023F1E006D3F1E006D3F1E006D3F1E0095
:100EA0008E31A426863174081E0075081E0076084F
:100EB0001E008A31E122863174081E0075081E006A
:100EC00076081E0000301E0020301E0041301E003B
:100ED0008B318723863174082000A4007508A50093
:100EE0007608A60000301E0000301E0000301E00F4
:100EF00024081E0025081E0026081E008931D12165
:100F0000863103189A2F200024081E0025081E0091
:100F100026081E0000301E0080301E00BF301E005C
:100F20008B318723863174082000A4007508A50042
:100F30007608A600200024081E0025081E002608AA
:100F40001E00733F1E00733F1E00733F1E00893159
:100F5000D12186310318B92F20002408FD0025086F
:100F6000FE002608FF007D08F63F7E08F73F7F0859
:100F7000F83F200024081E0025081E0026081E0039
:100F800000301E0080301E003F301E008931D1210C
:100F90008631031CCD2F0000D22F20004008F20024
:100FA0000030E52F7D3F033EFD3FF4017E3F743D61
:100FB000FE3F7F3F013EFF3F7F3FFF0013307F0238
:100FC000031CDE2EF201F20A0130703108001430E9
:100FD0001E0000301E0089316A21873120000C1E5E
:100FE000F52FCA01F301F30AFA2F0C1AFA2FF301B5
:100FF000CA01CA0A0230F2002700131208000800D2
:1010000003347034023470347F3FF4007E3FF404C4
:101010007D3FF40403191B280030FD000030FE0062
:101020008030FF007D3F7D06FD3F7E3F7E06FE3F18
:101030007F3F7F06FF3F7D3F1E007D3F1E007D3FBF
:101040001E00773F1E00773F1E00773F1E008E3147
:10105000A4267A31080043318D31B5258831003A14
:10106000031971282E30FE002630FF007E08FD3F58
:101070007F08FE3FAA301E0001301E0070301E00A7
:1010800096315226883120003F081E0063081E005A
:1010900064081E009631522688310030FF3F7F3FA2
:1010A00020003F02031C70287D3F84007E3F8500A6
:1010B00000081E0061081E0062081E0096315226BC
:1010C00088312000E10A0319E20A7D3F013EFD3F1D
:1010D000F4017E3F743DFE3F7F3F013EFF3F4F28BE
:1010E00000007D31080020004A0803197D2871089E
:1010F000031D7D28943100240800730803198D28EE
:101100000330470603198D289431AA241110CA010F
:10111000F301F30AF201F20A080073080319A82880
:1011200003304706031DA828013030027730031929
:101130002F020318A8289431AA2488311110CA015B
:10114000F301C70171089631BB260930F20008008F
:1011500073080319080003304706031D0800013017
:101160003002773003192F02031C08009431AA249F
:101170001110CA01F3010330F20008009331F72384
:101180008831943134248831003A0319D1289431BC
:1011900019248831003A0319CF280130DA280230A7
:1011A000DA28943119248831003A0319D9280330F8
:1011B000DA2804302000C200F9289431E72488316D
:1011C00094313B248831003A03190729963133269C
:1011D000883107299431E72488310729E0289431A0
:1011E0000C248831003A03190729963114268831D6
:1011F00007294208013A0319DD28033A0319EA28AE
:10120000013A0319EE28073A0319EF280729933109
:10121000FA230800413100301E0070301E00943166
:10122000F6248931FF3F0000000020000E177F3FA9
:10123000AA3A031D2529FF301E0000301E00703021
:101240001E00963152268931172972301E007030E7
:101250001E009431F6248931013A031938290130EE
:101260001E0072301E0070301E00963152268931E9
:1012700073301E0070301E009431F6248931023A1A
:1012800003194B2902301E0073301E0070301E00FF
:101290009631522689319431B32489319431AA246C
:1012A0008931F101F10A71089631BB2689319731F4
:1012B0004C272000C70180302200980099011D3082
:1012C0003D00A30020000E170930F2000930C000D5
:1012D0007F31080048310030FC3FFD3FFE3FFF3FBB
:1012E000763FFE00773FFF007E08FC007F08FD0090
:1012F0000030FD1BFF30FE00FF007C3FF8007D3F0B
:10130000F9007E3FFA007F3FFB007F087B02031D50
:1013100093297E087A02031D93297D087902031D13
:1013200093297C0878020318CF290030F83FF93F51
:10133000FA3FFB3F000000000000000006088400A8
:101340000708850038310130800701310030803DC9
:1013500001310030803D01310030803D7B3F031D75
:10136000BE297A3F031DBE29783FF4002030740265
:10137000793FF4000330743B031C9A29060884006B
:10138000070885003C310130800701310030803D85
:1013900001310030803D01310030803D70297631CF
:1013A00008007D3FFD007E3FFE007F3FFF00FF1FE6
:1013B000F1297D3FFD007E3FFE007F3FFF000030B2
:1013C000FA000030FB008030FC007D08FA027E0845
:1013D000FB3B7F08FC3B7A08FD3F7B08FE3F7C0817
:1013E000FF3F7A3FFD007B3FFE007C3FFF00FF1F79
:1013F000112A7A3FFD007B3FFE007C3FFF0000305A
:10140000FA000030FB008030FC007D08FA027E0804
:10141000FB3B7F08FC3B7A08FA3F7B08FB3F7C08DC
:10142000FC3F0030FD000030FE008030FF007D3FBB
:101430007D06FD3F7E3F7E06FE3F7F3F7F06FF3FEE
:101440000030FD000030FE008030FF007A3F7D0656
:10145000FA3F7B3F7E06FB3F7C3F7F06FC3F7F3FA2
:10146000F4007C3F7402031D3F2A7E3FF4007B3F63
:101470007402031D3F2A7D3FF4007A3F7402031C6F
:1014800003107A3108007C3F03194E2A7F3FF40095
:101490007E3FF4047D3FF404031D5E2AF401F50150
:1014A000F601DF2A7C3F013EFC3F7F3F8936FF3F4C
:1014B0007E3F890CFE3F7D3F890CFD3F7D3FFD0057
:1014C0007E3FFE007F3FFF00FE307F050319822A2A
:1014D000522A7C3F013EFC3F060884000708850035
:1014E0003D310130800701310030803D0131003055
:1014F000803D7F3F8936FF3F7E3F890CFE3F7D3F29
:10150000890CFD3F7D3FFD007E3FFE007F3FFF00D9
:10151000FF307F050319A22A692A7C3FFF000230B1
:101520007F02031CA52A7C3FF40001307402FC3FBB
:1015300006088400070885003D3180350131800DA3
:101540000131800D7E3F891F8D2A7C3F0918B72A03
:10155000FF30FD007F30FE00FF30FF007D3F7D0546
:10156000FD3F7E3F7E05FE3F7F3F7F05FF3F7C3F87
:101570008936FC3F7C3FFF00FE01FD017D3F7D047D
:10158000FD3F7E3F7E04FE3F7F3F7F04FF3F7B3F6A
:101590000319D92A0030FD000030FE008030FF0022
:1015A0007D3F7D04FD3F7E3F7E04FE3F7F3F7F0405
:1015B000FF3F7D3FF4007E3FF5007F3FF6007B312B
:1015C00008004631743FFD00753FFE00763FFF0086
:1015D00003107E0D7F0DFE3F89080319FC2A773F1B
:1015E000FD00783FFE00793FFF0003107E0D7F0D68
:1015F000FD3F8908031D002BF401F501F601852B41
:101600000030FA3FFB3FFC3F7D3FFF008930FF0782
:101610007E3FF4007F087402FE3F763FFD3FF930C5
:1016200006078400FF30073D85007D3FF400000879
:101630007406FD3F7D3F8039FD3F753F8917F53FBB
:101640000030F63F783F8917F83F0030F93F1830F7
:10165000FF3F06088400070885003A3180350131D4
:10166000800D0131800D763FF400793F7402031D37
:10167000432B753FF400783F7402031D432B743FE6
:10168000F400773F7402031C682B773FFD00783F1E
:10169000FE00793FFF00060884000708850034310A
:1016A0007D08800201317E08803B01317F08803B4C
:1016B0003E310130FD000030FE000030FF007A3F77
:1016C0007D04FA3F7B3F7E04FB3F7C3F7F04FC3F71
:1016D0000608840007088500343180350131800D0B
:1016E0000131800D7F3FF40001307402FF3F031D84
:1016F000292B7D3F1E007D3F1E00783F1E00783F56
:101700001E00783F1E008A314322743108004631A2
:10171000773FFD00783FFE00793FFF0003107E0D0C
:101720007F0DFF3F89080319A22B743FFD00753F11
:10173000FE00763FFF0003107E0D7F0DFD3F890800
:10174000031DA62BF401F501F601302C7D3FFF00AF
:101750007B30FF077F3F7F07FF3F793FFD3FF6303C
:1017600006078400FF30073D85007D3FF400000838
:101770007406FD3F7D3F8039FD3F783F8917F83F74
:10178000753F8917F53F0030F63F0030FA3FFB3FC9
:10179000FC3F0730FE3F773F091CDD2B7A3FF4000A
:1017A000743F7407FA3F7B3FF400753F743DFB3F85
:1017B0007C3FF400763F743DFC3F793F8936F93F2A
:1017C000783F890CF83F773F890CF73F0608840083
:1017D00007088500343180350131800D0131800DDD
:1017E0007E3FF40001307402FE3F031DCB2B093015
:1017F000FE3F773F091C0B2C7A3FF400743F7407BF
:10180000FA3F7B3FF400753F743DFB3F7C3FF400A3
:10181000763F743DFC3F793F8936F93F783F890C2C
:10182000F83F773F890CF73F7C3F8936FC3F7B3F91
:10183000890CFB3F7A3F890CFA3F7E3FF400013070
:101840007402FE3F031DF92B7D3F1E007E3F1E00EC
:10185000783F1E00783F1E00783F1E008A314322E9
:10186000743108004631E12C4D08FE00FF017E086E
:10187000FE3F7F08FF3F4C08FE00FF017E3FFC005B
:101880007F3FFD007C08FD00FC017E087C04FA001F
:101890007F087D04FB007A08FE3F7B08FF3F7E3F08
:1018A000FC3F7F3FFD3F4F0A0319B72C4E08FF0056
:1018B0004F0A5B2CFF36890B5A2C7F08FE00FF0174
:1018C0007E08FA3F7F08FB3F0130FE000030FF003A
:1018D0007A3F7E05FA3F7B3F7F05FB3F7A3F013A27
:1018E000F4007B3FF404031D972C0130FE00003010
:1018F000FF004F0A7D2CFE35FF0D890B7B2C7A3FB4
:101900007E04FA3F7B3F7F04FB3F7C3F84007D3FAA
:1019100085000130FF004F0A8E2CFF35890B8D2C7E
:101920007F080004FF007C3FFC007D3FAE2C7A3F27
:1019300003197B3F031DB52C7C3F84007D3F850050
:101940000130FF004F0AA52CFF35890BA42C7F081E
:10195000FF3A0005FF007C3FFC007D3FFD007C0856
:1019600084007D0885007F0880000930D72C7E3FE9
:101970009D3AF4007F3FF4040319C82CD92C13308E
:10198000C62C1530C62C0D30C62C0E30C100D62CFE
:101990004E080D3A0319C32C033A0319C52C1D3AFE
:1019A0000319BF2C063A0319C12CD62C0630F200BD
:1019B000F02C4E08FF007C3FFC007D3FAE2C0E1744
:1019C000B52C20004B08013A0319342C033A0319B3
:1019D000F02C573A0319DF2CFF3A0319DF2CB52CF2
:1019E00072087A31080041310030FF3F9531F62509
:1019F0008C3189310A218C318B170B179E2D953133
:101A000005258C319E2D883173208C319E2D7108D7
:101A100003190C2D0930782D88312B208C312000B2
:101A2000490803199E2DC9018E14000000002000F2
:101A30000E110A2D8631B2268C31003A03199E2DE3
:101A40002000C9019E2D07301E004B30973184279E
:101A50008C3120005006031D442D4B03031D442DE3
:101A600006301E0052309631EA268C315530200067
:101A7000D7000000000000008C3132248C31C000FF
:101A80000130FF3F0E139E2D07301E004B30973163
:101A900084278C312000500603195D2D4B03031D54
:101AA0005D2D06301E0052309631EA268C31093009
:101AB000F200AA302000D700422D4B08031D6A2DEA
:101AC000553051060319682DAA305106031D6A2DA1
:101AD0000930F2007F3F031D702D9E2D0000000095
:101AE000023020004B06031D6E2D0030FF3F4008E2
:101AF000F2009E2D06301E0052309631EA268C31BF
:101B000020004108963196268C3120004108D200F1
:101B1000D301D30A21001B082000D40021001C0897
:101B20002000D50006301E005230973184278C31BA
:101B30002000D6005530D7000E130A2D7208013A46
:101B40000319FF2C033A0319032D013A0319072D3A
:101B5000073A03191A2D013A0319232D033A0319E1
:101B60007A2D9E2D7F318631802E4F310130FF3FFF
:101B70003730FD000630FE003C30FF007D08FA3FA4
:101B80007E08FB3F7F08FC3F3830FD000630FE003A
:101B90003430FF007D08F73F7E08F83F7F08F93FAB
:101BA0001230FD000330FE003C30FF007D08F43FA2
:101BB0007E08F53F7F08F63F0030F13FF23FF33FEC
:101BC0002E30FE002630FF007E08FD3F7F08FE3FDE
:101BD0009D2E200048080319F02D943109248D31E1
:101BE000460803199D2E3308023EFE000030343DA6
:101BF000FF007E081E007F081E009531A9258D314B
:101C000074081E0075081E0076081E00743F1E0032
:101C1000743F1E00743F1E008B3187238D31740882
:101C20001E0075081E0076081E00200035081E00E4
:101C300036081E009531A9258D3174081E007508DF
:101C40001E0076081E00743F1E00743F1E00743F85
:101C50001E008B3187238D3174081E0075081E000D
:101C600076081E008E31A4268D317D3F84007E3F94
:101C700085007408803F7508813F7608823F7F3F6A
:101C8000013EFF3F743F1E00743F1E00743F1E0064
:101C90007A3F84007B3F8500003F1E00013F1E000D
:101CA000023F1E008931D1218D31031C732E20008B
:101CB000C901C90A000000002000901297311A27BC
:101CC0008D319431B3248D31000000007F3FFF003F
:101CD000FF30FF077F087F077F072000BF00C80194
:101CE000C6014908A22E7D3F84007E3F8500003F4B
:101CF0001E00013F1E00023F1E006E3F1E006E3F91
:101D00001E006E3F1E008931D1218D31031C922EA1
:101D10002000C901901297311A278D319431B324D4
:101D20008D31A12E2000C6017D3F033EFD3FF40111
:101D30007E3F743DFE3FB501B60102307206031DC1
:101D4000E92D00307131080043317A3FFD007B3FBF
:101D5000FE007C3FFF0003107E0D7F0DFD3F773FAF
:101D6000FD00783FFE00793FFF0003107E0D7F0DE0
:101D7000FE3F7D3F0319CC2E7D3FFF007E3F7F025B
:101D80000318D22E7D3FFF007E3FFE007F08FE023B
:101D900019307E02031CD22E773FF400783FF50005
:101DA000793FEA2E7E3F0319E52E7E3FFF007D3FFF
:101DB0007F020318EC2E7E3FFF007D3FFE007F0870
:101DC000FE0219307E02031CEC2E7A3FF4007B3FAA
:101DD000F5007C3FF600FE2F0630FF3F7A3FFD0006
:101DE0007B3FFE007C3FFF00FF1FF92E7F3F8038C6
:101DF000FF3F773FFD00783FFE00793FFF00FF1F68
:101E0000042F7F3F4038FF3F7B3F8917FB3F003067
:101E1000FC3F783F8917F83F0030F93F7D3FFF00D6
:101E20007E3F7F020318462F0608840007088500BE
:101E3000373180350131800D0131800D7E3FF40056
:101E400001307402FE3F7D3FFF007E3F7F06031995
:101E50003F2F7F3FF40001307402FF3F7F3F07397F
:101E600003193F2F142F7C3F8936FC3F7B3F890CA1
:101E7000FB3F7A3F890CFA3F7D3F013EFD3F7E3FAD
:101E8000FF007D3F7F0603197D2F332F7E3FFF002C
:101E90007D3F7F0203187D2F060884000708850018
:101EA0003A3180350131800D0131800D7D3FF400E4
:101EB00001307402FD3F7D3FFF007E3F7F06031926
:101EC000772F7F3FF40001307402FF3F7F3F0739D7
:101ED0000319772F4C2F793F8936F93F783F890CCA
:101EE000F83F773F890CF73F7E3F013EFE3F7E3F44
:101EF000FF007D3F7F06031D6B2F7F3F891F9C2FB7
:101F0000FF30FD00FF30FE00FF30FF007A3F7D060E
:101F1000FA3F7B3F7E06FB3F7C3F7F06FC3F060887
:101F20008400070885003A31013080070131003014
:101F3000803D01310030803D7F3F091FBB2FFF30C6
:101F4000FD00FF30FE00FF30FF00773F7D06F73FCA
:101F5000783F7E06F83F793F7F06F93F0608840008
:101F60000708850037310130800701310030803D9E
:101F700001310030803D0030FF3F773FF4007A3F71
:101F80007407F73F783FF4007B3F743DF83F793F9B
:101F9000F4007C3F743DF93F773FFD00783FFE0041
:101FA000793FFF00FF1FF22FFF30FD00FF30FE00E2
:101FB000FF30FF00773F7D06F73F783F7E06F83F12
:101FC000793F7F06F93F060884000708850037310E
:101FD0000130800701310030803D01310030803D0B
:101FE0000130FF3F7F3F1E007C3F1E00753F1E00FB
:101FF000753F1E00753F1E008A314322773108006D
:1027DC00080008007E3108007E3108002400110832
:1027EC000800200091110800240015160800200094
:1027FC001F11080020001B1408002100911508006F
:10280C0020009501080020009717080024001408E8
:10281C000139080016302100970008009331F42389
:10282C002000C30008002400140C890C0139080096
:10283C009331F4232000C400080020004508943193
:10284C00422408002700131E08008731E7270800E0
:10285C0020009110000020001F1508000310240018
:10286C00941E03140030093D080003102400141CAE
:10287C0003140030093D08004131FF3F7F3F240025
:10288C0091007F3108007E3F2000B7007F3FB800E9
:10289C007E3108007E3F2000BD007F3FBE007E31B0
:1028AC0008007E3F2000BB007F3FBC007E3108004B
:1028BC007E3F2000B9007F3FBA007E3108007E3F8A
:1028CC002000A9007F3FAA007E3108007E3F200037
:1028DC00AD007F3FAE007E3108007E3F2000A70098
:1028EC007F3FA8007E31080020001B087F3F9A0024
:1028FC007E3F99007E310800200031081E0032080E
:10290C001E0094317A2408004131FF3F7F3F093586
:10291C00240092007F3108004131FF3F7F3F093591
:10292C00240093007F3108002400940106309504A4
:10293C0096019512F0010800320091019201930169
:10294C00940195019601080020001B100000000066
:10295C0094318224AF01B0010800200097130000CD
:10296C00000094310624B501B601080001302100A5
:10297C009D00E0309E009F019B019C0111130800FB
:10298C00320099019B019D0106309F009E011C188D
:10299C000800CD2C2400951A080040309400063015
:1029AC009504813096009516080064008001013171
:1029BC000130F4020030F53B75087404031900343F
:1029CC00DC2C200037083804031908003808FF00F5
:1029DC003708FE007F088A007E080A009431080040
:1029EC007E3F310091007F3F9200151715140000B7
:1029FC00000000000000310013087E31080071084F
:102A0C0003190A2DF1010F2D7108031D0F2DF10172
:102A1C00F10A71089631BB260930F2000800FF302C
:102A2C0020009E009D01911021009110FF301E008E
:102A3C0007301E009431732406309F000800833049
:102A4C002500930094019201910100301E0000308A
:102A5C001E0086310226FC3025009F052000141034
:102A6C002100141008002000111031081E0032083B
:102A7C001E0094317A249531AF0A0319B00A013043
:102A8C003002773003192F02031C08009531C02542
:102A9C000800503020009800960195011608AC00F3
:102AAC00AB011508AB04901221009016EE301E00FD
:102ABC0013301E00943165249030970008002030AC
:102ACC0020009C009A0199011A08B200B101190862
:102ADC00B104111021001114EF301E0013301E0030
:102AEC0094316C2401309B000800413120001113FB
:102AFC0021001D0C890C3F39FF3F7F3F2000A000B7
:102B0C00A101A10A21001B082000A20021001C0821
:102B1C002000A3007F31080020009012B50A031991
:102B2C00B60A2C0896002B08950029082A040319CC
:102B3C0008002A08FF002908FE007F088A007E088A
:102B4C000A009531080000301E008E301E007C3FBC
:102B5C00FE007D3FFF007E08FD007F08FE00FF01A8
:102B6C007D081E007E081E007F081E008A3143224D
:102B7C007E3108007108031DCB2D03302000C700E7
:102B8C008E140000000020000E1520002D082E04CD
:102B9C00031908002E08FF002D08FE007F088A008C
:102BAC007E080A0095310800200091100000933136
:102BBC00FD239531000094312E2495310000053011
:102BCC00F200200027082804031908002808FF0039
:102BDC002708FE007F088A007E080A00953108004D
:102BEC009431A22495319731C22795319431C62462
:102BFC0095319431102495319431BC249531953113
:102C0C002525953195314F25953195316525953192
:102C1C0095311525953194319A24080070084B3E56
:102C2C008400850124001108800006307006031D05
:102C3C00232E0530F200F001242EF00A20003B0870
:102C4C003C04031908003C08FF003B08FE007F0809
:102C5C008A007E080A0096310800063070020318BC
:102C6C00402E7008523E8400850100082000C500EB
:102C7C00F00A412EF001200039083A0403194F2EB6
:102C8C003A08FF003908FE007F088A007E080A0017
:102C9C00963120000E1708008B137F3F31009200F5
:102CAC007E3F91007D3F930015170000000031001E
:102CBC00151555309600AA3096009514672E000015
:102CCC00000031009518652E000000003100151130
:102CDC00000000008B177D31080020001410033019
:102CEC00720603197B2E0430F20049080319812E59
:102CFC00B501B60108004808031D892EC801C80A91
:102D0C000530C70008009431062425001208200065
:102D1C00B400250011082000B300C601C60A080043
:102D2C004131FF3F21001D1000007F3FFF00FF0DD0
:102D3C00FF0D21001D087F0603397F069D00000052
:102D4C0021001D140D30890BA92E000021009D14AB
:102D5C00000021009D1CB52E00000000AF2E1C08A9
:102D6C00F5001B08F4007F3108004131FF3F7F3F25
:102D7C000319D22E21000E130000000020008E102B
:102D8C000000000020000E150000000020000E16B0
:102D9C00000000002000E72E7F3F031DE82E0000FE
:102DAC00000020008E140000000000000000000055
:102DBC0020000E120000000020000E110000000088
:102DCC0021000E177F3108004331FD3F0030FE3FDC
:102DDC00FF3F0030FE3FFF3F7E3FFE007F3FFF0086
:102DEC007C3FFF3EFC00FF3003180030FD007D08E7
:102DFC00803AF4007F08803A7402031D072F7E0886
:102E0C007C02031C182F7D3F8400850180017D3FCF
:102E1C00013EFD3F7E3F013EFE3FF4017F3F743D8E
:102E2C00FF3FF22E7C31080043312000B501B60182
:102E3C000030FD3FFE3FFF3F901E302F0030FD3F26
:102E4C00FE3FFF3F003036023C30031935020318B9
:102E5C004A2F901206088400070885003D31013086
:102E6C00800701310030803D01310030803D3E3122
:102E7C00003FFF3A031D482F013FFF3A031D482F27
:102E8C00023F023A031D222F7D3108009431D024D9
:102E9C009731083094318A2497317F3094319224C1
:102EAC009731BE301E0008301E00943150249731EB
:102EBC0000301E0000301E009331F0239731233078
:102ECC001E0014301E0094315E2497311E301E00FB
:102EDC0014301E0094315724973114301E001430D6
:102EEC001E0094314924973100301E0000301E0022
:102EFC009331F22397319431032408004531FB3F81
:102F0C000030FC3FFD3F0030FF3F7F3FFF007A3F2A
:102F1C00FD3EFC00FF3003180030FD007D08803AB8
:102F2C00F40080307402031D9D2F7F087C02031C6B
:102F3C00B22F7B3F840085010008F4007C3F7407AE
:102F4C00FC3FF4017D3F743DFD3F7B3F013EFB3F69
:102F5C007F3F013EFF3F8B2FFF30FE000030FF0014
:102F6C007C3F7E05FC3F7D3F7F05FD3F7C3FFF3A6C
:102F7C00FE3F7E3F7A31080022008C018D0101302A
:102F8C008E00373021008C00F0308D00E1308E0047
:102F9C0023008E01E0308D0021308C0024008D0147
:102FAC008C018E0125008C018D0140308E00373054
:102FBC0026008C00F0308D00FF308E003F30270053
:102FCC008C00F0308D00FF308E001312121611168B
:102FDC0019303D00A00002303C00A00018303D002C
:102FEC00920010303C00A100210010160C303C0067
:042FFC009400080035
:020000040001F9
:08000E008CFFF3DFFFFFFFFF91
:00000001FF
