:020000040000FA
:100A00008531762D7E310800853174082000E000A4
:100A10007808E1007908E2007A08E3007B08E40046
:100A20007C08E5007D08E6007E08E7007F08E80016
:100A30001E308600223087002100901E262D2000C7
:100A4000901E262D95318F258531622D2100101E97
:100A5000302D2000101E302D943154248531622D0C
:100A60000B1F622D2100141C3C2D2000141C3C2D5A
:100A7000963162268531622D2100911D502D200076
:100A8000911D502D6E08031D492D88319820853108
:100A9000622D6E080319622D8E31EF268531622D8D
:100AA0002100911C5A2D2000911C5A2D96310826A8
:100AB0008531622D2100111C622D2000111C622D38
:100AC00095314D2520006808FF006708FE00660884
:100AD000FD006508FC006408FB006308FA0062087A
:100AE000F9006108F8006008F40009008531782DEC
:100AF000703084008A308500EC3086002330870017
:100B00000030F50080309431C6248531943143247F
:100B10008531F300603084009430850069308600B0
:100B2000003087000030F50006309431C62485314E
:100B30006C308400243085008430F4000330F500EC
:100B40009431BA248531F001F101F20120308400A2
:100B5000003085003630F4000030F5009431BA24BE
:100B600020004F3086002030870097318C2F433192
:100B70007A3FFD007B3FFE007C3FFF0003107E0DAF
:100B80007F0DFD3F773FFD00783FFE00793FFF007E
:100B900003107E0D7F0DFE3F7D3F0319DF2D7D3F4E
:100BA000FF007E3F7F020318E52D7D3FFF007E3F63
:100BB000FE007F08FE0219307E02031CE52D773F00
:100BC000F400783FF500793FFD2D7E3F0319F82DA5
:100BD0007E3FFF007D3F7F020318FF2D7E3FFF0019
:100BE0007D3FFE007F08FE0219307E02031CFF2DB0
:100BF0007A3FF4007B3FF5007C3FF600112F063072
:100C0000FF3F7A3FFD007B3FFE007C3FFF00FF1F60
:100C10000C2E7F3F8038FF3F773FFD00783FFE007E
:100C2000793FFF00FF1F172E7F3F4038FF3F7B3F7C
:100C30008917FB3F0030FC3F783F8917F83F0030B1
:100C4000F93F7D3FFF007E3F7F020318592E0608C3
:100C5000840007088500373180350131800D01316E
:100C6000800D7E3FF40001307402FE3F7D3FFF00A7
:100C70007E3F7F060319522E7F3FF400013074023D
:100C8000FF3F7F3F07390319522E272E7C3F8936BD
:100C9000FC3F7B3F890CFB3F7A3F890CFA3F7D3F4D
:100CA000013EFD3F7E3FFF007D3F7F060319902EF2
:100CB000462E7E3FFF007D3F7F020318902E0608E0
:100CC0008400070885003A3180350131800D0131FB
:100CD000800D7D3FF40001307402FD3F7D3FFF0039
:100CE0007E3F7F0603198A2E7F3FF4000130740295
:100CF000FF3F7F3F073903198A2E5F2E793F8936E0
:100D0000F93F783F890CF83F773F890CF73F7E3FEA
:100D1000013EFE3F7E3FFF007D3F7F06031D7E2E8E
:100D20007F3F891FAF2EFF30FD00FF30FE00FF30F8
:100D3000FF007A3F7D06FA3F7B3F7E06FB3F7C3F0C
:100D40007F06FC3F06088400070885003A31013021
:100D5000800701310030803D01310030803D7F3F10
:100D6000091FCE2EFF30FD00FF30FE00FF30FF00D8
:100D7000773F7D06F73F783F7E06F83F793F7F0655
:100D8000F93F0608840007088500373101308007E5
:100D900001310030803D01310030803D0030FF3FA7
:100DA000773FF4007A3F7407F73F783FF4007B3FCA
:100DB000743DF83F793FF4007C3F743DF93F773F45
:100DC000FD00783FFE00793FFF00FF1F052FFF3039
:100DD000FD00FF30FE00FF30FF00773F7D06F73F4C
:100DE000783F7E06F83F793F7F06F93F060884008A
:100DF0000708850037310130800701310030803D20
:100E000001310030803D0130FF3F7F3F1E007C3FBD
:100E10001E00753F1E00753F1E00753F1E008B3182
:100E20007123773108004F313330FD005330FE001D
:100E30003B30FF007D08F73F7E08F83F7F08F93F11
:100E40004030FD001C30FE004630FF007D08F13FC1
:100E50007E08F23F7F08F33F4030FD001C30FE006B
:100E60004630FF007D08F43F7E08F53F7F08F63FDF
:100E7000713F1E00713F1E00713F1E0000301E00BA
:100E8000B0301E0040301E008C31B524873174080C
:100E90001E0075081E0076081E006E3F1E006E3F85
:100EA0001E006E3F1E006E3F1E006E3F1E006E3F16
:100EB0001E008531B725873174081E0075081E0095
:100EC00076081E008C310F2487317408FD3F7508A9
:100ED000FE3F7608FF3F713F1E00713F1E00713FCD
:100EE0001E00CD301E009C301E0040301E008C3194
:100EF000B524873174081E0075081E0076081E0090
:100F00006E3F1E006E3F1E006E3F1E006E3F1E00B5
:100F10006E3F1E006E3F1E008531B7258731740875
:100F20001E0075081E0076081E008C310F248731C4
:100F30007408FA3F7508FB3F7608FC3F0F30963186
:100F40008526873174081E0075081E009531A62578
:100F5000873174081E0075081E0076081E00743F55
:100F60001E00743F1E00743F1E008C31B524873173
:100F700074082000AC007508AD007608AE007D3F17
:100F80001E007D3F1E007D3F1E002C081E002D0808
:100F90001E002E081E00743F1E00743F1E00743F8A
:100FA0001E008931FE2187310318D82F0130D92F37
:100FB0000030FE00FF017E081E007F081E009631F3
:100FC000D026873174081E0075081E0076081E00A2
:100FD0008931FE2187310318EF2F0130F02F0030C7
:100FE000713108004131FF3FF62FF52F7F3F013A65
:100FF0000319F52F033A0319FE2FFE2F7F31080046
:10100000320091019201930194019501960108002B
:101010002000470803190F28943147240800460888
:1010200003191E280330420603191E2894318B240D
:101030001110C701C601C501C50A080046080319F9
:101040003A2803304206031D3A2801303202773035
:101050000319310203183A2894318B248831111076
:10106000C701C601C201700889313621093020004C
:10107000C500080046080319080003304206031D96
:10108000080001303202773003193102031C0800D6
:1010900094318B241110C701C6010330C50008002C
:1010A00043318E3123268831003A031996286C305B
:1010B000FE002430FF007E08FD3F7F08FE3FAA307F
:1010C0001E0001301E0070301E009631422688310D
:1010D000200037081E006B081E006C081E009631A9
:1010E000422688310030FF3F7F3F20003702031C3B
:1010F00095287D3F84007E3F850000081E0069081A
:101100001E006A081E009631422688312000E90A36
:101110000319EA0A7D3F013EFD3FF4017E3F743D25
:10112000FE3F7F3F013EFF3F742800007D310800F5
:10113000200091113A08203E840085012400110806
:101140008000141DC428941A161FAB280330883160
:10115000E2208831C22820002003031DB828003077
:101160001E0070301E009431E1248831240091006B
:10117000AA3020002006031DC0285530240091000D
:101180002000BA010000DF28941EC228941EDF2828
:10119000023020002006031DDC28BA0124001516A9
:1011A0009431D2248831AA301E0000301E007030E5
:1011B0001E0096314226010000002000BA0A2400D9
:1011C000151608004131FF3F23292000B801B80A55
:1011D000342902302000B80034297308B9000F29DF
:1011E0003908EC3EFE00FF012330FF3D7E088400FD
:1011F0007F08850073088000B90A80303902031C1B
:101200000F29B9010F2920003808003A0319F028E6
:10121000013A0319ED28033A03190F29F028B80100
:10122000342920003908EC3E840085012330853DB7
:101230000008240091002000B90A80303902031C04
:101240003429B90134297F3F003A0319E528013ACE
:1012500003191129033A03190329013A03193429FF
:10126000073A0319E92834297F3108004131FF3F4B
:101270007F3F03195A29873113278931003A031D0B
:10128000452901308731F2278931A13021008E00B4
:101290000000000020008E100000000020000E154D
:1012A000000000002000EE01953111258931200059
:1012B0000E1695297F3F031D952920000E1700006B
:1012C000E13021008E0064301E0000301E00973196
:1012D0002A2789316F296D08031D7229000020001B
:1012E0000E1B6B29000020008E140000000020005F
:1012F0000E110000000020006D08031D8E29303003
:101300001E0075301E0097312A27893100003030C9
:101310001E0075301E0097312A27893120000E12D9
:10132000ED01EE01EE0A9531D5257F3108004831F7
:101330000030FC3FFD3FFE3FFF3F763FFE00773F22
:10134000FF007E08FC007F08FD000030FD1BFF3021
:10135000FE00FF007C3FF8007D3FF9007E3FFA0071
:101360007F3FFB007F087B02031DC0297E087A02B5
:10137000031DC0297D087902031DC0297C0878025D
:101380000318FC290030F83FF93FFA3FFB3F00000B
:1013900000000000000006088400070885003831BE
:1013A0000130800701310030803D01310030803D47
:1013B00001310030803D7B3F031DEB297A3F031D47
:1013C000EB29783FF40020307402793FF4000330B9
:1013D000743B031CC72906088400070885003C31BC
:1013E0000130800701310030803D01310030803D07
:1013F00001310030803D9D29763108007D3FFD00A0
:101400007E3FFE007F3FFF00FF1F1E2A7D3FFD0045
:101410007E3FFE007F3FFF000030FA000030FB00FF
:101420008030FC007D08FA027E08FB3B7F08FC3B15
:101430007A08FD3F7B08FE3F7C08FF3F7A3FFD00B6
:101440007B3FFE007C3FFF00FF1F3E2A7A3FFD00EE
:101450007B3FFE007C3FFF000030FA000030FB00C5
:101460008030FC007D08FA027E08FB3B7F08FC3BD5
:101470007A08FA3F7B08FB3F7C08FC3F0030FD0008
:101480000030FE008030FF007D3F7D06FD3F7E3F47
:101490007E06FE3F7F3F7F06FF3F0030FD000030AD
:1014A000FE008030FF007A3F7D06FA3F7B3F7E06DC
:1014B000FB3F7C3F7F06FC3F7F3FF4007C3F740294
:1014C000031D6C2A7E3FF4007B3F7402031D6C2ACF
:1014D0007D3FF4007A3F7402031C03107A31080048
:1014E0000034013402340334043405340634073440
:1014F000083409340A340B340C340D340E340F34F0
:10150000103411341234133414341534163417349F
:10151000183419341A341B341C341D341E341F344F
:1015200020342134223423342434253426342734FF
:10153000283429342A342B342C342D342E342F34AF
:10154000303431343234333434343534363437345F
:10155000383439343A343B343C343D343E343F340F
:1015600040344134423443344434453446344734BF
:10157000483449344A344B344C344D344E344F346F
:10158000503451345234533454345534563457341F
:10159000583459345A345B345C345D345E345F34CF
:1015A000603461346234633464346534663467347F
:1015B000683469346A346B346C346D346E346F342F
:1015C00070347134723473347434753476347734DF
:1015D000783479347A347B347C347D347E347F348F
:1015E00047310030F93FFA3FFB3F0030FC3FFD3F01
:1015F000FE3F8E3123268A31003A03196F2BC40136
:101600000030FF3F8D3160258A3100301E000030F0
:101610001E0000301E00763F1E00763F1E00763F03
:101620001E008931FE218A3103182B2B793F1E00C1
:10163000793F1E00793F1E0000301E0080301E00E2
:10164000BF301E008C31B5248A317408F93F75080B
:10165000FA3F7608FB3F793F1E00793F1E00793F35
:101660001E00793F1E00793F1E00793F1E00893120
:10167000FE218A310318422B793FFC3F7A3FFD3F20
:101680007B3FFE3F793F1E00793F1E00793F1E00E1
:1016900000301E0040301E0040301E008931FE2107
:1016A0008A31031C552B00005E2B03302000E9001B
:1016B0007030EA000930C50000306F2B7F3F013EDB
:1016C000FF3F7F3FFF0013307F02031C022B0330DC
:1016D0002000E9007030EA00C501C50A0130793107
:1016E00008007C3F03197C2B7F3FF4007E3FF4040D
:1016F0007D3FF404031D8C2BF401F501F6010D2C44
:101700007C3F013EFC3F7F3F8936FF3F7E3F890C97
:10171000FE3F7D3F890CFD3F7D3FFD007E3FFE008B
:101720007F3FFF00FE307F050319B02B802B7C3FED
:10173000013EFC3F06088400070885003D3101306A
:10174000800701310030803D01310030803D7F3F16
:101750008936FF3F7E3F890CFE3F7D3F890CFD3F70
:101760007D3FFD007E3FFE007F3FFF00FF307F0595
:101770000319D02B972B7C3FFF0002307F02031C04
:10178000D32B7C3FF40001307402FC3F0608840038
:10179000070885003D3180350131800D0131800D14
:1017A0007E3F891FBB2B7C3F0918E52BFF30FD00D6
:1017B0007F30FE00FF30FF007D3F7D05FD3F7E3F17
:1017C0007E05FE3F7F3F7F05FF3F7C3F8936FC3F24
:1017D0007C3FFF00FE01FD017D3F7D04FD3F7E3F1C
:1017E0007E04FE3F7F3F7F04FF3F7B3F0319072CB2
:1017F0000030FD000030FE008030FF007D3F7D04A2
:10180000FD3F7E3F7E04FE3F7F3F7F04FF3F7D3FE5
:10181000F4007E3FF5007F3FF6007B310800463143
:10182000743FFD00753FFE00763FFF0003107E0D04
:101830007F0DFE3F890803192A2C773FFD00783F72
:10184000FE00793FFF0003107E0D7F0DFD3F8908EC
:10185000031D2E2CF401F501F601B32C0030FA3FE4
:10186000FB3FFC3F7D3FFF008930FF077E3FF400D8
:101870007F087402FE3F763FFD3FF9300607840083
:10188000FF30073D85007D3FF40000087406FD3FF2
:101890007D3F8039FD3F753F8917F53F0030F63FAA
:1018A000783F8917F83F0030F93F1830FF3F0608AE
:1018B0008400070885003A3180350131800D0131FF
:1018C000800D763FF400793F7402031D712C753F43
:1018D000F400783F7402031D712C743FF400773FCD
:1018E0007402031C962C773FFD00783FFE00793F81
:1018F000FF00060884000708850034317D08800257
:1019000001317E08803B01317F08803B3E31013050
:10191000FD000030FE000030FF007A3F7D04FA3FFA
:101920007B3F7E04FB3F7C3F7F04FC3F0608840036
:1019300007088500343180350131800D0131800D7B
:101940007F3FF40001307402FF3F031D572C7D3FA1
:101950001E007D3F1E00783F1E00783F1E00783F2E
:101960001E008B317123743108004631773FFD0032
:10197000783FFE00793FFF0003107E0D7F0DFF3F93
:1019800089080319D02C743FFD00753FFE00763F97
:10199000FF0003107E0D7F0DFD3F8908031DD42C31
:1019A000F401F501F6015E2D7D3FFF007B30FF075E
:1019B0007F3F7F07FF3F793FFD3FF63006078400FA
:1019C000FF30073D85007D3FF40000087406FD3FB1
:1019D0007D3F8039FD3F783F8917F83F753F891774
:1019E000F53F0030F63F0030FA3FFB3FFC3F073049
:1019F000FE3F773F091C0B2D7A3FF400743F7407BC
:101A0000FA3F7B3FF400753F743DFB3F7C3FF400A1
:101A1000763F743DFC3F793F8936F93F783F890C2A
:101A2000F83F773F890CF73F0608840007088500D8
:101A3000343180350131800D0131800D7E3FF4005D
:101A400001307402FE3F031DF92C0930FE3F773F41
:101A5000091C392D7A3FF400743F7407FA3F7B3F2D
:101A6000F400753F743DFB3F7C3FF400763F743DCE
:101A7000FC3F793F8936F93F783F890CF83F773F43
:101A8000890CF73F7C3F8936FC3F7B3F890CFB3F4D
:101A90007A3F890CFA3F7E3FF40001307402FE3F2A
:101AA000031D272D7D3F1E007E3F1E00783F1E0038
:101AB000783F1E00783F1E008B317123743108007F
:101AC0004531FB300607FE00FF30073DFF007E0872
:101AD000FE3F7F08FF3F20006908023EFE00003005
:101AE0006A3DFF007E081E007F081E009431E1243D
:101AF0008D31FD00FE01FF017E3F84007F3F8500A8
:101B00007D08803F7E08813F7F08823F7E3F8400C2
:101B10007F3F8500003FFD00013FFE00023FFF00C8
:101B20007E08FF007D08FE00FD017E3F84007F3FB0
:101B300085007D08803F7E08813F7F08823F7E3F91
:101B400084007F3F8500003FFD00013FFE00023F13
:101B5000FF0020006908013EFA0000306A3DFB00EA
:101B60007A081E007B081E009431E1248D31FA00B2
:101B7000FB01FC017A08FD047B08FE047C08FF04DD
:101B80007E3F84007F3F85007D08803F7E08813F47
:101B90007F08823F7E3F84007F3F8500003FFD003D
:101BA000013FFE00023FFF007E08FF007D08FE00AF
:101BB000FD017E3F84007F3F85007D08803F7E08D9
:101BC000813F7F08823F7E3F84007F3F8500003F4A
:101BD000FD00013FFE00023FFF00200069081E00DB
:101BE0006A081E009431E1248D31FA00FB01FC01EA
:101BF0007A08FD047B08FE047C08FF047E3F840015
:101C00007F3F85007D08803F7E08813F7F08823FBF
:101C100003302000E9070318EA0A7B3F1E007B3FE0
:101C20001E007B3F1E0000301E0080301E003F3033
:101C30001E008C310F247B3FF4007C3FF5007D3F7C
:101C4000F6007B3108004C310130FF3F3730FD009A
:101C50000630FE003C30FF007D08FA3F7E08FB3F67
:101C60007F08FC3F3830FD000630FE003430FF00B6
:101C70007D08F73F7E08F83F7F08F93F1230FD00EE
:101C80000330FE003C30FF007D08F43F7E08F53F46
:101C90007F08F63F6C30FE002430FF007E08FD3FD9
:101CA0007F08FE3F0230200045060319EC2E430852
:101CB00003195D2E94314D248E3141080319522EA3
:101CC0003308023EFE000030343DFF007E081E0057
:101CD0007F081E009531A6258E3174081E007508F8
:101CE0001E0076081E00743F1E00743F1E00743FE5
:101CF0001E008C31B5248E3174081E0075081E003C
:101D000076081E00200035081E0036081E0095319A
:101D1000A6258E3174081E0075081E0076081E0068
:101D2000743F1E00743F1E00743F1E008C31B524AA
:101D30008E3174081E0075081E0076081E0085315D
:101D4000B7258E317D3F84007E3F85007408803F3B
:101D50007508813F7608823F7F3F013EFF3F743F19
:101D60001E00743F1E00743F1E007A3F84007B3FBC
:101D70008500003F1E00013F1E00023F1E0089310A
:101D8000FE218E31031CE02E2000C401C40A000095
:101D900000002000901297315A278E3194319424FC
:101DA0008E31000000007F3FFF00FF30FF077F08FB
:101DB0007F077F072000B700C301C1014408ED2E53
:101DC0002000C1017D3F033EFD3FF4017E3F743D95
:101DD000FE3FB501B601522E0130743108002000DB
:101DE00091112400951FDB2F95132000C0013D08A1
:101DF000023E84008501003FFE00013FFF007E0897
:101E000084007F0885008001800ABD010800A918B0
:101E100008002808BD002808840085010008BF00CC
:101E2000280884008501013FBE000430A807280867
:101E3000563A031D1D2F5230A800291028082706E6
:101E40000319A9142400161402302000C000080051
:101E5000932F2400161F322F2000AB0A0430963136
:101E6000242608007208FF007108FE00FF36FE0CF1
:101E70007E089100711C402F0B302000C00008002C
:101E800003302000C00008002400161F4D2F200042
:101E9000AB0A0430963124260800961406307205E9
:101EA000FF00F0307F04F1000030F20071142000D8
:101EB000BB01BB0A242F3B030319722F3E08840089
:101EC0008501003FF100013FF2003E08033E84001F
:101ED0008501003FAF00013FB0003E08840085014E
:101EE000023FBC00710824009100711C402F053096
:101EF0002000C00008002400161F862F2000AB0A17
:101F00002400161305309631242608002000BC0357
:101F10003C0A031D962F0530BE07BF0B932F0030E0
:101F200096312426080024009614242F2F088400BC
:101F3000300885000008240091002000AF0A031932
:101F4000B00A08002400161FAD2F2000AB0A043091
:101F50009631242624001613080096150830200018
:101F6000C00008000830C0002400961508002F08A3
:101F70008400300885002400110880002000AF0A8A
:101F80000319B00ABC030319CB2F240096120630A4
:101F90002000C000CF2F240096169431AF242400D7
:101FA000161608000030963124260800AB0A0630C9
:101FB00096312426080020004008003A0319072F14
:101FC000013A0319282F033A03195B2F013A031929
:101FD0007B2F073A0319D22F013A0319A22F033A94
:101FE0000319B22F013A0319D22F0F3A0319B72F51
:101FF000023A0319292F013A0319442FD62F08005A
:10288000080008000800553420001F11080020002F
:102890001B1408002000950108002000971708006D
:1028A00016302100970008002700131E08009531FC
:1028B000BD25080020009110000020001F15080011
:1028C0000334703402347034013401347E3F20000C
:1028D000D8007F3FD9007E3108007E3F2000DC0019
:1028E0007F3FDD007E3108007E3F2000D6007F3F25
:1028F000D7007E31080020001B087F3F9A007E3FF2
:1029000099007E31080020005E081E005F081E004E
:1029100094317B24080020001B100000000094313B
:102920008324B101B20108002000971300000000C9
:1029300094314A24B501B6010800013021009D0000
:10294000E0309E009F019B019C0108006030320036
:1029500099009B019D0107309F009E0108000530F2
:102960002000BE07BF0BB72C0430C0000800C00118
:10297000C00A08006400800101310130F402003017
:10298000F53B7508740403190034BB2CF4001200E5
:102990001E000130F4020030F53B75087404031981
:1029A0000034C72CB8301E000B301E009631FA26BA
:1029B00094310000B8301E000B301E009631FA260C
:1029C00008007E3F310091007F3F920015171514DB
:1029D0000000000000000000310013087E310800F4
:1029E000FF3020009E009D01911021009110423087
:1029F0001E0014301E009431742406309F0008001D
:102A000070080319052DF0010A2D7008031D0A2D09
:102A1000F001F00A70088931362109302000C50024
:102A20000800C030240094002630950080309600C5
:102A300008309700FE309300103092002000911172
:102A40002100911508008330250093009401920124
:102A5000910100301E0000301E0085310225FC303F
:102A600025009F05200014102100141408000330D5
:102A70002000C2008E140000000020000E155C082B
:102A80005D04031908005D08FF005C08FE007F0874
:102A90008A007E080A0095310800200011105E08A7
:102AA0001E005F081E0094317B249531B10A031982
:102AB000B20A01303202773003193102031C0800D8
:102AC0009531372508005030200098009601950177
:102AD0001608DB00DA011508DA04901221009016BE
:102AE00040301E0014301E00943166249030970050
:102AF0000800203020009C009A0199011A08DF008C
:102B0000DE011908DE0411102100111441301E00ED
:102B100014301E0094316D2401309B000800200009
:102B20009012B50A0319B60A5B0896005A08950078
:102B300058085904031908005908FF005808FE00F6
:102B40007F088A007E080A009531080000301E00C8
:102B50008E301E007C3FFE007D3FFF007E08FD00A2
:102B60007F08FE00FF017D081E007E081E007F0812
:102B70001E008B3171237E31080014301E0000309E
:102B80001E0089319721953120000C1ECB2DC701E5
:102B9000C601C60AD02D0C1AD02DC601C701C70A1E
:102BA0000230C50027001312080052302000A80090
:102BB0005230A700A9142910AB01C03024009400A2
:102BC00028309500083097000330920020009111C2
:102BD000111121009115111508008831002095313F
:102BE0009731C32795319431A624953194315024DF
:102BF000953194319D249531953123259531953129
:102C0000632595319531792595319431F02408006B
:102C1000200091100000943144249631000094313A
:102C20005A249631000005302000C500560857048C
:102C3000031908005708FF005608FE007F088A00A5
:102C40007E080A00963108004131FF3F2400161526
:102C500020003D08023E8400850112000004031993
:102C60003F2E3D08023E84008501003FFE00013FEB
:102C7000FF007E0884007F0885007F3F8000C00140
:102C80007F3108008B137F3F310092007E3F91001F
:102C90007D3F930015170000310015155530960043
:102CA000AA3096009514562E0000000031009518A9
:102CB000542E0000000031001511000000008B1799
:102CC0007D310800200014100330450603196A2ED8
:102CD0000430C50044080319702EB501B601080080
:102CE0004308031D782EC301C30A0530C200080043
:102CF00094314A24250012082000B4002500110850
:102D00002000B300C101C10A08004131FF3F21008A
:102D10001D1000007F3FFF00FF0DFF0D21001D086B
:102D20007F0603397F069D00000021001D140D3031
:102D3000890B982E000021009D14000021009D1C8D
:102D4000A42E000000009E2E1C08F5001B08F400B5
:102D50007F310800413100301E0070301E00943178
:102D6000E1249631FF3F7F3FAA3A031DC02EFF307A
:102D70001E0000301E0070301E0096314226963133
:102D800094319424963194318B249631F00170085B
:102D90008931362109302000C500C2017F31080089
:102DA00041310030FF3F7E3F891FE32E7E3FF4001C
:102DB000F4097D3F8909890A0319F40AFD3F740863
:102DC000FE3F0130FF3F7F3F1E008E301E007B3FE5
:102DD000FE007C3FFF007E08FD007F08FE00FF0133
:102DE0007D081E007E081E007F081E008B317123A7
:102DF0007D31080044310030FC3FFD3F0030FE3F94
:102E0000FF3F7B3FF4007F3F7402031D0B2F7A3F8F
:102E1000F4007E3F7402031C162F00007E3F013E2B
:102E2000FE3FF4017F3F743DFF3F012F7C3F013E99
:102E3000FC3FF4017D3F743DFD3F7C3FFE007D3F44
:102E4000FF0003307F02E93003197E02031CFE2ECF
:102E50007A31080044310030FC3FFD3F0030FE3F36
:102E6000FF3F7B3FF4007F3F7402031D3B2F7A3FFF
:102E7000F4007E3F7402031C462F00007E3F013E9B
:102E8000FE3FF4017F3F743DFF3F312F7C3F013E09
:102E9000FC3FF4017D3F743DFD3F7C3FFE007D3FE4
:102EA000FF0000307F02653003197E02031C2E2FC5
:102EB0007A31080043312000B501B6010030FD3FF2
:102EC000FE3FFF3F901E702F0030FD3FFE3FFF3F53
:102ED000003036023C300319350203188A2F901255
:102EE00006088400070885003D3101308007013164
:102EF0000030803D01310030803D3E31003FFF3ADF
:102F0000031D882F013FFF3A031D882F023F023A1D
:102F1000031D622F7D3108009531ED2597319631E3
:102F2000AA2697318B170B17B32F953100259731B0
:102F3000B32F883108209731B32F88315020973133
:102F4000200044080319B32FC401700889313621C9
:102F5000973109302000C500B32F8A31F022973114
:102F6000003A031DC4014508013A0319952F033A9D
:102F70000319992F013A03199D2F073A0319AD2F11
:102F8000B32F8531762D22008C018D0101308E000A
:102F9000373021008C00F0308D00E1308E002300AE
:102FA0008E01E0308D0021308C0024008D018C01D9
:102FB0008E0125008C018D018E01373026008C009A
:102FC000F0308D00FF308E003F3027008C00F03055
:102FD0008D00FF308E0013121216111619303D00AD
:102FE000A00002303C00A00018303D0092001030DC
:102FF0003C00A100210010160C303C009400080099
:00000001FF
