:020000040000FA
:100A000085314F2D023470347E1485312100901EC3
:100A1000102D2000901E102D9531552585314D2D1E
:100A20002100101E1A2D2000101E1A2D9331EE23C6
:100A300085314D2D0B1F4D2D2100141C262D20001E
:100A4000141C262D9631EC2685314D2D2100911D4B
:100A50003B2D2000911D3B2D21006A08031D342DE4
:100A60008831E22085314D2D6A0803194D2D8531DD
:100A70009A2585314D2D2100911C452D2000911C7A
:100A8000452D95316D2585314D2D2100111C4D2DA4
:100A90002000111C4D2D9531F3257E100900853164
:100AA000512DB53084008A308500EC30860023302B
:100AB00087000030FF0080308831012085313830D8
:100AC000840094308500E2308600003087000030DA
:100AD000FF0009308831012085312200853102254F
:100AE0008531D500853103258531D6006C308400F1
:100AF000243085008430FE000330FF0094316C24E4
:100B00008531A0308400003085003030FE00003098
:100B1000FF0094316C248531203084000130850041
:100B20001F30FE000030FF0094316C247E10200046
:100B30009731C52F200091112400951FB12E9513D8
:100B40002100C2013F08023E86008701010886009D
:100B500087018101810ABF010800A218080021084D
:100B6000F2007208BF002108860087010108F20028
:100B70007208C100210886008701413FC000033090
:100B8000F2007208A1072108CE3A031DCB2DCB300D
:100B9000F2007208A1002210210820060319A214F5
:100BA000240016140230F20072082100C20008006E
:100BB0005A2E2400161FE52D0130F2007208210084
:100BC000A407043095313D25080021004F08F300AB
:100BD0004E08F200F336F20C720824009100210056
:100BE0004E1CF72D0B30F2007208C20008000330D3
:100BF000F2007208C20008002400161F082E0130FF
:100C0000F20072082100A407043095313D25080048
:100C10009614063021004F05F200F0307204CE0029
:100C20000030CF004E14BC01BC0AD22D3C03031986
:100C30002F2E4008860001308700403FCE00413F04
:100C4000CF0040088600013087000130433FBE00DE
:100C500040088600013087000130423FBD004E0849
:100C60002400910021004E1CF72D0530F20072087F
:100C7000C20008002400161F482E0130F20072083E
:100C80002100A40724001613053095313D250800E6
:100C900001302100BD023D0A031D5D2E0430F2002B
:100CA0007208C0070130C102031D5A2E0030953171
:100CB0003D25080024009614D22D3E0886008701A9
:100CC0000108240091000130F20072082100BE07E3
:100CD00008002400161F772E0130F2007208210050
:100CE000A407043095313D252400161308009615FD
:100CF0000830F20072082100C20008000830F2003B
:100D00007208C20024009615080024001108F200A1
:100D100021003E0886008701720881000130F20040
:100D20007208BE070130BD0203199E2E24009612E0
:100D30000630F20072082100C200A22E240096168E
:100D40009431A524240016160800003095313D2565
:100D500008000130F2007208A407063095313D25E5
:100D6000080021004208003A0319AD2D013A031989
:100D7000D82D033A0319162E013A03193A2E073AD1
:100D80000319A52E013A0319692E033A03197E2E81
:100D9000013A0319A52E0F3A0319852E023A0319B9
:100DA000D92D013A0319FC2DA92E0800333021005A
:100DB000D6005330D7003B30D8004030DF001C3025
:100DC000E0004630E1004030DC001C30DD00463001
:100DD000DE005C082000AD0021005D082000AE00B0
:100DE00021005E082000AF0021005F082000B00055
:100DF000210060082000B100210061082000B2003D
:100E00008D31F12586312D08C0002E08C1002F0834
:100E1000C2000030D000B030D1004030D2002100FC
:100E20005F082000D300210060082000D4002100CA
:100E300061082000D5008B31C42386315008C300DF
:100E40005108C4005208C5008B3135238631400853
:100E50002100D000200041082100D10020004208DC
:100E60002100D2005C082000AD0021005D082000B8
:100E7000AE0021005E082000AF0021005F082000C6
:100E8000B000210060082000B100210061082000AE
:100E9000B2008D31F12586312D08C0002E08C10029
:100EA0002F08C200CD30D0009C30D1004030D2009D
:100EB00021005F082000D300210060082000D4003A
:100EC000210061082000D5008B31C42386315008F1
:100ED000C3005108C4005208C5008B313523863148
:100EE00040082100D300200041082100D400200048
:100EF00042082100D50056082000D00021005708E4
:100F00002000D100210058082000D2000F30973176
:100F1000132786312208AA002108A9009431EB2466
:100F200086312908D3002A08D4002B08D5008B313C
:100F3000C423863150082100A5002000510821005B
:100F4000A600200052082100A70053082000A90095
:100F5000210054082000AA00210055082000AB0001
:100F6000210025082000AC00210026082000AD004B
:100F7000210027082000AE0097316827863103182A
:100F8000C32F0130C42F0030E000E1016008AF0042
:100F90006108B0009631A92686312F082100D900BA
:100FA000200030082100DA00200031082100DB0099
:100FB00059082000A90021005A082000AA00210099
:100FC0005B082000AB00210050082000AC0021008D
:100FD00051082000AD00210052082000AE009731DA
:100FE000682786310318F62F01300800003008000A
:100FF00022082200CE00200021082200CD00080097
:101000000800FE0012001E000130FE020030FF3B0F
:101010007F087E0403190034022822008C018D0110
:1010200001308E00373021008C00F0308D00E1302F
:101030008E0023008E01E0308D0021308C002400D2
:101040008D018C018E0125008C018D018E013730C0
:1010500026008C00F0308D00FF308E003F302700DE
:101060008C00F0308D00FF308E0013121216111616
:1010700019303D00A00002303C00A00018303D00B7
:10108000920010303C00A100210010160C303C00F2
:10109000940008000030F9000030F8000030F7003C
:1010A0000030F6007008F2007108F3000030F31B06
:1010B000FF30F400F50075087902031D69287408F3
:1010C0007802031D692873087702031D69287208D6
:1010D0007602031808000030FD000030FC000030EC
:1010E000FB000030FA0000000000000000000130AA
:1010F000FA070030FB3D0030FC3D0030FD3D7D082F
:10110000031D8B287C08031D8B2820307A020330B6
:101110007B3B031C73280130F6070030F73D00309D
:10112000F83D0030F93D52288D311A258831003ABA
:10113000031908006C302000E3002430E400013083
:10114000A1007030A200AA30E2006208A30096312C
:10115000C926883102302000A1007030A200210091
:1011600036082000E2006208A3009631C9268831C3
:101170002000E501650821003602031CE028630811
:101180002000A200210062082000A1006308860060
:10119000640887000108E2006208A3009631C926AE
:1011A000883101302100E2070030E33D01302000AA
:1011B000E3070030E43D0130E2006208E507BA28A9
:1011C000000008002000911124001108F600210001
:1011D0003B08203E8600013087007608810024000D
:1011E000141D1329941A161FFA28033089318C21F3
:1011F0008831112922002003031D07290030F00047
:101200007030F10094317824883124009100AA30A4
:1012100022002006031D0F295530240091002100D3
:10122000BB0100003429941E1129941E3429023078
:1012300022002006031D2E292100BB0124001516C3
:101240009431862488310030F0007030F100AA30EB
:10125000F6007608F20096314C26010000000130BD
:10126000F60076082100BB072400151608002100AF
:101270004A0803193E299331E1230800490803195C
:101280004F290330440603194F299431412420008B
:1012900011102100CA01C901C801C80A0800490883
:1012A0000319702903304406031D702901302B02F5
:1012B000773003192A0203187029943141248931A7
:1012C000200011102100CA01C901C40133088A316C
:1012D0004C2209302000E40064082100C800080006
:1012E00049080319080003304406031D08000130B3
:1012F0002B02773003192A02031C08009431412481
:10130000200011102100CA01C90103302000E400AF
:1013100064082100C8000800F200D6292100B801A5
:10132000B80A08000230F00070082100B800080078
:101330006908F0007008B900BF293908EC3EF000D8
:10134000F1012330F13D70088600710887006908BB
:1013500081000130F0007008B90780303902031CA9
:10136000BF29B901BF2921003808003A03199D2976
:10137000013A03199829033A0319BF299D29B80195
:10138000080021003908EC3E860087012330873DA4
:101390000108240091000130F00070082100B90715
:1013A00080303902031C0800B90108007208003AB5
:1013B00003198E29013A0319C129033A0319B329E4
:1013C000013A0319E729073A03199229E729080086
:1013D00024080319F029230822042104031D012AEB
:1013E0000030A1000030A2000030A300080001304E
:1013F000A6002608A4070130A336A20CA10C890B75
:10140000FC29FE30230503191A2AF7290130A6000A
:101410002608A4070130A107003003180130A207F5
:10142000003003180130A3070130A336A20CA10C31
:10143000890B152AFF30230503192B2A062A0230AF
:101440002402031C2D2A0130A4020130A135A20D73
:10145000A30D890B262AA21F1F2A2418352AFF3024
:10146000A1057F30A205FF30A3050310A40C2408BA
:10147000A600A701A8011030A635A70DA80D890B5D
:101480003C2A2608A1042708A2042808A30425084A
:1014900003190800A31708002000E30063080319DC
:1014A0006F2A8631D6268A31003A031D5B2A013025
:1014B000943160248A31A13021008E0000000000A8
:1014C00020008E100000000020000E15000000001B
:1014D0002100EA019431C72420000E160800630899
:1014E000031D08005530E20062082100E8002000DA
:1014F0000E170000E13021008E0064302000A100B2
:101500000030A20096318A268A318B2A2100670892
:10151000031D8E2A000020000E1B862A00002000DA
:101520008E140000000020000E11000000002100B9
:101530006708031DAC2A30302000A1007530A200DE
:1015400096318A268A31000030302000A1007530A3
:10155000A20096318A268A3120000E122100E7016E
:10156000EA01EA0A96316B2608000034013402349D
:1015700003340434053406340734083409340A3497
:101580000B340C340D340E340F3410341134123447
:1015900013341434153416341734183419341A34F7
:1015A0001B341C341D341E341F34203421342234A7
:1015B00023342434253426342734283429342A3457
:1015C0002B342C342D342E342F3430343134323407
:1015D00033343434353436343734383439343A34B7
:1015E0003B343C343D343E343F3440344134423467
:1015F00043344434453446344734483449344A3417
:101600004B344C344D344E344F34503451345234C6
:1016100053345434553456345734583459345A3476
:101620005B345C345D345E345F3460346134623426
:1016300063346434653466346734683469346A34D6
:101640006B346C346D346E346F3470347134723486
:1016500073347434753476347734783479347A3436
:101660007B347C347D347E347F344308C6004408A8
:10167000C7004508C8000310470D480DC9004908B8
:10168000CE004E08031D4B2B0030C0000030C100BF
:101690000030C20008004008C6004108C7004208E8
:1016A000C8000310470D480DC9004908CF004F0876
:1016B000031D612B0030C0000030C1000030C200AB
:1016C00008000030CB000030CC000030CD00893065
:1016D0004F07C6004608CE024508C6004608CF00A0
:1016E0004208C6004608CF068030C6004608CF052F
:1016F000C417FF30C305FF30C4050030C505C1174E
:10170000FF30C005FF30C1050030C2051830C600EB
:101710004608CA000130CB35CC0DCD0D890B8B2B83
:1017200042084502031D9A2B41084402031D9A2BCF
:1017300040084302031CA32B4008C3024108C43BDA
:101740004208C53B4B140130C335C40DC50D890B90
:10175000A42B0130CA02031D8A2B4B08A1004C08A0
:10176000A2004D08A3004E08C6004608A4004F087A
:10177000C7004708A5008931E8212108C0002208D8
:10178000C1002308C20008005008D6005108D70045
:101790005208D8000310570D580DD9005908DA0027
:1017A0005A08031DDA2B0030D0000030D100003081
:1017B000D20008005308D6005408D7005508D800B6
:1017C0000310570D580DD9005908DF005F08031D9D
:1017D000F02B0030D0000030D1000030D2000800E3
:1017E0005F087B3ED6005608DA075208D600560836
:1017F000DF005508D6005608DF068030D6005608B0
:10180000DF05D117D417FF30D305FF30D4050030E2
:10181000D5050030DB000030DC000030DD00073093
:10182000D6005608DE00501C1B2C5308DB0754085A
:10183000DC3D5508DD3D0130D236D10CD00C890B92
:101840001C2C0130D335D40DD50D890B222C013041
:10185000DE02031D132C0930D6005608DE00501C92
:10186000372C5308DB075408DC3D5508DD3D0130BB
:10187000D236D10CD00C890B382C0130DD36DC0C83
:10188000DB0C890B3E2C0130DE02031D2F2C5B0884
:10189000A1005C08A2005D08A3005A08D600560803
:1018A000A4005F08D7005708A5008931E821210866
:1018B000D0002208D1002308D20008005C302000AC
:1018C000D3005308DF0021006208023E2000A1007F
:1018D00000302100633D2000A200943195248C311A
:1018E0002000D300D401D5015F088600870153088A
:1018F000C03F5408C13F5508C23F5F0886008701BA
:10190000403FD300413FD400423FD5000830D3359B
:10191000D40DD50D890B872C5F08860087015308ED
:10192000C03F5408C13F5508C23F5F088600870189
:10193000403FD300413FD400423FD5002100620820
:10194000013E2000A10000302100633D2000A200E4
:10195000943195248C312000D600D701D801560847
:10196000D3045708D4045808D5045F0886008701BB
:101970005308C03F5408C13F5508C23F5F08860066
:101980008701403FD300413FD400423FD50008309B
:10199000D335D40DD50D890BC82C5F08860087017F
:1019A0005308C03F5408C13F5508C23F5F08860036
:1019B0008701403FD300413FD400423FD500210082
:1019C00063082000A200210062082000A1009431D9
:1019D00095248C312000D600D701D8015608D304B5
:1019E0005708D4045808D5045F08860087015308B7
:1019F000C03F5408C13F5508C23F21006208033E62
:101A0000E2000030633DE30000302000C000803081
:101A1000C1003F30C2005C08C3005D08C4005E081E
:101A2000C5008B3135235C08D0005D08D1005E080D
:101A3000D20008002100DE01DE0A3730D500063072
:101A4000D6003C30D7003830D8000630D9003430CA
:101A5000DA001230DB000330DC003C30DD006C309B
:101A6000DF002430E000023048060319EF2D45085E
:101A700003193D2D9331E7238D31210043080319CC
:101A8000332D55082000D000210056082000D10039
:101A9000210057082000D20021002F082000AA00B2
:101AA00021002E082000A9009431EB248D31290853
:101AB000D3002A08D4002B08D5008B31C4238D31E4
:101AC0005008AD005108AE005208AF002100580880
:101AD0002000D000210059082000D10021005A0820
:101AE0002000D20021002C08023E2000A900003076
:101AF00021002D3D2000AA009431EB248D312908CE
:101B0000D3002A08D4002B08D5008B31C4238D3193
:101B10005008B0005108B1005208B2008D31F125D3
:101B20008D3121005F0886006008870020002D08A5
:101B3000C03F2E08C13F2F08C23F0130E0006008BF
:101B40002100DE075F08860060088700403F200014
:101B5000A900413FAA00423FAB0021005B082000E2
:101B6000AC0021005C082000AD0021005D082000D1
:101B7000AE00973168278D31031CDF2D2100C6018F
:101B8000C60A0000000020009012973195278D3181
:101B900094314B248D310000000003302000E00020
:101BA0006008A10021005E08FF3E9431D924E100C5
:101BB00061082100B600C501C301460808002100E4
:101BC000C3013508023E2000E00060082100B50096
:101BD0000330DF070030E03DAE01AF01332D0130AF
:101BE00008002D08B3002E08B4002F08B50003101C
:101BF000340D350DB6003608B9003008B300310891
:101C0000B4003208B5000310340D350DB6003608A7
:101C1000B80039080319182E3808390203181F2E86
:101C20003808B3003908B30219303302031C1F2EE1
:101C30003008AD003108AE003208AF0008003808A7
:101C4000031908003908380203182E2E3908B3008A
:101C50003808B30219303302031808000630B30005
:101C60003308B700AF1BB717B21B3717AE17FF30DB
:101C7000AD05FF30AE050030AF05B117FF30B00540
:101C8000FF30B1050030B2053808390203186A2E5A
:101C90000130B035B10DB20D890B492E0130B802BB
:101CA000380839060319652E0130B702370807399D
:101CB0000319652E482E0130AF36AE0CAD0C890BE2
:101CC0005C2E0130B3003308B90739083806031910
:101CD0008F2E5B2E3908380203188F2E0130AD3558
:101CE000AE0DAF0D890B6F2E0130B90238083906E1
:101CF00003198B2E0130B7023708073903198B2ED1
:101D00006E2E0130B236B10CB00C890B822E013030
:101D1000B3003308B80739083806031D812EB71FF2
:101D2000A12EFF30AD06FF30AE06FF30AF0601300A
:101D3000AD07003003180130AE0700300318013042
:101D4000AF07371FB32EFF30B006FF30B106FF30AC
:101D5000B2060130B007003003180130B10700307F
:101D600003180130B207B7012D08B0072E08B13DA6
:101D70002F08B23DB21FCE2EFF30B006FF30B106A5
:101D8000FF30B2060130B007003003180130B10750
:101D9000003003180130B207B701B70A3008A100BC
:101DA0003108A2003208A3003908B3003308A400A8
:101DB0003708B4003408A5008931E8212108AD00B6
:101DC0002208AE002308AF00080000302200C10046
:101DD0000030C2000030C3008D311A258E31003A28
:101DE00003190800C6016C302200C4002430C5006D
:101DF000C6018C315E248E3150082200C7002000BD
:101E000051082200C800200052082200C9000030FA
:101E10002000D0002030D1004130D20022004708FD
:101E20002000AD00220048082000AE002200490832
:101E30002000AF0022004408860045088700403F8C
:101E40002000B000413FB100423FB2008D31F1258A
:101E50008E312D08C0002E08C1002F08C2002200BC
:101E600047082000BA00220048082000BB002200DA
:101E700049082000BC00220044088600450887006D
:101E8000403F2000BD00413FBE00423FBF009531B2
:101E9000D7258E313A08C3003B08C4003C08C50072
:101EA0008B3135238E314008D3004108D4004208DD
:101EB000D5008B31C4238E3150082200CA00200087
:101EC00051082200CB00200052082200CC004A0812
:101ED0002000A90022004B082000AA0022004C0884
:101EE0002000AB000030AC000030AD000030AE0090
:101EF000973168278E3103189D2F0030D000803035
:101F0000D100BF30D20022004A082000D3002200B6
:101F10004B082000D40022004C082000D5008B3153
:101F2000C4238E3150082200CA002000510822002C
:101F3000CB00200052082200CC00220041082000E3
:101F4000A900220042082000AA0022004308200025
:101F5000AB0022004A082000AC0022004B08200001
:101F6000AD0022004C082000AE00973168278E316A
:101F70000318C12F22004A08C1004B08C2004C08B8
:101F8000C30000302000A9004030AA004030AB0060
:101F900022004A082000AC0022004B082000AD00BF
:101FA00022004C082000AE00973168278E31031CB8
:101FB000DB2F0000E82F03302100E2007030E30047
:101FC00009302000E20062082100C800003008004B
:101FD00003302200C4070030C53D01302000E2007C
:101FE00062082200C60713304602031CF92E033094
:101FF0002100E2007030E300C801C80A0130080087
:1027B2000800080020009501080020001F110800F1
:1027C20020001B1408002000950108002000971724
:1027D200080016302100970008002700131E080089
:1027E20096312E26080020009110000020001F15AF
:1027F20008001B0822089A002108990008002000FE
:102802001B0871089A0070089900080001309D00A9
:10281200E0309E009F019B019C01080022082200DB
:10282200D400200021082200D300080032009101C8
:102832009201930194019501960108002208220059
:10284200D000200021082200CF0008002208220028
:10285200D200200021082200D1000800603032009E
:1028620099009B019D0107309F009E0108000334DF
:1028720070341734043401340134AA345534013429
:1028820020001B1000000000943155242100AA01F1
:10289200AB01080020009713000000009331E423ED
:1028A2002100AE01AF01080021006E082000A20045
:1028B20021006D082000A1009331FA230800A10035
:1028C200632C622C2108013A0319622C033A031982
:1028D2006B2C6B2C08006400800101310130FE0278
:1028E2000030FF3B7F087E04031900346D2C710811
:1028F20031009200700891001517151400000000B5
:1029020000000000310013080800B830F0000B305E
:10291200F1009631102694310000B830F0000B30EF
:10292200F1009631102608002208310092002000A2
:102932002108310091001517151400000000000055
:1029420000003100130808000430F0007008210074
:10295200C0070130C102031DB32C0430F00070081F
:10296200C2000800C201C20A0800FF309E009D0199
:1029720091102100911000302000A1000830A20027
:102982008731F827063020009F000800C03024005D
:102992009400263095008030960008309700FE3073
:1029A200930010309200200091112100911508002F
:1029B2002000A400A301241CE22C2108A20022086A
:1029C200A3070310A10D0310A40C2408031DDC2C83
:1029D200230808002908A1002A08A200A3018E30BA
:1029E200AC002C08A400A5018931E8212108A90026
:1029F2002208AA002308AB0008000330F000700888
:102A0200C40020008E140000000020000E152200D9
:102A1200510852040319080052088A0051080A009A
:102A220095310800210033080319192DB3011E2D19
:102A32003308031D1E2DB301B30A33088A314C2219
:102A420009302000E40064082100C8000800833037
:102A52002500930094019201910100302000A10011
:102A62000030A20094310F24FC3025009F05200085
:102A72001410210014140800F1002400161521007E
:102A82003F08023E8600870101080319532D710891
:102A9200F0003F08023E8600870101088600870198
:102AA20070088100C2010800901201302100AE07B7
:102AB2000030AF3D6C082000960021006B0820001A
:102AC200950022004F0850040319080050088A009C
:102AD2004F080A0095310800911000009331DE235F
:102AE200953100009331F423953100000530F00058
:102AF20070082100C80022004D084E040319080086
:102B02004E088A004D080A009531080020309C00CA
:102B12009A0199011A082100EE00200019082100EB
:102B2200ED002000111021001114DA302000A10064
:102B32001330A20094312724013020009B000800AA
:102B42005030200098009601950116082100EC00F3
:102B5200200015082100EB002000901221009016A1
:102B6200D9302000A1001330A20094311F249030EC
:102B720020009700080094311724953188310D20E8
:102B8200953194312F2495319331EA239531943143
:102B9200072495319531282595319531A125953117
:102BA2009531872595319431B62408003C083B04C1
:102BB2003A040319DE2D8030BC063D08AD003E0804
:102BC200AE003F08AF003A08B0003B08B1003C0835
:102BD200B2008D31F1252D08BA002E08BB002F0856
:102BE200BC000800111021006E08F1006D08F00011
:102BF20094310024953101302100AA070030AB3D09
:102C020001302B02773003192A02031C0A2E943159
:102C1200FE2421002A08F2007208C7000800F4010D
:102C2200F501F201F30173087102031D1A2E7208F5
:102C32007002031C222E00000130F2070030F33D27
:102C4200142E0130F4070030F53D03307502E930EF
:102C52000319740203180800122E1430F000003019
:102C6200F10088314A20963120000C1E3D2E2100B1
:102C7200CA01C901C90A432E0C1A432E2100C901F7
:102C8200CA01CA0A02302000A00020082100C800A0
:102C92002700131208008B1371083100920070088C
:102CA2009100720893001517000031001515553078
:102CB2009600AA3096009514602E000000003100A4
:102CC20095185E2E00000000310015110000000072
:102CD2008B170800CB302000A10021082100A100A1
:102CE200CB302000A10021082100A000A214221054
:102CF200A401C030240094002830950008309700C9
:102D0200033092002000911111112100911511152B
:102D12000800A501A601A301A40124082202031DA3
:102D2200942E23082102031C9D2E00000130200056
:102D3200A3070030A43D8E2E0130A5070030A63D2A
:102D420000302602653003192502031808008C2E74
:102D5200B401B01FB32EAF09B009AF0A0319B00A0C
:102D6200B401B40A2F08A1003008A200A3018E30DA
:102D7200B2003208A4003408B3003308A500893138
:102D8200E8212108AF002208B0002308B1000800A2
:102D92008B1322083100920020002108310091009B
:102DA200200023083100930015170000310015158B
:102DB20055309600AA3096009514E12E00000000CE
:102DC20031009518DF2E00000000310015110000BF
:102DD20000008B1708001410033021004806031965
:102DE200F62E0430F0007008C80046080319FC2EC5
:102DF200AE01AF0108004508031D062FC501C50A33
:102E02000530F0007008C40008009331DB23250070
:102E120012082100AD00250011082100AC00C301F9
:102E2200C30A0800A40021001D100000200024088D
:102E3200A300A30DA30D21001D08200023060339C2
:102E4200230621009D00000021001D140D30890B76
:102E5200282F000021009D14000021009D1C342F0A
:102E6200000000002E2F1C082000A20021001B08D9
:102E72002000A10008000030A1007030A2009431AF
:102E8200952497312000E4006408E500AA30650625
:102E9200031D562F0030A1007030A200FF30E40065
:102EA2006408A3009631C926973194314B24973197
:102EB200943141249731B30133088A314C220930CD
:102EC2002000E40064082100C800C4010800AB1F10
:102ED200772F2908003CA9002A08031C2A0F003C6E
:102EE200AA002B08031C2B0F803CAB00AE1F862FC1
:102EF2002C08003CAC002D08031C2D0F003CAD003B
:102F02002E08031C2E0F803CAE008030AB068030B2
:102F1200AE062E082B02031D08002D082A02031DEF
:102F220008002C08290208002100AE01AF01003080
:102F32002000A1000030A2000030A300901EB12F9B
:102F42000030A1000030A2000030A30000302100B8
:102F52002F023C3003192E020318080020009012A1
:102F62000130A107003003180130A2070030031816
:102F72000130A307210A031D9F2F220A02300319E1
:102F82002306031908009F2F9531BC2597319731ED
:102F92003C2797318B170B17EF2F9531132597315C
:102FA200EF2F893137219731EF2F883194209731D4
:102FB200210046080319EF2FC60133088A314C223B
:102FC200973109302000E60066082100C800EF2F83
:102FD2008E31E5269731003A031DC60121004808CB
:102FE200013A0319CE2F033A0319D22F013A0319DA
:0E2FF200D62F073A0319E92FEF2F85314F2D07
:00000001FF
