:020000040000FA
:100C000086318B2E7E310800863174082000D0009A
:100C10007808D1007908D2007A08D3007B08D40084
:100C20007C08D5007D08D6007E08D7007F08D80054
:100C300030308600223087002100901E262E2000B2
:100C4000901E262E94317C248631772E2100101E92
:100C5000302E2000101E302E9231B7228631772E92
:100C60000B1F772E2100141C3C2E2000141C3C2E40
:100C700095311A258631772E2100911D652E200091
:100C80009119442E111D652E5F08031D4B2E8931CD
:100C9000A5218631772E5F080319772E2100111DBB
:100CA0005E2E2000111D5E2E3A08FF003908FE005E
:100CB0007F088A007E080A008631772E2100911D68
:100CC000772E20009119542E772E2100911C6F2E23
:100CD0002000911C6F2E9431DD248631772E210067
:100CE000111C772E2000111C772E94313A242000FD
:100CF0005808FF005708FE005608FD005508FC0084
:100D00005408FB005308FA005208F9005108F80093
:100D10005008F400090086318D2E833084008A301B
:100D20008500EC308600233087000030F5008030ED
:100D300093313F238631923153228631F300F930CB
:100D400084008730850059308600003087000030ED
:100D5000F500073093313F2386316C308400243016
:100D600085008430F4000330F5009331332386315D
:100D7000F001F101F20120308400003085002630BE
:100D8000F4000030F500933133238631A030840025
:100D9000003085002430F4000030F5009331332317
:100DA000200074308600203087009731652F4F3146
:100DB0000130FF3F3730FD000630FE003C30FF00C1
:100DC0007D08FA3F7E08FB3F7F08FC3F3830FD007E
:100DD0000630FE003430FF007D08F73F7E08F83F04
:100DE0007F08F93F1230FD000330FE003C30FF0069
:100DF0007D08F43F7E08F53F7F08F63F0030F13F65
:100E0000F23FF33F6C30FE002430FF007E08FD3FD0
:100E10007F08FE3F023072060319C42F20004208EB
:100E20000319152F883100208631400803190A2F35
:100E30003508023EFE000030363DFF007E081E00F1
:100E40007F081E0094319324863174081E007508B3
:100E50001E0076081E00743F1E00743F1E00743F83
:100E60001E008C314724863174081E0075081E0050
:100E700076081E00200037081E0038081E00943136
:100E80009324863174081E0075081E0076081E0023
:100E9000743F1E00743F1E00743F1E008C314724B7
:100EA000863174081E0075081E0076081E008E31FB
:100EB000A42686317D3F84007E3F85007408803FF4
:100EC0007508813F7608823F7F3F013EFF3F743FB8
:100ED0001E00743F1E00743F1E007A3F84007B3F5B
:100EE0008500003F1E00013F1E00023F1E008A31A8
:100EF00011228631031C982F2000C301C30A000071
:100F00000000200090128731C727863193311823C3
:100F10008631000000007F3FFF00FF30FF077F08A1
:100F20007F077F072000BB00C201C0014308C52F17
:100F30007D3F84007E3F8500003F1E00013F1E0074
:100F4000023F1E006E3F1E006E3F1E006E3F1E00E1
:100F50008A3111228631031CB82F2000C301901260
:100F60008731C72786319331182386310030C52F4A
:100F70002000C0017D3F033EFD3FF4017E3F743DF4
:100F8000FE3FB701B8010A2F01307131080043312B
:100F90002000B701B8010030FD3FFE3FFF3F901E2B
:100FA000DD2F0030FD3FFE3FFF3F003038023C3078
:100FB000031937020318F72F901206088400070858
:100FC00085003D310130800701310030803D013125
:100FD0000030803D3E31003FFF3A031DF52F013FB9
:100FE000FF3A031DF52F023F023A031DCF2F7D313B
:100FF000080003347034023470340134AA340134EC
:1010000020009717080044310030FC3FFD3F0030BE
:10101000FE3FFF3F7B3FF4007F3F7402031D142817
:101020007A3FF4007E3F7402031C1F2800007E3FBD
:10103000013EFE3FF4017F3F743DFF3F0A287C3FA5
:10104000013EFC3FF4017D3F743DFD3F7C3FFE00CF
:101050007D3FFF0000307F02653003197E02031CD4
:1010600007287A3108004131FF3F72282000BD0176
:10107000BD0A832802302000BD0083287308F100D8
:1010800060287108EC3EFE00FF012330FF3D7E0822
:1010900084007F08850073088000F10A80307102A7
:1010A000031C6028F101602820003D08003A031964
:1010B0004128013A03193E28033A031960284128C0
:1010C000BD0183287108EC3E840085012330853DF5
:1010D000000824009100F10A80307102031C83286B
:1010E000F10183287F3F003A03193628013A03199A
:1010F0006228033A03195428013A03198328073A4E
:1011000003193A2883287F31080042319231AB22FB
:101110008831003A031D9928B82892317D22883100
:10112000DC28923181228831DC2892318922883171
:10113000DC28210032081E0033081E000630A03EC5
:1011400084008501003FFE00013FFF007F088A0008
:101150007E080A008831013A03199528033A0319D9
:101160008D28013A03199128073A031995289528E3
:10117000210043103E08FF003D08FE00BD0A031990
:10118000BE0A7E0884007F08850000089231C322D1
:10119000883101302100BF020030C03B3F084004CD
:1011A000031DD7280630FE3F0030FF3FDB28033009
:1011B000FE3F0030FF3F7E3F7E3108004131FF3F60
:1011C0007F3F0319FE28AA302000DE0021000E1305
:1011D0000000000020008E100000000020000E150E
:1011E000000000002000DF019331A423883120009B
:1011F0000E160000000020000E173C297F3F031D43
:101200003C2921000E1355302000DE000E130B295F
:101210005D08031D0F29000020000E1B0829000097
:1012200020008E14000000000000000020005D0877
:10123000031D292930301E0075301E00883103201F
:101240008831000030301E0075301E0088310320C8
:10125000883120000E120000000020000E11000056
:10126000000020000E17DD01DF01DF0A93310623A5
:1012700021000E0880388E007F3108004831003090
:10128000FC3FFD3FFE3FFF3F763FFE00773FFF0004
:101290007E08FC007F08FD000030FD1BFF30FE00D3
:1012A000FF007C3FF8007D3FF9007E3FFA007F3F62
:1012B000FB007F087B02031D67297E087A02031D5D
:1012C00067297D087902031D67297C0878020318C5
:1012D000A3290030F83FF93FFA3FFB3F0000000030
:1012E000000000000608840007088500383101303E
:1012F000800701310030803D01310030803D0131F7
:101300000030803D7B3F031D92297A3F031D9229C7
:10131000783FF40020307402793FF4000330743BCE
:10132000031C6E2906088400070885003C31013043
:10133000800701310030803D01310030803D0131B6
:101340000030803D4429763108002000BF01911112
:101350003E08203E84008501240011088000141DF1
:10136000D429941A161FB9290330883133208931C2
:10137000D12920002103031DC72900301E00703031
:101380001E00933175238931240091000000AA309A
:1013900020002106031DCF295E08240091002000B3
:1013A000BE01240015160800941E012A03302000F7
:1013B0002006031DE129BE0124001516F201F20AE0
:1013C000080002302106031D002ABE012400151664
:1013D00093316623893100301E0070301E00933136
:1013E00075238931AA3A0319FF29AA301E0000305B
:1013F0001E0070301E009431F9248931EB29010060
:101400000000200021083E06031D0C2ABF01BF0A70
:10141000BE01240015160800BE0A24001516151674
:1014200008007D3FFD007E3FFE007F3FFF00FF1F65
:10143000312A7D3FFD007E3FFE007F3FFF000030F0
:10144000FA000030FB008030FC007D08FA027E08C4
:10145000FB3B7F08FC3B7A08FD3F7B08FE3F7C0896
:10146000FF3F7A3FFD007B3FFE007C3FFF00FF1FF8
:10147000512A7A3FFD007B3FFE007C3FFF00003099
:10148000FA000030FB008030FC007D08FA027E0884
:10149000FB3B7F08FC3B7A08FA3F7B08FB3F7C085C
:1014A000FC3F0030FD000030FE008030FF007D3F3B
:1014B0007D06FD3F7E3F7E06FE3F7F3F7F06FF3F6E
:1014C0000030FD000030FE008030FF007A3F7D06D6
:1014D000FA3F7B3F7E06FB3F7C3F7F06FC3F7F3F22
:1014E000F4007C3F7402031D7F2A7E3FF4007B3FA3
:1014F0007402031D7F2A7D3FF4007A3F7402031CAF
:1015000003107A3108000034013402340334043407
:10151000053406340734083409340A340B340C34E7
:101520000D340E340F341034113412341334143497
:10153000153416341734183419341A341B341C3447
:101540001D341E341F3420342134223423342434F7
:10155000253426342734283429342A342B342C34A7
:101560002D342E342F343034313432343334343457
:10157000353436343734383439343A343B343C3407
:101580003D343E343F3440344134423443344434B7
:10159000453446344734483449344A344B344C3467
:1015A0004D344E344F345034513452345334543417
:1015B000553456345734583459345A345B345C34C7
:1015C0005D345E345F346034613462346334643477
:1015D000653466346734683469346A346B346C3427
:1015E0006D346E346F3470347134723473347434D7
:1015F000753476347734783479347A347B347C3487
:101600007D347E347F347C3F03190E2B7F3FF40002
:101610007E3FF4047D3FF404031D1E2BF401F5010D
:10162000F6019F2B7C3F013EFC3F7F3F8936FF3F09
:101630007E3F890CFE3F7D3F890CFD3F7D3FFD00D5
:101640007E3FFE007F3FFF00FE307F050319422BE7
:10165000122B7C3F013EFC3F0608840007088500F2
:101660003D310130800701310030803D01310030D3
:10167000803D7F3F8936FF3F7E3F890CFE3F7D3FA7
:10168000890CFD3F7D3FFD007E3FFE007F3FFF0058
:10169000FF307F050319622B292B7C3FFF000230AE
:1016A0007F02031C652B7C3FF40001307402FC3F79
:1016B00006088400070885003D3180350131800D22
:1016C0000131800D7E3F891F4D2B7C3F0918772B00
:1016D000FF30FD007F30FE00FF30FF007D3F7D05C5
:1016E000FD3F7E3F7E05FE3F7F3F7F05FF3F7C3F06
:1016F0008936FC3F7C3FFF00FE01FD017D3F7D04FC
:10170000FD3F7E3F7E04FE3F7F3F7F04FF3F7B3FE8
:101710000319992B0030FD000030FE008030FF00DF
:101720007D3F7D04FD3F7E3F7E04FE3F7F3F7F0483
:10173000FF3F7D3FF4007E3FF5007F3FF6007B31A9
:1017400008004631743FFD00753FFE00763FFF0004
:1017500003107E0D7F0DFE3F89080319BC2B773FD8
:10176000FD00783FFE00793FFF0003107E0D7F0DE6
:10177000FD3F8908031DC02BF401F501F601452C3E
:101780000030FA3FFB3FFC3F7D3FFF008930FF0701
:101790007E3FF4007F087402FE3F763FFD3FF93044
:1017A00006078400FF30073D85007D3FF4000008F8
:1017B0007406FD3F7D3F8039FD3F753F8917F53F3A
:1017C0000030F63F783F8917F83F0030F93F183076
:1017D000FF3F06088400070885003A318035013153
:1017E000800D0131800D763FF400793F7402031DB6
:1017F000032C753FF400783F7402031D032C743FE3
:10180000F400773F7402031C282C773FFD00783FDB
:10181000FE00793FFF000608840007088500343188
:101820007D08800201317E08803B01317F08803BCA
:101830003E310130FD000030FE000030FF007A3FF5
:101840007D04FA3F7B3F7E04FB3F7C3F7F04FC3FEF
:101850000608840007088500343180350131800D89
:101860000131800D7F3FF40001307402FF3F031D02
:10187000E92B7D3F1E007D3F1E00783F1E00783F14
:101880001E00783F1E008B3103237431080046315F
:10189000773FFD00783FFE00793FFF0003107E0D8B
:1018A0007F0DFF3F89080319622C743FFD00753FCF
:1018B000FE00763FFF0003107E0D7F0DFD3F89087F
:1018C000031D662CF401F501F601F02C7D3FFF00AD
:1018D0007B30FF077F3F7F07FF3F793FFD3FF630BB
:1018E00006078400FF30073D85007D3FF4000008B7
:1018F0007406FD3F7D3F8039FD3F783F8917F83FF3
:10190000753F8917F53F0030F63F0030FA3FFB3F47
:10191000FC3F0730FE3F773F091C9D2C7A3FF400C7
:10192000743F7407FA3F7B3FF400753F743DFB3F03
:101930007C3FF400763F743DFC3F793F8936F93FA8
:10194000783F890CF83F773F890CF73F0608840001
:1019500007088500343180350131800D0131800D5B
:101960007E3FF40001307402FE3F031D8B2C0930D2
:10197000FE3F773F091CCB2C7A3FF400743F74077D
:10198000FA3F7B3FF400753F743DFB3F7C3FF40022
:10199000763F743DFC3F793F8936F93F783F890CAB
:1019A000F83F773F890CF73F7C3F8936FC3F7B3F10
:1019B000890CFB3F7A3F890CFA3F7E3FF4000130EF
:1019C0007402FE3F031DB92C7D3F1E007E3F1E00AA
:1019D000783F1E00783F1E00783F1E008B310323A6
:1019E000743108004531FB300607FE00FF30073D2B
:1019F000FF007E08FE3F7F08FF3F20005908023E9F
:101A0000FE0000305A3DFF007E081E007F081E00C9
:101A1000933175238C31FD00FE01FF017E3F840070
:101A20007F3F85007D08803F7E08813F7F08823FA1
:101A30007E3F84007F3F8500003FFD00013FFE00A8
:101A4000023FFF007E08FF007D08FE00FD017E3F93
:101A500084007F3F85007D08803F7E08813F7F08AE
:101A6000823F7E3F84007F3F8500003FFD00013FB5
:101A7000FE00023FFF0020005908013EFA0000303E
:101A80005A3DFB007A081E007B081E009331752327
:101A90008C31FA00FB01FC017A08FD047B08FE048E
:101AA0007C08FF047E3F84007F3F85007D08803FE7
:101AB0007E08813F7F08823F7E3F84007F3F850014
:101AC000003FFD00013FFE00023FFF007E08FF00D7
:101AD0007D08FE00FD017E3F84007F3F85007D087C
:101AE000803F7E08813F7F08823F7E3F84007F3FAA
:101AF0008500003FFD00013FFE00023FFF00200087
:101B000059081E005A081E00933175238C31FA00C3
:101B1000FB01FC017A08FD047B08FE047C08FF043D
:101B20007E3F84007F3F85007D08803F7E08813FA7
:101B30007F08823F03302000D9070318DA0A7B3F71
:101B40001E007B3F1E007B3F1E0000301E008030C9
:101B50001E003F301E008B31A1237B3FF4007C3FF1
:101B6000F5007D3FF6007B31080049310030FA3F37
:101B7000FB3FFC3F72082000BC0000008631D726E6
:101B80008D31003A0319A22E2000C3016C30FE00F3
:101B90002430FF007E08FD3F7F08FE3F0030FF3FFE
:101BA0008C31F2248D317408F73F7508F83F7608C0
:101BB000F93F7D3F84007E3F8500003F1E00013FCE
:101BC0001E00023F1E00743F1E00743F1E00743F43
:101BD0001E009531AF258D3174081E0075081E005A
:101BE00076081E007A3F84007B3F8500003F1E0080
:101BF000013F1E00023F1E00713F1E00713F1E008C
:101C0000713F1E008E31A4268D3174081E007508A8
:101C10001E0076081E008B31A1238D3174081E0032
:101C200075081E0076081E0000301E0020301E00C1
:101C300041301E008C3147248D3174082000B000E3
:101C40007508B1007608B20000301E0000301E009A
:101C500000301E0030081E0031081E0032081E0031
:101C60008A3111228D3103184C2E200030081E00BD
:101C700031081E0032081E0000301E0080301E0099
:101C8000BF301E008C3147248D3174082000B00015
:101C90007508B1007608B200200030081E00310837
:101CA0001E0032081E00773F1E00773F1E00773F60
:101CB0001E008A3111228D3103186B2E200030084E
:101CC000FD003108FE003208FF007D08FA3F7E0863
:101CD000FB3F7F08FC3F200030081E0031081E003B
:101CE00032081E0000301E0000301E0040301E0072
:101CF0008A3111228D31031C7F2E00008A2E033081
:101D00002000D9007030DA000930F2003C08F200FF
:101D10000030A22E7D3F033EFD3FF4017E3F743D27
:101D2000FE3F7F3F013EFF3F7F3FFF0013307F02BA
:101D3000031CD02D03302000D9007030DA00F201EE
:101D4000F20A01307731080043317A3FFD007B3FD2
:101D5000FE007C3FFF0003107E0D7F0DFD3F773FAF
:101D6000FD00783FFE00793FFF0003107E0D7F0DE0
:101D7000FE3F7D3F0319CC2E7D3FFF007E3F7F025B
:101D80000318D22E7D3FFF007E3FFE007F08FE023B
:101D900019307E02031CD22E773FF400783FF50005
:101DA000793FEA2E7E3F0319E52E7E3FFF007D3FFF
:101DB0007F020318EC2E7E3FFF007D3FFE007F0870
:101DC000FE0219307E02031CEC2E7A3FF4007B3FAA
:101DD000F5007C3FF600FE2F0630FF3F7A3FFD0006
:101DE0007B3FFE007C3FFF00FF1FF92E7F3F8038C6
:101DF000FF3F773FFD00783FFE00793FFF00FF1F68
:101E0000042F7F3F4038FF3F7B3F8917FB3F003067
:101E1000FC3F783F8917F83F0030F93F7D3FFF00D6
:101E20007E3F7F020318462F0608840007088500BE
:101E3000373180350131800D0131800D7E3FF40056
:101E400001307402FE3F7D3FFF007E3F7F06031995
:101E50003F2F7F3FF40001307402FF3F7F3F07397F
:101E600003193F2F142F7C3F8936FC3F7B3F890CA1
:101E7000FB3F7A3F890CFA3F7D3F013EFD3F7E3FAD
:101E8000FF007D3F7F0603197D2F332F7E3FFF002C
:101E90007D3F7F0203187D2F060884000708850018
:101EA0003A3180350131800D0131800D7D3FF400E4
:101EB00001307402FD3F7D3FFF007E3F7F06031926
:101EC000772F7F3FF40001307402FF3F7F3F0739D7
:101ED0000319772F4C2F793F8936F93F783F890CCA
:101EE000F83F773F890CF73F7E3F013EFE3F7E3F44
:101EF000FF007D3F7F06031D6B2F7F3F891F9C2FB7
:101F0000FF30FD00FF30FE00FF30FF007A3F7D060E
:101F1000FA3F7B3F7E06FB3F7C3F7F06FC3F060887
:101F20008400070885003A31013080070131003014
:101F3000803D01310030803D7F3F091FBB2FFF30C6
:101F4000FD00FF30FE00FF30FF00773F7D06F73FCA
:101F5000783F7E06F83F793F7F06F93F0608840008
:101F60000708850037310130800701310030803D9E
:101F700001310030803D0030FF3F773FF4007A3F71
:101F80007407F73F783FF4007B3F743DF83F793F9B
:101F9000F4007C3F743DF93F773FFD00783FFE0041
:101FA000793FFF00FF1FF22FFF30FD00FF30FE00E2
:101FB000FF30FF00773F7D06F73F783F7E06F83F12
:101FC000793F7F06F93F060884000708850037310E
:101FD0000130800701310030803D01310030803D0B
:101FE0000130FF3F7F3F1E007C3F1E00753F1E00FB
:101FF000753F1E00753F1E008B31032377310800AB
:1024A0000800080008005534240096140800240091
:1024B0001615080001307E31080005307E31080015
:1024C000240096150800240011080800200091152A
:1024D000080095318825080020001F110800200001
:1024E0001B140800200095010800240096161616FB
:1024F000080024009612161608009231542201306A
:1025000008009231542202300800923154220130E6
:1025100008009231572200300800923179220530AC
:102520000800923175220A30080092317522093074
:1025300008002000911111110800163021009700A9
:1025400008002100C310C2010E3008002100C31092
:10255000C2010E3008002400160E890C890C0139C6
:102560000800210043109231602204300800270047
:10257000131E08009431AA240800200091100000C6
:1025800020001F1508004131FF3F7F3F24009100CC
:102590007F310800210043143C359231C3220330BF
:1025A00008007E3F2000C8007F3FC9007E31080040
:1025B0007E3F2000CC007F3FCD007E3108007E3F73
:1025C0002000C6007F3FC7007E3108002100431471
:1025D00003143C0D9231C3220530080020001B0873
:1025E0007F3F9A007E3F99007E31080020004E0810
:1025F0001E004F081E009231EE22080032009101A9
:102600009201930194019501960108002400940120
:102610000830950096014F30920095120800200076
:102620001B10000000009231F622B301B401080033
:10263000200097130000000092317222B701B80108
:102640000800013021009D00E0309E009F019B01A9
:102650009C0108006030320099009B019D01073009
:102660009F009E0108006400800101310130F402E6
:102670000030F53B7508740403190034342BF40062
:1026800012001E000130F4020030F53B750874049E
:1026900003190034402B7C3F1E007C3F1E007C3F12
:1026A0001E007C3F1E0000309531FE257C31080065
:1026B0002100C31D642B7E3FBD007F3FBE007C3FD9
:1026C000BF007D3FC000C3117C310800B8301E0040
:1026D0000B301E0096312B2693310000B8301E00BF
:1026E0000B301E0096312B2608007E3F31009100F2
:1026F0007F3F920015171514000000000000000035
:10270000310013087E31080070080319892BF0018D
:102710008E2B7008031D8E2BF001F00A7008883193
:10272000DE200930F2000800FF3020009E009D01ED
:1027300091102100911052301E0012301E00923173
:10274000DF2206309F000800C030240094002630AD
:1027500095008030960008309700FE3093001030CE
:10276000920010302000A100911121009115080065
:1027700083302500930094019201910100301E00E6
:1027800000301E0086310226FC3025009F05200007
:10279000141021001414080002301E0000301E0026
:1027A0007C3F1E007C3F1E00933158239331003044
:1027B0001E001E0000301E001E0093314B2304300B
:1027C0007E31080001301E0000301E007C3F1E00DC
:1027D0007C3F1E0093315823933100301E001E00B1
:1027E00000301E001E0093314B2302307E31080062
:1027F00002301E0000301E007C3F1E007C3F1E0089
:1028000093315823933100301E001E0000301E000B
:102810001E0093314B2302307E31080001301E0030
:1028200000301E007C3F1E007C3F1E009331582369
:10283000943100301E001E0000301E001E00933137
:102840004B2304307E31080003302000C1008E1479
:102850000000000020000E154C084D04031908006C
:102860004D08FF004C08FE007F088A007E080A0021
:1028700094310800200011104E081E004F081E0061
:102880009231EE229431B30A0319B40A01303402B2
:10289000773003193302031C080094312424080004
:1028A000503020009800960195011608CB00CA010F
:1028B0001508CA0490122100901650301E001230E4
:1028C0001E009231D1229030970008002030200065
:1028D0009C009A0199011A08CF00CE011908CE0474
:1028E00011102100111451301E0012301E009231BF
:1028F000D82201309B00080020009012B70A03196B
:10290000B80A4B0896004A0895004808490403197C
:1029100008004908FF004808FE007F088A007E087A
:102920000A009431080000301E008E301E007C3FEB
:10293000FE007D3FFF007E08FD007F08FE00FF01D6
:102940007D081E007E081E007F081E008B310323B9
:102950007E31080014301E0000301E0089313E21F7
:10296000943120000C1EB82CC501C401C40ABD2C32
:102970000C1ABD2CC401C501C50A0230F2002700A3
:10298000131208009231FE22943196319826943128
:1029900093312A23943192319D2294319331212312
:1029A00094319331B823943194315024943194313B
:1029B0006624943193319423080020009110000084
:1029C00092316C22943100009231BD22943100008A
:1029D0000530F200200046084704031908004708A4
:1029E000FF004608FE007F088A007E080A00943136
:1029F00008008B137F3F310092007E3F91007D3FA6
:102A00009300151700000000310015155530960091
:102A1000AA30960095140E2D000000003100951884
:102A20000C2D0000000031001511000000008B1774
:102A30007D31080020001410033072060319222D86
:102A40000430F20043080319282DB701B80108002B
:102A50004208031D302DC201C20A0530C100080022
:102A600092317222250012082000B60025001108BC
:102A70002000B500C001C00A080021004310023048
:102A8000C200482D92318522080092318922080027
:102A900030081E0031081E000430A03E840085016D
:102AA000003FFE00013FFF007F088A007E080A0009
:102AB0009531023A0319422D013A0319422D452D51
:102AC00008007E3F84007F3F8500003FFE00013FFD
:102AD000FF007E081E007F081E007C3FFE007D3F39
:102AE000FF007E0884007F088500023100081E0078
:102AF00000301E0093315823953100301E001E0017
:102B000000301E001E0093314B2302307E3108003E
:102B10009231992295312100431C972D9231AB229D
:102B20009531003A0319972D0F302100C100210083
:102B30004108FE00FF01FE35FF0D00307E078400D6
:102B400098307F3D8500003FFE00013FFF007F0879
:102B50008A007E080A0095312100C10008007F3FED
:102B6000F4007E3FF4047D3FF4040319C62D0030C9
:102B7000FD000030FE008030FF007D3F7D06FD3F00
:102B80007E3F7E06FE3F7F3F7F06FF3F7D3F1E006C
:102B90007D3F1E007D3F1E00773F1E00773F1E00D9
:102BA000773F1E008E31A4267A3108002100C3151C
:102BB000E32D92318522080092316622033008000D
:102BC0009231892208002C081E002D081E002108C1
:102BD000FF002008FE007F088A007E080A00953169
:102BE000013A0319E02D033A0319D92D013A0319CB
:102BF000D92D073A0319DC2DE02D08004131FF3FA4
:102C00007D3F03197E3F0319182E7F3F0935A03EF3
:102C1000840085017D3F803F7E3F813F7F3F0935B6
:102C2000AC3E840085017B3F803F7C3F813F292E65
:102C30007F3F0935A03E840085015A30803F123025
:102C4000813F7F3F0935AC3E840085010030803FE5
:102C5000813F7B31080044310030FC3FFD3F0030B4
:102C6000FE3FFF3F7B3FF4007F3F7402031D3C2E7D
:102C70007A3FF4007E3F7402031C472E00007E3F23
:102C8000013EFE3FF4017F3F743DFF3F322E7C3F0B
:102C9000013EFC3FF4017D3F743DFD3F7C3FFE0063
:102CA0007D3FFF0003307F02E93003197E02031CE1
:102CB0002F2E7A310800923163229631FF002100D5
:102CC0003D0884003E0885007F088000BD0A031986
:102CD000BE0A0130BF020030C03B3F084004031968
:102CE000752E9231792205300800C3157D2E923160
:102CF000952208009231912208002C081E002D0810
:102D00001E002108FF002008FE007F088A007E08C0
:102D10000A009631013A03197A2E033A0319772EE5
:102D2000013A0319772E073A03197A2E7A2E0800F2
:102D300022008C018D0101308E00373021008C0083
:102D4000F0308D00E1308E0023008E01E0308D00E8
:102D500021308C0024008D018C018E0125008C0116
:102D60008D0140308E00373026008C00F0308D0011
:102D7000FF308E003F3027008C00F0308D00FF3098
:102D80008E0013121216111619303D00A0000230E9
:102D90003C00A00018303D00920010303C00A10023
:102DA000210010160C303C0094000800200045085B
:102DB0000319DD2E92316F22080044080319EC2E0E
:102DC000033041060319EC2E93310F231110C50176
:102DD000C401F201F20A080044080319072F033066
:102DE0004106031D072F01303402773003193302E7
:102DF0000318072F93310F2396311110C501C40119
:102E0000C10170088831DE200930F2000800440852
:102E10000319080003304106031D08000130340285
:102E2000773003193302031C080093310F2311106C
:102E3000C501C4010330F200080043318631D726B2
:102E40009731003A0319632F6C30FE002430FF00E5
:102E50007E08FD3F7F08FE3FAA301E0001301E00A5
:102E600070301E009431F924973120003B081E0079
:102E70005B081E005C081E009431F9249731003075
:102E8000FF3F7F3F20003B02031C622F7D3F8400F9
:102E90007E3F850000081E0059081E005A081E00CB
:102EA0009431F92497312000D90A0319DA0A7D3FB9
:102EB000013EFD3FF4017E3F743DFE3F7F3F013EFA
:102EC000FF3F412F00007D3108009431C22497312B
:102ED0009731AF2797318B170B179E2F9331842390
:102EE00097319E2F9631D62697319E2F7008031961
:102EF0007C2F0930F2009E2F97311D27973120003B
:102F0000430803199E2FC3018E1400000000200007
:102F10000E11792F8D31B5259731003A03199E2F67
:102F20002000C3019E2F20003F0803199E2F03306D
:102F30002206031D9D2FF201F20ABF010000720854
:102F4000013A03196E2F033A0319722F013A03193C
:102F5000762F073A03198A2F932F86318B2E413112
:102F600000301E0070301E00933175239731FF3FF3
:102F70007F3FAA3A031DC62FFF301E0000301E00FF
:102F800070301E009431F9249731B82F72301E0032
:102F900070301E00933175239731013A0319D92FF0
:102FA00001301E0072301E0070301E009431F92472
:102FB000973173301E0070301E00933175239731A6
:102FC000023A0319EC2F02301E0073301E007030DD
:102FD0001E009431F924973193311823973193319E
:102FE0000F239731F00170088831DE200930F2009C
:102FF0002000C1010E138030320098007F3108009C
:10300000A1341234E6341234CA341234853408340C
:103010005B341634B1341234D63415347D34123462
:103020008134123485341234893412348D3412349C
:103030009134123495341234A63412343D3415349C
:020000040001F9
:08000E00ECFFF3DFFFFFFFFF31
:00000001FF
