:020000040000FA
:100A00008531762D7E310800853174082000E000A4
:100A10007808E1007908E2007A08E3007B08E40046
:100A20007C08E5007D08E6007E08E7007F08E80016
:100A300021308600223087002100901E262D2000C4
:100A4000901E262D9E31D4268531622D2100101E48
:100A5000302D2000101E302D9D3195258531622DC1
:100A60000B1F622D2100141C3C2D2000141C3C2D5A
:100A70009F3192278531622D2100911D502D20003C
:100A8000911D502D6F08031D492D9231162285317D
:100A9000622D6F080319622D8C3179248531622D06
:100AA0002100911C5A2D2000911C5A2D8731E427DA
:100AB0008531622D2100111C622D2000111C622D38
:100AC0009E31922620006808FF006708FE00660835
:100AD000FD006508FC006408FB006308FA0062087A
:100AE000F9006108F8006008F40009008531782DEC
:100AF000DE30840095308500EC308600233087009E
:100B00000030F50080309E3110268531B6308400EB
:100B10009D30850069308600003087000030F50088
:100B200007309E31102685316C30840024308500DA
:100B30008430F4000330F5009E3104268531F00145
:100B4000F101F201F30120308400003085003630DD
:100B5000F4000030F5009E3104262100A001A1011F
:100B6000A201A301A4012000553086002030870097
:100B70009231602A44318D318A258531003A03193A
:100B8000282F2000CA010030FF3F00301E008030B7
:100B90001E0040301E0000301E0020301E0041307C
:100BA0001E0087312A27853174081E0075081E0033
:100BB00076081E0003301E0000301E007A3FFE0043
:100BC000FF017E081E007F081E0090313A2085310B
:100BD0006C30FE002430FF0074087E078400750826
:100BE0007F3D8500003F1E00013F1E00023F1E00AA
:100BF0008931F721853174081E0075081E007608BA
:100C00001E0000301E0080301E0040301E000030EC
:100C10001E0020301E0041301E0087312A278531FA
:100C200074081E0075081E0076081E0003301E00A2
:100C300000301E00773FFE00FF017E081E007F0887
:100C40001E0090313A2085312E30FE002630FF0004
:100C500074087E07840075087F3D8500003F1E00F4
:100C6000013F1E00023F1E008931F72185317408C3
:100C70001E0075081E0076081E0090311320853175
:100C800074081E0075081E0076081E0000301E0045
:100C900080301E0040301E0000301E0020301E003C
:100CA00041301E0087312A27853174081E007508DF
:100CB0001E0076081E0003301E0000301E00773F25
:100CC000FE00FF017E081E007F081E0090313A20C2
:100CD00085316C30FE002430FF0074087E078400EC
:100CE00075087F3D8500003F1E00013F1E00023F4A
:100CF0001E008931F721853174081E0075081E0019
:100D000076081E0000301E0080301E0040301E009D
:100D100000301E0020301E0041301E0087312A277F
:100D2000853174081E0075081E0076081E00033009
:100D30001E0000301E00743FFE00FF017E081E00F2
:100D40007F081E0090313A2085312E30FE0026307B
:100D5000FF0074087E07840075087F3D8500003F12
:100D60001E00013F1E00023F1E008931F721853120
:100D700074081E0075081E0076081E008E31A42619
:100D8000853174081E0075081E0076081E00893122
:100D90005121853174081E0075081E0076081E005A
:100DA00000301E00C8301E0042301E008931F7217D
:100DB00085317408FC3F7508FD3F7608FE3F003022
:100DC0001E0000301E0000301E00793F1E00793FDB
:100DD0001E00793F1E0094317D2485310318052FB4
:100DE0007C3F1E007C3F1E007C3F1E0000301E002A
:100DF00080301E00BF301E008931F7218531740814
:100E0000FC3F7508FD3F7608FE3F7C3F1E007C3F9F
:100E10001E007C3F1E0000301E0040301E0041308E
:100E20001E0094317D248531031C182F00001C2FD7
:100E30000930F1000030282F7F3F013EFF3F7F3F08
:100E4000FF001A307F02031CC52DF101F10A0130A9
:100E50007C31080045310030FF3F7A3FF400793F94
:100E6000F404783FF404031D452F753F1E00753FC1
:100E70001E00753F1E0000301E0000301E000030B6
:100E80001E0094317D248731922F773FF400763F06
:100E9000F404753FF404031D532F0030F400803038
:100EA000F5003F30E12F00301E0000301E00003002
:100EB0001E00753F1E00753F1E00753F1E009431D9
:100EC0007D2487310318A82F753F1E00753F1E0033
:100ED000753F1E009731672787317408FB3F7508FF
:100EE000FC3F7608FD3F7708FE3F7B3F1E007B3FBF
:100EF0001E007B3F1E007B3F1E0090318C208731FF
:100F0000753FFD00763FFE00773FFF007F087606C5
:100F1000031D902F7E087506031D902F7D08740613
:100F20000319962FF401F501F601E22F7B3F0139F9
:100F3000FF3F783F1E00783F1E00783F1E009F3124
:100F4000732787317408F83F7508F93F7608FA3F30
:100F5000783F1E00783F1E00783F1E008831172022
:100F6000873174081E0075081E0076081E00723F47
:100F70001E00723F1E00723F1E008931F72187312B
:100F800074081E0075081E0076081E008B31812330
:100F900087317408F83F7508F93F7608FA3F7F3FBC
:100FA0000319DC2F783F1E00783F1E00783F1E009B
:100FB0009F3173278731E22F783FF400793FF500A6
:100FC0007A3FF600753108002000911000009D3135
:100FD0008E25873100009D319B258731000005302B
:100FE000F100200056085704031908005708FF00B5
:100FF0005608FE007F088A007E080A008731080034
:1010000000301E008E301E007C3FFE007D3FFF0042
:101010007E08FD007F08FE00FF017D081E007E089F
:101020001E007F081E008831B3207E310800423147
:1010300000301E0000301E0000301E00783F1E00F1
:10104000783F1E00783F1E0094317D248831031CB8
:1010500031287D3FF4007C3FF4047B3FF404031D02
:101060003528F401F501F601B128FE300607F60037
:10107000FF30073DF70076081E0077081E00793F15
:101080001E00793F1E00793F1E0093315D23883199
:1010900074081E0075081E0076081E0000301E0031
:1010A00000301E0040301E008931F721883174085D
:1010B0001E0075081E0076081E0000301E008030DD
:1010C0001E00BF301E008E31A42688317408FB3FFD
:1010D0007508FC3F7608FD3FFF30FE00FF30FF0043
:1010E0007E3F7E07FE3F7F3F7F3DFF3F08301E0073
:1010F00000301E001E301E00A0301E00773F1E0074
:10110000773F1E00773F1E009431EF24883174082A
:10111000FB3F7508FC3F7608FD3F7E3F1E007E3F8B
:101120001E0090316220883174081E0075081E0070
:1011300076081E0072301E0031301E003F301E0047
:101140008931F721883174081E0075081E00760861
:101150001E00783F1E00783F1E00783F1E008E3133
:10116000A4267B3108007C3F0319BE287F3FF40092
:101170007E3FF4047D3FF404031DCE28F401F50105
:10118000F6014F297C3F013EFC3F7F3F8936FF3F00
:101190007E3F890CFE3F7D3F890CFD3F7D3FFD007A
:1011A0007E3FFE007F3FFF00FE307F050319F228DF
:1011B000C2287C3F013EFC3F0608840007088500EA
:1011C0003D310130800701310030803D0131003078
:1011D000803D7F3F8936FF3F7E3F890CFE3F7D3F4C
:1011E000890CFD3F7D3FFD007E3FFE007F3FFF00FD
:1011F000FF307F0503191229D9287C3FFF000230F8
:101200007F02031C15297C3FF40001307402FC3F6F
:1012100006088400070885003D3180350131800DC6
:101220000131800D7E3F891FFD287C3F0918272949
:10123000FF30FD007F30FE00FF30FF007D3F7D0569
:10124000FD3F7E3F7E05FE3F7F3F7F05FF3F7C3FAA
:101250008936FC3F7C3FFF00FE01FD017D3F7D04A0
:10126000FD3F7E3F7E04FE3F7F3F7F04FF3F7B3F8D
:10127000031949290030FD000030FE008030FF00D6
:101280007D3F7D04FD3F7E3F7E04FE3F7F3F7F0428
:10129000FF3F7D3FF4007E3FF5007F3FF6007B314E
:1012A00008004631743FFD00753FFE00763FFF00A9
:1012B00003107E0D7F0DFE3F890803196C29773FCF
:1012C000FD00783FFE00793FFF0003107E0D7F0D8B
:1012D000FD3F8908031D7029F401F501F601F52988
:1012E0000030FA3FFB3FFC3F7D3FFF008930FF07A6
:1012F0007E3FF4007F087402FE3F763FFD3FF930E9
:1013000006078400FF30073D85007D3FF40000089C
:101310007406FD3F7D3F8039FD3F753F8917F53FDE
:101320000030F63F783F8917F83F0030F93F18301A
:10133000FF3F06088400070885003A3180350131F7
:10134000800D0131800D763FF400793F7402031D5A
:10135000B329753FF400783F7402031DB329743F2D
:10136000F400773F7402031CD829773FFD00783FD3
:10137000FE00793FFF00060884000708850034312D
:101380007D08800201317E08803B01317F08803B6F
:101390003E310130FD000030FE000030FF007A3F9A
:1013A0007D04FA3F7B3F7E04FB3F7C3F7F04FC3F94
:1013B0000608840007088500343180350131800D2E
:1013C0000131800D7F3FF40001307402FF3F031DA7
:1013D00099297D3F1E007D3F1E00783F1E00783F0B
:1013E0001E00783F1E008831B3207431080046315A
:1013F000773FFD00783FFE00793FFF0003107E0D30
:101400007F0DFF3F89080319122A743FFD00753FC5
:10141000FE00763FFF0003107E0D7F0DFD3F890823
:10142000031D162AF401F501F601A02A7D3FFF00F5
:101430007B30FF077F3F7F07FF3F793FFD3FF6305F
:1014400006078400FF30073D85007D3FF40000085B
:101450007406FD3F7D3F8039FD3F783F8917F83F97
:10146000753F8917F53F0030F63F0030FA3FFB3FEC
:10147000FC3F0730FE3F773F091C4D2A7A3FF400BE
:10148000743F7407FA3F7B3FF400753F743DFB3FA8
:101490007C3FF400763F743DFC3F793F8936F93F4D
:1014A000783F890CF83F773F890CF73F06088400A6
:1014B00007088500343180350131800D0131800D00
:1014C0007E3FF40001307402FE3F031D3B2A0930C9
:1014D000FE3F773F091C7B2A7A3FF400743F740774
:1014E000FA3F7B3FF400753F743DFB3F7C3FF400C7
:1014F000763F743DFC3F793F8936F93F783F890C50
:10150000F83F773F890CF73F7C3F8936FC3F7B3FB4
:10151000890CFB3F7A3F890CFA3F7E3FF400013093
:101520007402FE3F031D692A7D3F1E007E3F1E00A0
:10153000783F1E00783F1E00783F1E008831B320A0
:10154000743108004F313330FD005330FE003B3022
:10155000FF007D08F73F7E08F83F7F08F93F4030E5
:10156000FD001C30FE004630FF007D08F13F7E0884
:10157000F23F7F08F33F4030FD001C30FE00463054
:10158000FF007D08F43F7E08F53F7F08F63F713F7E
:101590001E00713F1E00713F1E0000301E00B03063
:1015A0001E0040301E008931F7218A3174081E0068
:1015B00075081E0076081E006E3F1E006E3F1E005E
:1015C0006E3F1E006E3F1E006E3F1E006E3F1E00EF
:1015D0008E31A4268A3174081E0075081E00760814
:1015E0001E00893151218A317408FD3F7508FE3F84
:1015F0007608FF3F713F1E00713F1E00713F1E00C5
:10160000CD301E009C301E0040301E008931F72175
:101610008A3174081E0075081E0076081E006E3F91
:101620001E006E3F1E006E3F1E006E3F1E006E3F8E
:101630001E006E3F1E008E31A4268A3174081E00E3
:1016400075081E0076081E00893151218A31740800
:10165000FA3F7508FB3F7608FC3F0F309F31B527F6
:101660008A3174081E0075081E00883100208A31F6
:1016700074081E0075081E0076081E00743F1E00C8
:10168000743F1E00743F1E008931F7218A317408AF
:101690002000B2007508B3007608B4007D3F1E003C
:1016A0007D3F1E007D3F1E0032081E0033081E00D5
:1016B00034081E00743F1E00743F1E00743F1E005D
:1016C00094317D248A310318672B0130682B003058
:1016D000FE00FF017E081E007F081E009031622080
:1016E0008A3174081E0075081E0076081E009431A9
:1016F0007D248A3103187E2B01307F2B003071311D
:10170000080043317C3FF4007B3FF4047A3FF4044B
:10171000031D902B0030F4008030F5003F30762C14
:101720007A3F1E007A3F1E007A3F1E0072301E0074
:1017300031301E0044301E0094317D248B3103185B
:10174000A72BFF30F4007F30F5007F30762C493036
:101750001E003A301E00C4301E00773F1E00773F47
:101760001E00773F1E0094317D248B31031C5D2CBD
:1017700000301E0000301E0000301E00773F1E00AB
:10178000773F1E00773F1E0094317D248B31031874
:10179000CB2B0130CC2B0030FF3F7F3F0319DF2BD9
:1017A0007A3F1E007A3F1E007A3F1E009F3173274A
:1017B0008B317408FA3F7508FB3F7608FC3F7A3F8F
:1017C0001E007A3F1E007A3F1E00AA301E00B8306D
:1017D0001E003F301E008931F7218B317408FA3F1B
:1017E0007508FB3F7608FC3F7A3F1E007A3F1E00DB
:1017F0007A3F1E009631E1268B3174081E00750871
:101800001E0076081E00973167278B317508FF0090
:101810007408FE007E08FD3F7F08FE3F7A3F1E00F1
:101820007A3F1E007A3F1E007A3F1E007A3F1E005C
:10183000903162208B3174081E0075081E007608F6
:101840001E00903113208B317408FA3F7508FB3F5E
:101850007608FC3F7D3F1E007D3F1E0009301E00C4
:1018600000301E0000301E00A0301E00743F1E001D
:10187000743F1E00743F1E009431EF248B317408B6
:101880001E0075081E0076081E00953162258B31FA
:101890007408FA3F7508FB3F7608FC3F7F3F031949
:1018A000712C7A3FFF3A031D5B2C7B3F7F3A031D6F
:1018B0005B2C7C3F7F3A031D612CF401F501F6019E
:1018C000772C00301E0080301E003F301E00773F16
:1018D0001E00773F1E00773F1E00893151218B315A
:1018E000772C7A3FF4007B3FF5007C3FF6007A319D
:1018F0000800200091112400951F652D95132000EC
:10190000C6014308023E84008501003FFE00013FFE
:10191000FF007E0884007F0885008001800AC301E3
:101920000800A91808002808C300280884008501B9
:101930000008C500280884008501013FC400043068
:10194000A8072808563A031DA72C5230A8002910D2
:10195000280827060319A9142400161402302000B1
:10196000C60008001D2D2400161FBC2C2000AB0A49
:1019700004309F31362708007308FF007208FE000C
:10198000FF36FE0C7E089100721CCA2C0B30200022
:10199000C600080003302000C60008002400161FFF
:1019A000D72C2000AB0A04309F313627080096144C
:1019B00006307305FF00F0307F04F2000030F300C2
:1019C00072142000C101C10AAE2C41030319FC2C82
:1019D000440884008501003FF200013FF300440801
:1019E000033E84008501003FB500013FB600440876
:1019F00084008501023FC200720824009100721C1D
:101A0000CA2C05302000C60008002400161F102D27
:101A10002000AB0A2400161305309F31362708003A
:101A20002000C203420A031D202D0530C407C50B48
:101A30001D2D00309F313627080024009614AE2C4F
:101A40003508840036088500000824009100200035
:101A5000B50A0319B60A08002400161F372D200006
:101A6000AB0A04309F313627240016130800961560
:101A700008302000C60008000830C6002400961573
:101A8000080035088400360885002400110880000D
:101A90002000B50A0319B60AC2030319552D240004
:101AA000961206302000C600592D240096169D314E
:101AB000F92524001616080000309F31362708004B
:101AC000AB0A06309F313627080020004608003A4E
:101AD0000319912C013A0319B22C033A0319E52C8E
:101AE000013A0319052D073A03195C2D013A031930
:101AF0002C2D033A03193C2D013A03195C2D0F3AA2
:101B00000319412D023A0319B32C013A0319CE2CC3
:101B1000602D080050310030FF3F3730FD000630A7
:101B2000FE003C30FF007D08F63F7E08F73F7F084F
:101B3000F83F3830FD000630FE003430FF007D08ED
:101B4000F33F7E08F43F7F08F53F1230FD0003307D
:101B5000FE003C30FF007D08F03F7E08F13F7F082B
:101B6000F23F03307106031DBE2D2E30FE002630DD
:101B7000FF007E08F93F7F08FA3FCA2D0430710646
:101B8000031DCA2D6C30FE002430FF007E08F93F93
:101B90007F08FA3F793FFD3F7A3FFE3F793F033EA2
:101BA000FE007A3FFF000030FF3D7E08FB3F7F08CC
:101BB000FC3F023071060319A12E200049080319C9
:101BC000E42D9D318B258D3147080319D92D390816
:101BD000023EFE0000303A3DFF007E081E007F08F6
:101BE0001E00883100208D3174081E0075081E000B
:101BF00076081E00703F1E00703F1E00703F1E00E2
:101C00008931F7218D3174081E0075081E00760891
:101C10001E0020003B081E003C081E0088310020EA
:101C20008D3174081E0075081E0076081E00703F76
:101C30001E00703F1E00703F1E008931F7218D315C
:101C400074081E0075081E0076081E008E31A4263A
:101C50008D31793F84007A3F85007408803F750894
:101C6000813F7608823F703F1E00703F1E00703F2C
:101C70001E00763F8400773F8500003F1E00013F35
:101C80001E00023F1E0094317D248D31031C952ED1
:101C90002000CA01CA0A0000000020009012913101
:101CA00019218D319D31DE258D31000000007A3FF4
:101CB000F4007C3F7402031D612E793FF4007B3FEA
:101CC0007402031C892E7B3F84007C3F8500003F0B
:101CD000FD00013FFE00023FFF007D3F84007E3F8C
:101CE00085007D08803F7E08813F7F08823F7D3FE1
:101CF000033EFD3FF4017E3F743DFE3F7B3F063EC9
:101D0000FB3FF4017C3F743DFC3F7F3F013EFF3FC2
:101D1000572E7F3FFF007F087F077F07033E20008D
:101D2000BD00C901C7014A08A22E2000C701793FA2
:101D3000033EF93FF4017A3F743DFA3FBB01BC0119
:101D4000D92D01307031080043317A3FFD007B3FCF
:101D5000FE007C3FFF0003107E0D7F0DFD3F773FAF
:101D6000FD00783FFE00793FFF0003107E0D7F0DE0
:101D7000FE3F7D3F0319CC2E7D3FFF007E3F7F025B
:101D80000318D22E7D3FFF007E3FFE007F08FE023B
:101D900019307E02031CD22E773FF400783FF50005
:101DA000793FEA2E7E3F0319E52E7E3FFF007D3FFF
:101DB0007F020318EC2E7E3FFF007D3FFE007F0870
:101DC000FE0219307E02031CEC2E7A3FF4007B3FAA
:101DD000F5007C3FF600FE2F0630FF3F7A3FFD0006
:101DE0007B3FFE007C3FFF00FF1FF92E7F3F8038C6
:101DF000FF3F773FFD00783FFE00793FFF00FF1F68
:101E0000042F7F3F4038FF3F7B3F8917FB3F003067
:101E1000FC3F783F8917F83F0030F93F7D3FFF00D6
:101E20007E3F7F020318462F0608840007088500BE
:101E3000373180350131800D0131800D7E3FF40056
:101E400001307402FE3F7D3FFF007E3F7F06031995
:101E50003F2F7F3FF40001307402FF3F7F3F07397F
:101E600003193F2F142F7C3F8936FC3F7B3F890CA1
:101E7000FB3F7A3F890CFA3F7D3F013EFD3F7E3FAD
:101E8000FF007D3F7F0603197D2F332F7E3FFF002C
:101E90007D3F7F0203187D2F060884000708850018
:101EA0003A3180350131800D0131800D7D3FF400E4
:101EB00001307402FD3F7D3FFF007E3F7F06031926
:101EC000772F7F3FF40001307402FF3F7F3F0739D7
:101ED0000319772F4C2F793F8936F93F783F890CCA
:101EE000F83F773F890CF73F7E3F013EFE3F7E3F44
:101EF000FF007D3F7F06031D6B2F7F3F891F9C2FB7
:101F0000FF30FD00FF30FE00FF30FF007A3F7D060E
:101F1000FA3F7B3F7E06FB3F7C3F7F06FC3F060887
:101F20008400070885003A31013080070131003014
:101F3000803D01310030803D7F3F091FBB2FFF30C6
:101F4000FD00FF30FE00FF30FF00773F7D06F73FCA
:101F5000783F7E06F83F793F7F06F93F0608840008
:101F60000708850037310130800701310030803D9E
:101F700001310030803D0030FF3F773FF4007A3F71
:101F80007407F73F783FF4007B3F743DF83F793F9B
:101F9000F4007C3F743DF93F773FFD00783FFE0041
:101FA000793FFF00FF1FF22FFF30FD00FF30FE00E2
:101FB000FF30FF00773F7D06F73F783F7E06F83F12
:101FC000793F7F06F93F060884000708850037310E
:101FD0000130800701310030803D01310030803D0B
:101FE0000130FF3F7F3F1E007C3F1E00753F1E00FB
:101FF000753F1E00753F1E008831B3207731080001
:102000000800C030240094002630950080309600EF
:1020100008309700FE30930010309200200091119C
:102020002100911508007F3FF4007E3FF4047D3FBE
:10203000F40403192A280030FD000030FE0080302F
:10204000FF007D3F7D06FD3F7E3F7E06FE3F7F3FDA
:102050007F06FF3F7D3F1E007D3F1E007D3F1E002F
:10206000773F1E00773F1E00773F1E008E31A4266B
:102070007A31080042310030FE3FFF3F7C3F091CAF
:102080004B287E3FF4007A3F7407FE3F7F3FF40009
:102090007B3F743DFF3F7A3F8935FA3F7B3F890D97
:1020A000FB3F7D3F8936FD3F7C3F890CFC3F7C3FF9
:1020B00003197D3F031D3E287E3FF4007F3FF5005E
:1020C0007A31080041310030FF3F7E3F891F75287B
:1020D0007E3FF400F4097D3F8909890A0319F40A57
:1020E000FD3F7408FE3F0130FF3F7F3F1E008E30F2
:1020F0001E007B3FFE007C3FFF007E08FD007F0846
:10210000FE00FF017D081E007E081E007F081E00E5
:102110008831B3207D31080041318E30FF3F7B3F55
:10212000FC007C3FFD007D3FFE007E3FFF00FF3056
:102130007F050319AB287E3F8936FE3F7D3F890C22
:10214000FD3F7C3F890CFC3F7B3F890CFB3F7F3F81
:10215000013EFF3F8F2800301E007E3F1E00793F6A
:102160001E00793F1E00793F1E008831B3207B316D
:10217000080044310030FC3FFD3F0030FE3FFF3F90
:102180007B3FF4007F3F7402031DCA287A3FF400AE
:102190007E3F7402031CD52800007E3F013EFE3FB7
:1021A000F4017F3F743DFF3FC0287C3F013EFC3F70
:1021B000F4017D3F743DFD3F7C3FFE007D3FFF000D
:1021C00003307F02E93003197E02031CBD287A31F7
:1021D000080044310030FC3FFD3F0030FE3FFF3F30
:1021E0007B3FF4007F3F7402031DFA287A3FF4001E
:1021F0007E3F7402031C052900007E3F013EFE3F26
:10220000F4017F3F743DFF3FF0287C3F013EFC3FDF
:10221000F4017D3F743DFD3F7C3FFE007D3FFF00AC
:1022200000307F02653003197E02031CED287A31ED
:10223000080043312000BB01BC010030FD3FFE3FE0
:10224000FF3F901E2F290030FD3FFE3FFF3F003033
:102250003C023C3003193B0203184929901206083E
:102260008400070885003D310130800701310030CE
:10227000803D01310030803D3E31003FFF3A031D7B
:102280004729013FFF3A031D4729023F023A031D38
:1022900021297D31080022008C018D0101308E0042
:1022A000373021008C00F0308D00E1308E002300AB
:1022B0008E01E0308D0021308C0024008D018C01D6
:1022C0008E0125008C018D018E01373026008C0097
:1022D000F0308D00FF308E003F3027008C00F03052
:1022E0008D00FF308E0013121216111619303D00AA
:1022F000A00002303C00A00018303D0092001030D9
:102300003C00A100210010160C303C009400080095
:1023100020004C0803198F299D31852508004B08A2
:1023200003199E290330480603199E299D31D5259E
:102330001110CC01CB01F101F10A08004B0803197F
:10234000B92903304806031DB92901303802773016
:10235000031937020318B9299D31D5259131111080
:10236000CC01CB01C80170089331B5230930F100CD
:1023700008004B080319080003304806031D080035
:1023800001303802773003193702031C08009D31F1
:10239000D5251110CC01CB010330F10008004331E9
:1023A0008D318A259131003A0319142A2E30FE000E
:1023B0002630FF007E08FD3F7F08FE3FAA301E004A
:1023C00000301E0070301E009F31542791312000D4
:1023D0003D081E006B081E006C081E009F3154272C
:1023E00091310030FF3F7F3F20003D02031C142A43
:1023F0007D3F84007E3F850000081E0069081E00A6
:102400006A081E009F31542791312000E90A031900
:10241000EA0A7D3F013EFD3FF4017E3F743DFE3FF1
:102420007F3F013EFF3FF3297D31080020009111DD
:102430004008203E84008501240011088000141DFE
:10244000422A941A161F292A03309231B32292315C
:10245000402A20002003031D362A00301E00703061
:102460001E009E313926923124009100AA302000AE
:102470002006031D3E2A5530240091002000C00193
:1024800000005D2A941E402A941E5D2A023020001E
:102490002006031D5A2AC001240015169E312A2643
:1024A0009231AA301E0000301E0070301E009F3195
:1024B0005427010000002000C00A2400151608005F
:1024C0009F311B2792319F31DA2792318B170B17DF
:1024D000A32A9E3148269231A32A91318821923134
:1024E000A32A9131CF21923120004A080319A32A4F
:1024F000CA0170089331B52392310930F100A32A43
:102500008531BA259231003A0319A32A2000CA0165
:10251000A32A200091149D318E25923196315E269A
:102520009231003A031D972AF101F10AA32A8A3158
:10253000A2229231003A031DA02A7008031D942A9A
:102540009D319B2592317108013A0319692A033A9A
:1025500003196D2A013A0319712A073A0319802ACF
:10256000892A8531762D4131FF3FF42A2000BE01B2
:10257000BE0A052B02302000BE00052B6E08BF00EE
:10258000E02A3F08EC3EFE00FF012330FF3D7E08BD
:1025900084007F0885006E088000BF0A80303F02FB
:1025A000031CE02ABF01E02A20003E08003A03197C
:1025B000C12A013A0319BE2A033A0319E02AC12AA3
:1025C000BE01052B20003F08EC3E8400850123302E
:1025D000853D0008240091002000BF0A80303F02A2
:1025E000031C052BBF01052B7F3F003A0319B62AB8
:1025F000013A0319E22A033A0319D42A013A0319CA
:10260000052B073A0319BA2A052B7F3108004231FE
:102610000030FE3F8E30FF3F7A3FFC007B3FFD00E5
:102620007C3FFE007D3FFF00FF1F332B7A3FFC0005
:102630007B3FFD007C3FFE007D3FFF00FC09FD0964
:10264000FE09FF09FC0A0319FD0A0319FE0A031912
:10265000FF0A7C08FA3F7D08FB3F7E08FC3F7F08AD
:10266000FD3F0130FE3F7A3FFC007B3FFD007C3F99
:10267000FE007D3FFF00FF307F0503194F2B7D3F9C
:102680008936FD3F7C3F890CFC3F7B3F890CFB3F3B
:102690007A3F890CFA3F7F3F013EFF3F332B7E3F5D
:1026A0001E007E3F1E00783F1E00783F1E00783FD0
:1026B0001E008831B3207A3108007F3FF4007E3F4E
:1026C000F4047D3FF404031D702B7B3F84007C3FAA
:1026D00085000030803F813FF401F501F601B32B06
:1026E000FF3006078400FF30073D850000087F3972
:1026F000FE00FF01FE35FF0D7B3F84007C3F85001F
:102700007E08803F7F08813FFE3006078400FF304F
:10271000073D8500000D000D0139FE00FF017B3FE4
:1027200084007C3F85007E08800401317F0880049E
:102730007B3F84007C3F8500823080070131FF3081
:10274000803D3F317F3F80393F38FF3FFE300607F5
:102750008400FF30073D850080137D3FF4007E3FFD
:10276000F5007F3FF6007B3108004131FF3F7F3F9E
:102770000319D92B8A31A2229331003A031DC42BAD
:1027800001309E311C269331A13021008E000000C3
:10279000000020008E100000000020000E15000038
:1027A00000002000EF0190310120933120000E162F
:1027B000142C7F3F031D142C20000E170000E13065
:1027C00021008E0064301E0000301E009031E92090
:1027D0009331EE2B6D08031DF12B000020000E1B22
:1027E000EA2B000020008E140000000020000E11D3
:1027F0000000000020006D08031D0D2C30301E006D
:1028000075301E009031E9209331000030301E00F9
:1028100075301E009031E920933120000E12ED0139
:10282000EF01EF0A9F3103277F3108004831003064
:10283000FC3FFD3FFE3FFF3F763FFE00773FFF003E
:102840007E08FC007F08FD000030FD1BFF30FE000D
:10285000FF007C3FF8007D3FF9007E3FFA007F3F9C
:10286000FB007F087B02031D3F2C7E087A02031DBC
:102870003F2C7D087902031D3F2C7C087802031849
:102880007B2C0030F83FF93FFA3FFB3F000000008F
:102890000000000006088400070885003831013078
:1028A000800701310030803D01310030803D013131
:1028B0000030803D7B3F031D6A2C7A3F031D6A2C4C
:1028C000783FF40020307402793FF4000330743B09
:1028D000031C462C06088400070885003C310130A3
:1028E000800701310030803D01310030803D0131F1
:1028F0000030803D1C2C763108007D3FFD007E3F7E
:10290000FE007F3FFF00FF1F9D2C7D3FFD007E3FAF
:10291000FE007F3FFF000030FA000030FB008030F7
:10292000FC007D08FA027E08FB3B7F08FC3B7A082E
:10293000FD3F7B08FE3F7C08FF3F7A3FFD007B3F69
:10294000FE007C3FFF00FF1FBD2C7A3FFD007B3F58
:10295000FE007C3FFF000030FA000030FB008030BA
:10296000FC007D08FA027E08FB3B7F08FC3B7A08EE
:10297000FA3F7B08FB3F7C08FC3F0030FD00003045
:10298000FE008030FF007D3F7D06FD3F7E3F7E06DE
:10299000FE3F7F3F7F06FF3F0030FD000030FE001E
:1029A0008030FF007A3F7D06FA3F7B3F7E06FB3F8B
:1029B0007C3F7F06FC3F7F3FF4007C3F7402031D99
:1029C000EB2C7E3FF4007B3F7402031DEB2C7D3F1C
:1029D000F4007A3F7402031C03107A31080043317B
:1029E00003301E0000301E00743F1E00743F1E00A6
:1029F00090313A209431783FFE00793FFF007E0805
:102A0000740784007F08753D8500003FFD00013F8D
:102A1000FE00023FFF007D08FD3F7E08FE3F7F086D
:102A2000FF3F763F0319773F03195A2D7A3F1E0067
:102A30007A3F1E007A3F1E007A3F1E007A3F1E003A
:102A40007A3F1E008931F721943174081E00750801
:102A50001E0076081E0003301E0000301E00FF30EE
:102A6000FE00FF30FF00713F7E07F13F723F7F3D68
:102A7000F23F713F1E00713F1E0090313A209431A9
:102A8000753FFE00763FFF007E08740784007F08D4
:102A9000753D8500003F1E00013F1E00023F1E00E5
:102AA0008E31A42694317408FD3F7508FE3F7608E8
:102AB000FF3F112D7D3FF4007E3FF5007F3FF60084
:102AC000763108007F3FF4007E3FF4047D3FF4043C
:102AD0000319902DFF3006078400FF30073D850065
:102AE00000087F39FE00FF01FE35FF0D7B3F7E07AA
:102AF000FB3F7C3F7F3DFC3FFE3006078400FF30FC
:102B0000073D8500000D000D0139F4007B3F74077F
:102B1000FB3FF4017C3F743DFC3F7C3F891F942DBB
:102B2000F401F501F601DC2D7B3FFE007C3FFF0048
:102B30007F08803AF40081307402031DA12D00301B
:102B40007E02031CC02D00301E0000301E0000302D
:102B50001E007A3F1E007A3F1E007A3F1E0094310D
:102B60007D2495310318BA2DFF30F4007F30F50035
:102B7000FF30DB2DFF30F4007F30F5007F30DB2DA0
:102B80007B3FFE007C3FFF007F0DFF0CFE0C7F3F74
:102B90007E0680397E06FF3F7B3F0139FF00FF0C38
:102BA000FF0C7E3F7F067F397F06FE3F7D3FF400AE
:102BB0007E3FF5007F3FF6007B3108000034013492
:102BC0000234033404340534063407340834093439
:102BD0000A340B340C340D340E340F3410341134E9
:102BE0001234133414341534163417341834193499
:102BF0001A341B341C341D341E341F342034213449
:102C000022342334243425342634273428342934F8
:102C10002A342B342C342D342E342F3430343134A8
:102C20003234333434343534363437343834393458
:102C30003A343B343C343D343E343F344034413408
:102C400042344334443445344634473448344934B8
:102C50004A344B344C344D344E344F345034513468
:102C60005234533454345534563457345834593418
:102C70005A345B345C345D345E345F3460346134C8
:102C80006234633464346534663467346834693478
:102C90006A346B346C346D346E346F347034713428
:102CA00072347334743475347634773478347934D8
:102CB0007A347B347C347D347E347F344931AE3099
:102CC000FD001730FE004030FF007D08FD3F7E080C
:102CD000FE3F7F08FF3F3330FD005330FE003B30A6
:102CE000FF007D08FA3F7E08FB3F7F08FC3F123063
:102CF000FD000330FE003B30FF007D08F73F7E08FB
:102D0000F83F7F08F93F0000000005309F31B527EC
:102D1000963174081E0075081E0088310020963117
:102D200074081E0075081E0076081E00773F1E00FE
:102D3000773F1E00773F1E008931F72196317408D6
:102D40001E0075081E0076081E00CD301E002C30B7
:102D50001E0040301E008931512196317408200038
:102D6000AC007508AD007608AE002C081E002D08DA
:102D70001E002E081E00743F1E00743F1E00743F8C
:102D80001E0089315121963174082000AF0075086A
:102D9000B0007608B1002F081E0030081E00310870
:102DA0001E007A3F1E007A3F1E007A3F1E009431BB
:102DB0007D2496310318DE2E0030DF2E013077316E
:102DC00008004531FE300607F600FF30073DF700EA
:102DD00076081E0077081E00763F1E00763F1E0014
:102DE000763F1E0093315D2396317F3F891F132F5D
:102DF00000301E0000301E0000301E00753F1E0017
:102E0000753F1E00753F1E0094317D2496310318D6
:102E10000F2F0030F4008030F500BF30642FF40134
:102E2000F501F601652F7E3FFE007F3FFF00003079
:102E30007F02153003197E02031C242F783FF40013
:102E4000793FF5007A3F642F783F1E00783F1E00DF
:102E5000783F1E0097316727963174081E00750869
:102E60001E0076081E0077081E0093310723963156
:102E70007408FB3F7508FC3F7608FD3F7B3F1E0052
:102E80007B3F1E007B3F1E00753F1E00753F1E00EE
:102E9000753F1E0094317D24963103185F2F7B3FD0
:102EA0001E007B3F1E007B3F1E0000301E00803056
:102EB0001E00BF301E008E31A4269631652F7B3F49
:102EC000F4007C3FF5007D3FF60078310800463184
:102ED000773FFD00783FFE00793FFF0003107E0D35
:102EE0007F0DFE3F8908031D7A2FF401F501F601DD
:102EF000F701FE2F773FFD00783FFE00793FFF008E
:102F00001730FF36FE0CFD0C890B812F7D08FF3F2B
:102F1000783F8917F83F0030F93F773FFC00783F52
:102F2000FD00793FFE00FF017C08FA3F7D08FB3F72
:102F30007E08FC3F7F08FD3F7E3FF4008E30740228
:102F4000FE3F7E3F803A803E0318BD2F7E3F803A91
:102F50008F3E031C752F7D3F8936FD3F7C3F890CDA
:102F6000FC3F7B3F890CFB3F7A3F890CFA3F7E3F59
:102F7000013EFE3F0319D82FAB2F7E3FFF001830D4
:102F80007F020318752F7E3F0319D82F060884008F
:102F9000070885003A3180350131800D0131800DFF
:102FA0000131800D7E3FF40001307402FE3FC32FDB
:102FB0007F3F0319F62F7A3FFC007B3FFD007C3FEB
:102FC000FE007D3FFF00FC09FD09FE09FF09FC0A28
:102FD0000319FD0A0319FE0A0319FF0A7C08FA3FC8
:102FE0007D08FB3F7E08FC3F7F08FD3F7A3FF400F1
:102FF0007B3FF5007C3FF6007D3FF700773108000E
:103B06000800080020001B1408002000950108008A
:103B160020009717080020001F110800163021000A
:103B2600970008002700131E08009E31EB260800A8
:103B360020009110000020001F1508007E3F200085
:103B4600D8007F3FD9007E3108007E3F2000DC0090
:103B56007F3FDD007E3108007E3F2000D6007F3F9C
:103B6600D7007E31080002347034013470340134D9
:103B76005534013420001B087F3F9A007E3F990090
:103B86007E31080020005E081E005F081E009D3181
:103B9600BD2508003200910192019301940195011F
:103BA6009601080020001B10000000009D31C5256D
:103BB600B701B801080020009713000000009D31EE
:103BC6008825BB01BC010800013021009D00E030C2
:103BD6009E009F019B019C01080060303200990005
:103BE6009B019D0107309F009E01080005302000C3
:103BF600C407C50B012E0430C6000800C601C60A5C
:103C060008006400800101310130F4020030F53B08
:103C16007508740403190034052EF40012001E0002
:103C26000130F4020030F53B7508740403190034C2
:103C3600112E4131FF3F202E1F2E7F3F013A0319DF
:103C46001F2E033A0319282E282E7F310800B8307C
:103C56001E000B301E009031B9209E310000B83096
:103C66001E000B301E009031B92008007F3F310046
:103C760092007E3F91001517151400000000000009
:103C86000000310013087E310800700803194D2E1C
:103C9600F001522E7008031D522EF001F00A700832
:103CA6009331B5230930F1000800FF3020009E0053
:103CB6009D0191102100911000301E0010301E0051
:103CC6009D31AF2506309F00080083302500930004
:103CD60094019201910100301E0000301E008531D2
:103CE6000225FC3025009F05200014102100141425
:103CF600080003302000C8008E14000000002000D9
:103D06000E155C085D04031908005D08FF005C08D9
:103D1600FE007F088A007E080A009E310800200007
:103D260011105E081E005F081E009D31BD259E31E4
:103D3600B70A0319B80A0130380277300319370277
:103D4600031C08009E317C26080050302000980095
:103D5600960195011608DB00DA011508DA049012BF
:103D66002100901683301E001D301E009D31A125B6
:103D7600903097000800203020009C009A0199019D
:103D86001A08DF00DE011908DE04111021001114E3
:103D960084301E001D301E009D31A82501309B0079
:103DA600080020009012BB0A0319BC0A5B089600A3
:103DB6005A08950058085904031908005908FF00C5
:103DC6005808FE007F088A007E080A009E31080017
:103DD60014301E0000301E00943116249E3120003F
:103DE6000C1EF92ECC01CB01CB0AFE2E0C1AFE2E90
:103DF600CB01CC01CC0A0230F100270013120800D7
:103E060052302000A8005230A700A9142910AB0197
:103E1600C030240094002830950008309700033005
:103E26009200200091111111210091151115080021
:103E36009D31CD259F3191314B219F319D31F0250B
:103E46009F319D3191259F319D31E7259F319E31CF
:103E560068269F319E31A8269F319E31BE269F310E
:103E66009E31582608004131FF3F240016152000D8
:103E76004308023E84008501120000040319512FF5
:103E86004308023E84008501003FFE00013FFF001B
:103E96007E0884007F0885007F3F8000C6017F3151
:103EA600080041310B0D0B0D0139FF3F7E3F3100FC
:103EB60092007D3F91007C3F9300151715158B13DB
:103EC60055309600AA30960095149518682F15114E
:103ED6007F3F0139031D8B1703198B137C310800B3
:103EE6007F3FF4007E3FF4047D3FF40403198A2FDC
:103EF6000030FD000030FE008030FF007D3F7D0673
:103F0600FD3F7E3F7E06FE3F7F3F7F06FF3F7D3FB4
:103F1600F4007E3FF5007F3FF6007D31080020006B
:103F260014100330710603199A2F0430F1004A0861
:103F36000319A02FBB01BC0108004908031DA82FC7
:103F4600C901C90A0530C80008009D318825250029
:103F560012082000BA00250011082000B900C70188
:103F6600C70A08004131FF3F21001D1000007F3FB6
:103F7600FF00FF0DFF0D21001D087F0603397F0698
:103F86009D00000021001D140D30890BC82F000074
:103F960021009D14000021009D1CD42F000000006C
:103FA600CE2F1C08F5001B08F4007F3108004131B4
:103FB60000301E0070301E009E3139269F31FF3FB3
:103FC6007F3FAA3A031DF02FFF301E0000301E006F
:103FD60070301E009F3154279F319D31DE259F3161
:103FE6009D31D5259F31F00170089331B5230930F5
:103FF600F1002000C8017F310800003480343F34CE
:10400600723431343F34FE3475343E3458346334BC
:104016003D3495341D343C34C534AE343A347934A9
:10402600213439349434803437349334A7343534D6
:1040360056341534343400340034003400348034BB
:104046003F34F034FF34BE34E234A9343E34833492
:104056007634BE34AE342B343E343C34C334BD34B3
:0C406600D23413343D347834D334BB34EE
:00000001FF
