:020000040000FA
:100C000086318B2E7E310800863174082000CD009D
:100C10007808CE007908CF007A08D0007B08D10090
:100C20007C08D2007D08D3007E08D4007F08D50060
:100C300030308600223087002100901E262E2000B2
:100C4000901E262E96313F268631772E2100101ECB
:100C5000302E2000101E302E943154248631772EF1
:100C60000B1F772E2100141C3C2E2000141C3C2E40
:100C700097310A278631772E2100911D652E20009D
:100C80009119442E111D652E5C08031D4B2E8B31CE
:100C9000FC238631772E5C080319772E2100111D65
:100CA0005E2E2000111D5E2E3708FF003608FE0064
:100CB0007F088A007E080A008631772E2100911D68
:100CC000772E20009119542E772E2100911C6F2E23
:100CD0002000911C6F2E9631CE268631772E210072
:100CE000111C772E2000111C772E9531FD25200038
:100CF0005508FF005408FE005308FD005208FC0090
:100D00005108FB005008FA004F08F9004E08F8009F
:100D10004D08F400090086318D2EDB3084008C30C4
:100D20008500EC308600233087000030F5008030ED
:100D30009431F4248631883101208631F300F93072
:100D400084008730850056308600003087000030F0
:100D5000F50007309431F42486316C30840024305F
:100D600085008430F4000330F5009431E8248631A6
:100D7000F001F101F20120308400003085002330C1
:100D8000F4000030F5009431E8248631A03084006E
:100D9000003085002430F4000030F5009431E82460
:100DA000200074308600203087008931E8294F31D7
:100DB0000130FF3F3730FD000630FE003C30FF00C1
:100DC0007D08FA3F7E08FB3F7F08FC3F3830FD007E
:100DD0000630FE003430FF007D08F73F7E08F83F04
:100DE0007F08F93F1230FD000330FE003C30FF0069
:100DF0007D08F43F7E08F53F7F08F63F0030F13F65
:100E0000F23FF33F6C30FE002430FF007E08FD3FD0
:100E10007F08FE3F0230200041060319C42F3F081F
:100E20000319152F94310B2486313D0803190A2F1D
:100E30003208023EFE000030333DFF007E081E00F7
:100E40007F081E0096318426863174081E007508BE
:100E50001E0076081E00743F1E00743F1E00743F83
:100E60001E008D31F925863174081E0075081E009C
:100E700076081E00200034081E0035081E0096313A
:100E80008426863174081E0075081E0076081E0030
:100E9000743F1E00743F1E00743F1E008D31F92503
:100EA000863174081E0075081E0076081E008E31FB
:100EB000A42686317D3F84007E3F85007408803FF4
:100EC0007508813F7608823F7F3F013EFF3F743FB8
:100ED0001E00743F1E00743F1E007A3F84007B3F5B
:100EE0008500003F1E00013F1E00023F1E008C31A6
:100EF00069248631031C982F2000C001C00A00001D
:100F00000000200090128731C72786319431C22417
:100F10008631000000007F3FFF00FF30FF077F08A1
:100F20007F077F072000B900BF01BD014008C52F22
:100F30007D3F84007E3F8500003F1E00013F1E0074
:100F4000023F1E006E3F1E006E3F1E006E3F1E00E1
:100F50008C3169248631031CB82F2000C001901207
:100F60008731C72786319431C22486310030C52F9E
:100F70002000BD017D3F033EFD3FF4017E3F743DF7
:100F8000FE3FB401B5010A2F013071310800433131
:100F90002000B401B5010030FD3FFE3FFF3F901E31
:100FA000DD2F0030FD3FFE3FFF3F003035023C307B
:100FB000031934020318F72F90120608840007085B
:100FC00085003D310130800701310030803D013125
:100FD0000030803D3E31003FFF3A031DF52F013FB9
:100FE000FF3A031DF52F023F023A031DCF2F7D313B
:100FF000080003347034023470340134AA340134EC
:1010000008005534210043100230C2000D289431ED
:101010001E24080094312224080030081E003108E4
:101020001E000430A03E84008501003FFE00013F09
:10103000FF007F088A007E080A008831023A0319FF
:101040000728013A031907280A280800443100300C
:10105000FC3FFD3F0030FE3FFF3F7B3FF4007F3F02
:101060007402031D37287A3FF4007E3F7402031C8C
:10107000422800007E3F013EFE3FF4017F3F743D69
:10108000FF3F2D287C3F013EFC3FF4017D3F743D36
:10109000FD3F7C3FFE007D3FFF0000307F0265305A
:1010A00003197E02031C2A287A3108009331F023A9
:1010B0008831FF0021003D0884003E0885007F083C
:1010C0008000BD0A0319BE0A0130BF020030C03BD8
:1010D0003F08400403197028943112240530080099
:1010E000C315782894312E24080094312A2408004E
:1010F0002C081E002D081E002108FF002008FE00FD
:101100007F088A007E080A008831013A0319752891
:10111000033A03197228013A03197228073A03198E
:1011200075287528080022008C018D0101308E0081
:10113000373021008C00F0308D00E1308E0023002C
:101140008E01E0308D0021308C0024008D018C0157
:101150008E0125008C018D0140308E003730260035
:101160008C00F0308D00FF308E003F3027008C0067
:10117000F0308D00FF308E00131212161116193048
:101180003D00A00002303C00A00018303D0092005D
:1011900010303C00A100210010160C303C009400DF
:1011A00008004231FE3F0030FF3F7E3F893113216E
:1011B0008831003A0319D528FF300607F600FF30C2
:1011C000073DF70076081E0077081E00A5301E00B8
:1011D00015301E0095310D25883101301E0000307C
:1011E0001E00FB300607F600FF30073DF7007608CB
:1011F0001E0077081E0095311A25883100301E0028
:1012000000301E001E0095310025883194313624AF
:101210008831963156268831013A0319092924006C
:1012200011087D3108004231FE3F0130FF3F2100AF
:10123000431955297E3FBC00C310431543100E309F
:10124000C100F430BA000130BB00C315E730A00084
:101250001330A100AC01AD01E730A2001330A300B0
:10126000AE01AF01E730A4001330A500B001B10119
:10127000E730A6001330A700B201B301EA30A8009E
:101280001330A900B401B501F6301E0013301E0062
:101290009431742489319431322489319431DD249C
:1012A0008931943160240030FF3F7F3F7E31080058
:1012B0002000420803195F299331FC2308007208BB
:1012C00003196E2903303E0603196E299431B9249F
:1012D0001110C201F201C101C10A0800720803190C
:1012E0008A2903303E06031D8A29013031027730F6
:1012F0000319300203188A299431B9248931111055
:10130000C201F201BE0170088B3132230930200086
:10131000C100080072080319080003303E06031DCF
:10132000080001303102773003193002031C080035
:101330009431B9241110C201F2010330C100080038
:1013400043318631D7268931003A0319E6296C30BA
:10135000FE002430FF007E08FD3F7F08FE3FAA30DC
:101360001E0001301E0070301E009631EA268931C1
:10137000200039081E0058081E0059081E0096312A
:10138000EA2689310030FF3F7F3F20003902031CED
:10139000E5297D3F84007E3F850000081E00560839
:1013A0001E0057081E009631EA2689312000D60A11
:1013B0000319D70A7D3F013EFD3FF4017E3F743D96
:1013C000FE3F7F3F013EFF3FC42900007D31080002
:1013D0009631B32689318A31362289318B170B1722
:1013E000272A953156258931272A89315821893173
:1013F000272A8931A0218931200040080319272A92
:10140000C0018E100000000020000E150930C10040
:10141000272A3C080319142A03302206031D122A26
:10142000C101C10ABC01272A7008031D272A3808F8
:10143000031D272A07301E006F308831D1208931E3
:1014400020000E1B272AC101C10AB801B80A0000FA
:1014500020004108013A0319F129033A0319F5293B
:10146000013A0319F929092A86318B2E41310030BE
:101470001E0070301E00953137258A31FF3F7F3FB7
:10148000AA3A031D4D2AFF301E0000301E007030A6
:101490001E009631EA268A313F2A72301E007030D3
:1014A0001E00953137258A31013A0319602A01302F
:1014B0001E0072301E0070301E009631EA268A31FE
:1014C00073301E0070301E00953137258A31023A84
:1014D0000319732A02301E0073301E0070301E0084
:1014E0009631EA268A319431C2248A319431B92462
:1014F0008A31F00170088B31322309302000C1009D
:10150000BE010E138030320098007F310800413157
:10151000FF3FC62A2000BA01BA0AD72A02302000AB
:10152000BA00D72A7308F100B42A7108EC3EFE0015
:10153000FF012330FF3D7E0884007F08850073088B
:101540008000F10A80307102031CB42AF101B42A30
:1015500020003A08003A0319952A013A0319922A01
:10156000033A0319B42A952ABA01D72A7108EC3E26
:10157000840085012330853D000824009100F10A94
:1015800080307102031CD72AF101D72A7F3F003A2D
:1015900003198A2A013A0319B62A033A0319A82A19
:1015A000013A0319D72A073A03198E2AD72A7F311D
:1015B00008004231943148248A31003A031DED2A53
:1015C0000C2B943116248A31302B94311A248A3111
:1015D000302B943122248A31302B210032081E0016
:1015E00033081E000630A03E84008501003FFE0047
:1015F000013FFF007F088A007E080A008A31013A15
:101600000319E92A033A0319E12A013A0319E52AE1
:10161000073A0319E92AE92A210043103E08FF008E
:101620003D08FE00BD0A0319BE0A7E0884007F083B
:1016300085000008943166248A3101302100BF0200
:101640000030C03B3F084004031D2B2B0630FE3FFB
:101650000030FF3F2F2B0330FE3F0030FF3F7E3F27
:101660007E3108004131FF3F7F3F0319532BAA30E1
:101670002000DB0021000E130000000020008E106F
:101680000000000020000E15000000002000DC011A
:10169000953167258B312000B8010E16000000003F
:1016A00020000E17932B7F3F031D932B21000E1359
:1016B00055302000DB000E13602B5A08031D642BED
:1016C000000020000E1B5D2B000020008E14000087
:1016D000000020000E150000000020005A08031D25
:1016E000802B30301E0075301E00883126208B3153
:1016F000000030301E0075301E00883126208B31EE
:1017000020000E120000000020000E11000000005A
:1017100020000E17DA01DC01DC0A9431B02421002C
:101720000E0880388E007F31080048310030FC3FC1
:10173000FD3FFE3FFF3F763FFE00773FFF007E0804
:10174000FC007F08FD000030FD1BFF30FE00FF00A5
:101750007C3FF8007D3FF9007E3FFA007F3FFB00B1
:101760007F087B02031DBE2B7E087A02031DBE2B61
:101770007D087902031DBE2B7C0878020318FA2B22
:101780000030F83FF93FFA3FFB3F00000000000047
:101790000000060884000708850038310130800702
:1017A00001310030803D01310030803D0131003099
:1017B000803D7B3F031DE92B7A3F031DE92B783FDA
:1017C000F40020307402793FF4000330743B031CB2
:1017D000C52B06088400070885003C3101308007CE
:1017E00001310030803D01310030803D0131003059
:1017F000803D9B2B763108002000BC0191113B08F5
:10180000203E84008501240011088000141D2B2C2B
:10181000941A161F102C03308A3187228B31282C02
:1018200020002103031D1E2C00301E0070301E00FE
:10183000953137258B31240091000000AA3020001B
:101840002106031D262C5B08240091002000BB010B
:10185000240015160800941E592C03302000200681
:10186000031D392CBB01240015162000C101C10A3B
:10187000080002302106031D582CBB012400151658
:10188000953128258B3100301E0070301E009531B7
:1018900037258B31AA3A0319572CAA301E00003085
:1018A0001E0070301E009631EA268B31432C010059
:1018B0000000200021083B06031D642CBC01BC0A6B
:1018C000BB01240015160800BB0A240015161516C6
:1018D00008007D3FFD007E3FFE007F3FFF00FF1FB1
:1018E000892C7D3FFD007E3FFE007F3FFF000030E2
:1018F000FA000030FB008030FC007D08FA027E0810
:10190000FB3B7F08FC3B7A08FD3F7B08FE3F7C08E1
:10191000FF3F7A3FFD007B3FFE007C3FFF00FF1F43
:10192000A92C7A3FFD007B3FFE007C3FFF0000308A
:10193000FA000030FB008030FC007D08FA027E08CF
:10194000FB3B7F08FC3B7A08FA3F7B08FB3F7C08A7
:10195000FC3F0030FD000030FE008030FF007D3F86
:101960007D06FD3F7E3F7E06FE3F7F3F7F06FF3FB9
:101970000030FD000030FE008030FF007A3F7D0621
:10198000FA3F7B3F7E06FB3F7C3F7F06FC3F7F3F6D
:10199000F4007C3F7402031DD72C7E3FF4007B3F94
:1019A0007402031DD72C7D3FF4007A3F7402031CA0
:1019B00003107A3108000034013402340334043453
:1019C000053406340734083409340A340B340C3433
:1019D0000D340E340F3410341134123413341434E3
:1019E000153416341734183419341A341B341C3493
:1019F0001D341E341F342034213422342334243443
:101A0000253426342734283429342A342B342C34F2
:101A10002D342E342F3430343134323433343434A2
:101A2000353436343734383439343A343B343C3452
:101A30003D343E343F344034413442344334443402
:101A4000453446344734483449344A344B344C34B2
:101A50004D344E344F345034513452345334543462
:101A6000553456345734583459345A345B345C3412
:101A70005D345E345F3460346134623463346434C2
:101A8000653466346734683469346A346B346C3472
:101A90006D346E346F347034713472347334743422
:101AA000753476347734783479347A347B347C34D2
:101AB0007D347E347F347C3F0319662D7F3FF400F4
:101AC0007E3FF4047D3FF404031D762DF401F501FF
:101AD000F601F72D7C3F013EFC3F7F3F8936FF3FFB
:101AE0007E3F890CFE3F7D3F890CFD3F7D3FFD0021
:101AF0007E3FFE007F3FFF00FE307F0503199A2DD9
:101B00006A2D7C3F013EFC3F0608840007088500E3
:101B10003D310130800701310030803D013100301E
:101B2000803D7F3F8936FF3F7E3F890CFE3F7D3FF2
:101B3000890CFD3F7D3FFD007E3FFE007F3FFF00A3
:101B4000FF307F050319BA2D812D7C3FFF00023045
:101B50007F02031CBD2D7C3FF40001307402FC3F6A
:101B600006088400070885003D3180350131800D6D
:101B70000131800D7E3F891FA52D7C3F0918CF2D97
:101B8000FF30FD007F30FE00FF30FF007D3F7D0510
:101B9000FD3F7E3F7E05FE3F7F3F7F05FF3F7C3F51
:101BA0008936FC3F7C3FFF00FE01FD017D3F7D0447
:101BB000FD3F7E3F7E04FE3F7F3F7F04FF3F7B3F34
:101BC0000319F12D0030FD000030FE008030FF00D1
:101BD0007D3F7D04FD3F7E3F7E04FE3F7F3F7F04CF
:101BE000FF3F7D3FF4007E3FF5007F3FF6007B31F5
:101BF00008004631773FFD00783FFE00793FFF0047
:101C000003107E0D7F0DFF3F89080319142E743FCA
:101C1000FD00753FFE00763FFF0003107E0D7F0D37
:101C2000FD3F8908031D182EF401F501F601A22ECF
:101C30007D3FFF007B30FF077F3F7F07FF3F793FFE
:101C4000FD3FF63006078400FF30073D85007D3FED
:101C5000F40000087406FD3F7D3F8039FD3F783F6A
:101C60008917F83F753F8917F53F0030F63F003080
:101C7000FA3FFB3FFC3F0730FE3F773F091C4F2EEA
:101C80007A3FF400743F7407FA3F7B3FF400753FDE
:101C9000743DFB3F7C3FF400763F743DFC3F793F51
:101CA0008936F93F783F890CF83F773F890CF73F39
:101CB0000608840007088500343180350131800D25
:101CC0000131800D7E3FF40001307402FE3F031DA0
:101CD0003D2E0930FE3F773F091C7D2E7A3FF400F0
:101CE000743F7407FA3F7B3FF400753F743DFB3F40
:101CF0007C3FF400763F743DFC3F793F8936F93FE5
:101D0000783F890CF83F773F890CF73F7C3F893655
:101D1000FC3F7B3F890CFB3F7A3F890CFA3F7E3FBB
:101D2000F40001307402FE3F031D6B2E7D3F1E0048
:101D30007E3F1E00783F1E00783F1E00783F1E0049
:101D40008D315B257431080043317A3FFD007B3FC4
:101D5000FE007C3FFF0003107E0D7F0DFD3F773FAF
:101D6000FD00783FFE00793FFF0003107E0D7F0DE0
:101D7000FE3F7D3F0319CC2E7D3FFF007E3F7F025B
:101D80000318D22E7D3FFF007E3FFE007F08FE023B
:101D900019307E02031CD22E773FF400783FF50005
:101DA000793FEA2E7E3F0319E52E7E3FFF007D3FFF
:101DB0007F020318EC2E7E3FFF007D3FFE007F0870
:101DC000FE0219307E02031CEC2E7A3FF4007B3FAA
:101DD000F5007C3FF600FE2F0630FF3F7A3FFD0006
:101DE0007B3FFE007C3FFF00FF1FF92E7F3F8038C6
:101DF000FF3F773FFD00783FFE00793FFF00FF1F68
:101E0000042F7F3F4038FF3F7B3F8917FB3F003067
:101E1000FC3F783F8917F83F0030F93F7D3FFF00D6
:101E20007E3F7F020318462F0608840007088500BE
:101E3000373180350131800D0131800D7E3FF40056
:101E400001307402FE3F7D3FFF007E3F7F06031995
:101E50003F2F7F3FF40001307402FF3F7F3F07397F
:101E600003193F2F142F7C3F8936FC3F7B3F890CA1
:101E7000FB3F7A3F890CFA3F7D3F013EFD3F7E3FAD
:101E8000FF007D3F7F0603197D2F332F7E3FFF002C
:101E90007D3F7F0203187D2F060884000708850018
:101EA0003A3180350131800D0131800D7D3FF400E4
:101EB00001307402FD3F7D3FFF007E3F7F06031926
:101EC000772F7F3FF40001307402FF3F7F3F0739D7
:101ED0000319772F4C2F793F8936F93F783F890CCA
:101EE000F83F773F890CF73F7E3F013EFE3F7E3F44
:101EF000FF007D3F7F06031D6B2F7F3F891F9C2FB7
:101F0000FF30FD00FF30FE00FF30FF007A3F7D060E
:101F1000FA3F7B3F7E06FB3F7C3F7F06FC3F060887
:101F20008400070885003A31013080070131003014
:101F3000803D01310030803D7F3F091FBB2FFF30C6
:101F4000FD00FF30FE00FF30FF00773F7D06F73FCA
:101F5000783F7E06F83F793F7F06F93F0608840008
:101F60000708850037310130800701310030803D9E
:101F700001310030803D0030FF3F773FF4007A3F71
:101F80007407F73F783FF4007B3F743DF83F793F9B
:101F9000F4007C3F743DF93F773FFD00783FFE0041
:101FA000793FFF00FF1FF22FFF30FD00FF30FE00E2
:101FB000FF30FF00773F7D06F73F783F7E06F83F12
:101FC000793F7F06F93F060884000708850037310E
:101FD0000130800701310030803D01310030803D0B
:101FE0000130FF3F7F3F1E007C3F1E00753F1E00FB
:101FF000753F1E00753F1E008D315B25773108004F
:1027BE0008000800240096140800240016150800CE
:1027CE0001307E31080005307E3108002400961558
:1027DE000800240011080800200091150800973108
:1027EE005427080020001F11080020001B140800A9
:1027FE0024009512080021009111080024001614DF
:10280E0008002000950108002000971708002400FA
:10281E009616161608002400961216160800933106
:10282E00E123013008009331E12302300800933197
:10283E00E123013008009331E42300300800943185
:10284E0012240530080094310E240A300800943109
:10285E000E240930080020009111111108000030DB
:10286E0096316D26080016302100970008002100D1
:10287E00C310C2010E3008002100C310C2010E3079
:10288E0008002400160E890C890C0139080021005D
:10289E0043109331ED23043008002700131E080067
:1028AE0096319B26080020009110000020001F1575
:1028BE00080021009115111591190800632C413162
:1028CE00FF3F7F3F240091007F3108002100431419
:1028DE003C3594316624033008007E3F2000B6005C
:1028EE007F3FB7007E3108007E3F2000C5007F3F4E
:1028FE00C6007E3108007E3F2000C9007F3FCA001F
:10290E007E3108007E3F2000C3007F3FC4007E3131
:10291E0008002100431403143C0D94316624053045
:10292E00080020001B087F3F9A007E3F99007E31F1
:10293E00080020004B081E004C081E0094319824FD
:10294E0008003200910192019301940195019601C4
:10295E000800240094010830950096014F30920033
:10296E009512080020001B10000000009431A024D6
:10297E00B001B1010800200097130000000094314F
:10298E000824B401B5010800013021009D00E0309B
:10299E009E009F019B019C0108006030320099004F
:1029AE009B019D0107309F009E0108002400951A8F
:1029BE00080094010830950096014F30920095164C
:1029CE0008006400800101310130F4020030F53B53
:1029DE007508740403190034E92CF40012001E006B
:1029EE000130F4020030F53B75087404031900340D
:1029FE00F52C7D3F1E0000301E007C3F1E007C3FEC
:102A0E001E0002309731A3277D3108007C3F1E0047
:102A1E007C3F1E007C3F1E007C3F1E000030973125
:102A2E00A3277C3108002100C31D262D7E3FBD004B
:102A3E007F3FBE007C3FBF007D3FC000C3117C3195
:102A4E000800B8301E000B301E009731D02795318C
:102A5E000000B8301E000B301E009731D027080042
:102A6E007E3F310091007F3F920015171514000034
:102A7E00000000000000310013087E310800FF3016
:102A8E0020009E009D0191102100911000301E002B
:102A9E0008301E009431892406309F00080070080B
:102AAE0003195B2DF001602D7008031D602DF001E0
:102ABE00F00A70088B31322309302000C100080063
:102ACE00C0302400940026309500803096000830E7
:102ADE009700FE3093001030920010302000A100BD
:102AEE009111210091150800833025009300940167
:102AFE009201910100301E0000301E008631022628
:102B0E00FC3025009F05200014102100141408002D
:102B1E0002301E0000301E007C3F1E007C3F1E0057
:102B2E0095311A25953100301E001E0000301E0012
:102B3E001E0095310D2504307E31080001301E0037
:102B4E0000301E007C3F1E007C3F1E0095311A2572
:102B5E00953100301E001E0000301E001E00953103
:102B6E000D2502307E31080002301E0000301E009E
:102B7E007C3F1E007C3F1E0095311A25953100309A
:102B8E001E001E0000301E001E0095310D25023065
:102B9E007E31080001301E0000301E007C3F1E00FA
:102BAE007C3F1E0095311A25953100301E001E0007
:102BBE0000301E001E0095310D2504307E310800B8
:102BCE0003302000BE008E140000000020000E1501
:102BDE0049084A04031908004A08FF004908FE0084
:102BEE007F088A007E080A00953108002000111027
:102BFE004B081E004C081E00943198249531B00AE3
:102C0E000319B10A01303102773003193002031C67
:102C1E0008009531E72508005030200098009601F5
:102C2E0095011608C800C7011508C70490122100A7
:102C3E009016DF301E0013301E0094317B2490302E
:102C4E0097000800203020009C009A0199011A0874
:102C5E00CC00CB011908CB04111021001114E03067
:102C6E001E0013301E009431822401309B00080098
:102C7E0020009012B40A0319B50A480896004708B6
:102C8E00950045084604031908004608FF0045084C
:102C9E00FE007F088A007E080A0096310800413146
:102CAE000130FF3F2100C3186A2E4311FF30BC00D4
:102CBE009431322496319431022496319331FF238C
:102CCE0021004208FF3F7F3F7F3108004231FE3F27
:102CDE000130FF3F2100C318812EC3140030FF3F87
:102CEE007E3F03197D2EC101C10A7F2E0230C10025
:102CFE00943105247F3F7E31080000301E008E3057
:102D0E001E007C3FFE007D3FFF007E08FD007F0819
:102D1E00FE00FF017D081E007E081E007F081E00BB
:102D2E008D315B257E31080014301E0000301E00F0
:102D3E008B319523963120000C1EA92EC201F20173
:102D4E00F20AAE2E0C1AAE2EF201C201C20A0230E7
:102D5E00C1002700131208009431A824963188313F
:102D6E00932096319431D424963194313A2496316D
:102D7E009431CB24963195317B259631963113269D
:102D8E009631963129269631953146250800200038
:102D9E00911000009331F9239631000094315A249A
:102DAE009631000005302000C10043084404031989
:102DBE0008004408FF004308FE007F088A007E08D2
:102DCE000A00963108008B137F3F310092007E3F40
:102DDE0091007D3F930015170000310015155530F9
:102DEE009600AA3096009514FE2E000000003100C9
:102DFE009518FC2E00000000310015110000000097
:102E0E008B177D3108002000141003304106031982
:102E1E00122F0430C10040080319182FB401B50158
:102E2E0008003F08031D202FBF01BF0A0530BE005A
:102E3E00080094310824250012082000B300250054
:102E4E0011082000B200BD01BD0A08007E3F8400BB
:102E5E007F3F8500003FFE00013FFF007E081E0001
:102E6E007F081E007C3FFE007D3FFF007E08840031
:102E7E007F088500023100081E0000301E009531CB
:102E8E001A25973100301E001E0000301E001E0055
:102E9E0095310D2502307E31080094313224973160
:102EAE002100431C632F943148249731003A0319B3
:102EBE00632F0F302100C10021004108FE00FF01E9
:102ECE00FE35FF0D00307E07840098307F3D850073
:102EDE00003FFE00013FFF007F088A007E080A00C7
:102EEE0097312100C10008002100C315882F9431AD
:102EFE001E2408009331F32303300800943122245A
:102F0E0008002C081E002D081E002108FF002008B6
:102F1E00FE007F088A007E080A009731013A0319E5
:102F2E00852F033A03197E2F013A03197E2F073A94
:102F3E000319812F852F08004131FF3F7D3F031973
:102F4E007E3F0319BD2F7F3F0935A03E84008501CA
:102F5E007D3F803F7E3F813F7F3F0935AC3E840001
:102F6E0085017B3F803F7C3F813FCE2F7F3F0935E0
:102F7E00A03E84008501E730803F1330813F7F3FC4
:102F8E000935AC3E840085010030803F813F7B31A6
:102F9E00080044310030FC3FFD3F0030FE3FFF3F54
:102FAE007B3FF4007F3F7402031DE12F7A3FF40054
:102FBE007E3F7402031CEC2F00007E3F013EFE3F5D
:102FCE00F4017F3F743DFF3FD72F7C3F013EFC3F16
:102FDE00F4017D3F743DFD3F7C3FFE007D3FFF00D1
:102FEE0003307F02E93003197E02031CD42F7A319D
:102FFE0008003E341434903414346D341434D934FF
:10300E000A34563408344E3414347B3417341634A0
:10301E0014341A3414341E34143422341434263432
:10302E0014342A3414342E34143443341434023405
:02303E00083454
:020000040001F9
:08000E00ECFFF3DFFFFFFFFF31
:00000001FF
