:020000040000FA
:100A000085314F2D080055347E1485312100901E0C
:100A1000102D2000901E102D9431DF2485314D2D96
:100A20002100101E1A2D2000101E1A2D9331912323
:100A300085314D2D0B1F4D2D2100141C262D20001E
:100A4000141C262D96318F2685314D2D2100911DA8
:100A50003B2D2000911D3B2D21006B08031D342DE3
:100A60008831822085314D2D6B0803194D2D85313C
:100A7000AE2585314D2D2100911C452D2000911C66
:100A8000452D9531102585314D2D2100111C4D2D01
:100A90002000111C4D2D953196257E1009008531C1
:100AA000512D5E3084008A308500EC308600233082
:100AB00087000030FF00803094312024853185315B
:100AC00003258531EE00A330840093308500E630A5
:100AD0008600003087000030FF000630943120246B
:100AE00085318D308400933085004C308600013094
:100AF00087000030FF0004309431202485316C30B1
:100B00008400243085008430FE000330FF009431DF
:100B10001424853164308400003085000A30FE00E2
:100B20000030FF00943114248531C530840000303A
:100B300085002130FE000030FF00943114248531FF
:100B400020308400013085002430FE000030FF009A
:100B5000943114247E10200097313E2F20009111F3
:100B60002400951FD52E95132100DE012000660874
:100B7000023E860087010108860087018101810A03
:100B8000E6010800C71808004608F20072082000B5
:100B9000E60021004608860087010108F20072087D
:100BA000DD00460886008701413F2000E700033052
:100BB000F20072082100C6074608E63A031DE42D3C
:100BC000E330F2007208C6004710460845060319D4
:100BD000C714240016140230F20072082100DE004F
:100BE00008007E2E2400161FFE2D0130F200720830
:100BF0002100C90704309431F724080020006D0853
:100C0000F3006C08F200F336F20C72082400910035
:100C100020006C1C112E0B30F20072082100DE0047
:100C200008000330F20072082100DE0008002400F2
:100C3000161F232E0130F20072082100C90704306C
:100C40009431F72408009614063020006D05F20058
:100C5000F0307204EC000030ED006C142100DA0179
:100C6000DA0AEB2D5A0303194F2E2000670886007D
:100C700001308700403FEC00413FED0067088600EF
:100C8000013087000130433F2100DC00200067086D
:100C90008600013087000130423F2100DB00200048
:100CA0006C082400910020006C1C112E0530F2000D
:100CB00072082100DE0008002400161F6A2E013091
:100CC000F20072082100C907240016130530943180
:100CD000F724080001302100DB025B0A031D812E8E
:100CE0000430F20072082000E70701302100DD0225
:100CF000031D7E2E00309431F72408002400961442
:100D0000EB2D5C088600870101082400910001306A
:100D1000F20072082100DC0708002400161F9B2E39
:100D20000130F20072082100C90704309431F72421
:100D300024001613080096150830F20072082100EE
:100D4000DE0008000830F2007208DE00240096156C
:100D5000080024001108F20021005C0886008701C9
:100D6000720881000130F2007208DC070130DB02FA
:100D70000319C22E240096120630F20072082100D8
:100D8000DE00C62E2400961694316A24240016161E
:100D9000080000309431F72408000130F200720896
:100DA000C90706309431F724080021005E08003A94
:100DB0000319C22D013A0319F12D033A0319322EFA
:100DC000013A03195C2E073A0319C92E013A031997
:100DD0008D2E033A0319A22E013A0319C92E0F3A98
:100DE0000319A92E023A0319F22D013A0319172EFD
:100DF000CD2E08002D08B3002E08B4002F08B50032
:100E00000310340D350DB6003608B9003008B300B4
:100E10003108B4003208B5000310340D350DB600AA
:100E20003608B80039080319212F38083902031889
:100E3000282F3808B3003908B30219303302031CD5
:100E4000282F3008AD003108AE003208AF0008008E
:100E5000380803190800390838020318372F3908F1
:100E6000B3003808B3021930330203180800063003
:100E7000B3003308B700AF1BB717B21B3717AE1755
:100E8000FF30AD05FF30AE050030AF05B117FF30C4
:100E9000B005FF30B1050030B2053808390203183B
:100EA000732F0130B035B10DB20D890B522F0130C7
:100EB000B8023808390603196E2F0130B702370817
:100EC000073903196E2F512F0130AF36AE0CAD0C20
:100ED000890B652F0130B3003308B907390838068C
:100EE0000319982F642F390838020318982F0130FE
:100EF000AD35AE0DAF0D890B782F0130B902380832
:100F000039060319942F0130B7023708073903193E
:100F1000942F772F0130B236B10CB00C890B8B2F88
:100F20000130B3003308B80739083806031D8A2F8B
:100F3000B71FAA2FFF30AD06FF30AE06FF30AF0659
:100F40000130AD07003003180130AE070030031840
:100F50000130AF07371FBC2FFF30B006FF30B1069E
:100F6000FF30B2060130B007003003180130B1077E
:100F7000003003180130B207B7012D08B0072E0862
:100F8000B13D2F08B23DB21FD72FFF30B006FF3062
:100F9000B106FF30B2060130B0070030031801304F
:100FA000B107003003180130B207B701B70A3008A3
:100FB000A1003108A2003208A3003908B3003308A9
:100FC000A4003708B4003408A50089319221210813
:100FD000AD002208AE002308AF0008002000A400E6
:100FE000A301241CF72F2108A2002208A307031045
:100FF000A10D0310A40C2408031DF12F23080800E1
:1010000008002100CE01CF0100302000A1000030F7
:10101000A2000030A300901E1D280030A100003067
:10102000A2000030A300003021004F023C30031921
:101030004E0203180800200090120130A107003072
:1010400003180130A207003003180130A307210A5A
:10105000031D0B28220A0230031923060319080076
:101060000B288C31C3248831003A031908006C30F6
:101070002100B1002430B20001302000A100703006
:10108000A200AA30E2006208A30096316C268831E3
:1010900002302000A1007030A2002100550820007D
:1010A000E2006208A30096316C2688312100B3016A
:1010B00033085502031C802867082000A200210085
:1010C00066082000A1002100310886003208870050
:1010D00001082000E2006208A30096316C268831E6
:1010E00001302100E6070030E73D0130B107003054
:1010F000B23D01302000E20062082100B307582809
:10110000000008002000911124001108F6002100C1
:101110005908203E860001308700760881002400AF
:10112000141DB328941A161F9A28033089313321CD
:101130008831B12822002003031DA7280030F000C9
:101140007030F10094312C24883124009100AA30B1
:1011500022002006031DAF285530240091002100F5
:10116000D9010000D428941EB128941ED42802303E
:1011700022002006031DCE282100D90124001516C7
:1011800094313A2488310030F0007030F100AA30F8
:10119000F6007608F2009531EF25010000000130DD
:1011A000F60076082100D907240015160800210052
:1011B00062080319DE2893318023080020006B08A1
:1011C0000319F128033068060319F1289331E92344
:1011D000200011102100E2012000EB01EA01EA0ADF
:1011E00008006B080319142903306806031D14292D
:1011F000013021004B02773003194A0203181429E9
:101200009331E9238831200011102100E2012000F0
:10121000EB01E80164088931F62109302100B200B0
:1012200032082000EA00080020006B0803190800BB
:1012300003306806031D0800013021004B0277309F
:1012400003194A02031C08009331E92320001110FE
:101250002100E2012000EB0103302100B20032083E
:101260002000EA000800F20080292100D701D70AF7
:1012700008000230F00070082100D70008002000AC
:101280006E08F0007008E500682920006508EC3E53
:10129000F000F1012330F13D7008860071088700ED
:1012A0006E0881000130F0007008E50780306502AB
:1012B000031C6829E501682921005708003A031931
:1012C0004529013A03193F29033A03196829452999
:1012D0002100D701080020006508EC3E8600870148
:1012E0002330873D0108240091000130F000700890
:1012F0002000E50780306502031C0800E5010800B6
:101300007208003A03193529013A03196B29033A87
:1013100003195C29013A03199129073A031939295C
:1013200091290800240803199A292308220421047A
:10133000031DAB290030A1000030A2000030A30043
:1013400008000130A6002608A4070130A336A20C2D
:10135000A10C890BA629FE3023050319C429A12954
:101360000130A6002608A4070130A10700300318A9
:101370000130A207003003180130A3070130A33663
:10138000A20CA10C890BBF29FF3023050319D52915
:10139000B02902302402031CD7290130A4020130F5
:1013A000A135A20DA30D890BD029A21FC92924188C
:1013B000DF29FF30A1057F30A205FF30A305031010
:1013C000A40C2408A600A701A8011030A635A70D7B
:1013D000A80D890BE6292608A1042708A2042808DD
:1013E000A304250803190800A3170800E3006308F5
:1013F0000319182A8D319C258931003A031D042ACE
:101400000130943108248931A13021008E00000080
:10141000000020008E100000000020000E150000CB
:1014200000002100EB0194317C2420000E160800FE
:101430006308031D08005530E20062082100EA003D
:1014400020000E170000E13021008E0064302000E3
:10145000A1000030A20096312D268931342A2100C6
:101460006908031D372A000020000E1B2F2A0000E8
:1014700020008E140000000020000E11000000006B
:1014800021006908031D552A30302000A100753065
:10149000A20096312D268931000030302000A100B5
:1014A0007530A20096312D26893120000E122100C0
:1014B000E901EB01EB0A96310E26080000340134F5
:1014C0000234033404340534063407340834093450
:1014D0000A340B340C340D340E340F341034113400
:1014E00012341334143415341634173418341934B0
:1014F0001A341B341C341D341E341F342034213460
:10150000223423342434253426342734283429340F
:101510002A342B342C342D342E342F3430343134BF
:10152000323433343434353436343734383439346F
:101530003A343B343C343D343E343F34403441341F
:1015400042344334443445344634473448344934CF
:101550004A344B344C344D344E344F34503451347F
:10156000523453345434553456345734583459342F
:101570005A345B345C345D345E345F3460346134DF
:10158000623463346434653466346734683469348F
:101590006A346B346C346D346E346F34703471343F
:1015A00072347334743475347634773478347934EF
:1015B0007A347B347C347D347E347F344308C600F7
:1015C0004408C7004508C8000310470D480DC9006E
:1015D0004908CE004E08031DF42A0030C000003038
:1015E000C1000030C20008004008C6004108C70022
:1015F0004208C8000310470D480DC9004908CF0034
:101600004F08031D0A2B0030C0000030C10000301D
:10161000C20008000030CB000030CC000030CD000C
:1016200089304F07C6004608CE024508C600460866
:10163000CF004208C6004608CF068030C6004608E4
:10164000CF05C417FF30C305FF30C4050030C50502
:10165000C117FF30C005FF30C1050030C20518308A
:10166000C6004608CA000130CB35CC0DCD0D890B24
:10167000342B42084502031D432B41084402031D3D
:10168000432B40084302031C4C2B4008C302410873
:10169000C43B4208C53B4B140130C335C40DC50DD6
:1016A000890B4D2B0130CA02031D332B4B08A100BF
:1016B0004C08A2004D08A3004E08C6004608A4002E
:1016C0004F08C7004708A500893192212108C000B2
:1016D0002208C1002308C20008005008D6005108A3
:1016E000D7005208D8000310570D580DD9005908DB
:1016F000DA005A08031D832B0030D0000030D100DF
:101700000030D20008005308D6005408D70055080E
:10171000D8000310570D580DD9005908DF005F0895
:10172000031D992B0030D0000030D1000030D200D2
:1017300008005F087B3ED6005608DA075208D6003C
:101740005608DF005508D6005608DF068030D60060
:101750005608DF05D117D417FF30D305FF30D40565
:101760000030D5050030DB000030DC000030DD004B
:101770000730D6005608DE00501CC42B5308DB0788
:101780005408DC3D5508DD3D0130D236D10CD00C7B
:10179000890BC52B0130D335D40DD50D890BCB2B3F
:1017A0000130DE02031DBC2B0930D6005608DE00D6
:1017B000501CE02B5308DB075408DC3D5508DD3D89
:1017C0000130D236D10CD00C890BE12B0130DD3643
:1017D000DC0CDB0C890BE72B0130DE02031DD82B60
:1017E0005B08A1005C08A2005D08A3005A08D600AF
:1017F0005608A4005F08D7005708A5008931922138
:101800002108D0002208D1002308D20008005C3053
:101810002000D3005308DF0021006608023E2000AC
:10182000A10000302100673D2000A200943149242E
:101830008C312000D300D401D5015F0886008701D8
:101840005308C03F5408C13F5508C23F5F08860097
:101850008701403FD300413FD400423FD5000830CC
:10186000D335D40DD50D890B302C5F088600870148
:101870005308C03F5408C13F5508C23F5F08860067
:101880008701403FD300413FD400423FD5002100B3
:101890006608013E2000A10000302100673D2000C5
:1018A000A200943149248C312000D600D701D80100
:1018B0005608D3045708D4045808D5045F08860096
:1018C00087015308C03F5408C13F5508C23F5F0815
:1018D00086008701403FD300413FD400423FD500FE
:1018E0000830D335D40DD50D890B712C5F088600D7
:1018F00087015308C03F5408C13F5508C23F5F08E5
:1019000086008701403FD300413FD400423FD500CD
:10191000210067082000A200210066082000A10025
:10192000943149248C312000D600D701D8015608C3
:10193000D3045708D4045808D5045F0886008701EB
:101940005308C03F5408C13F5508C23F21006608F4
:10195000033EE6000030673DE70000302000C00095
:101960008030C1003F30C2005C08C3005D08C40085
:101970005E08C5008A31DE225C08D0005D08D10017
:101980005E08D20008002100AE01AE0A3730A50083
:101990000630A6003C30A7003830A8000630A90069
:1019A0003430AA001230AB000330AC003C30AD0044
:1019B0006C30AF002430B000023020006A060319FA
:1019C0009A2D210060080319E82C933186238C316D
:1019D00021005F080319DC2C25082000D00021001D
:1019E00026082000D100210027082000D200210075
:1019F0004F082000AA0021004E082000A9009431C1
:101A00008E248C312908D3002A08D4002B08D50055
:101A10008B316D238C315008AD005108AE00520857
:101A2000AF00210028082000D00021002908200054
:101A3000D10021002A082000D20021004C08023EDB
:101A40002000A900003021004D3D2000AA00943163
:101A50008E248C312908D3002A08D4002B08D50005
:101A60008B316D238C315008B0005108B100520801
:101A7000B2008631FA268C3121002F08860030080A
:101A8000870020002D08C03F2E08C13F2F08C23F0D
:101A90000130E00060082100AE072F088600300802
:101AA0008700403F2000A900413FAA00423FAB0011
:101AB00021002B082000AC0021002C082000AD00E4
:101AC00021002D082000AE009631E1268C31031C48
:101AD0008A2DE901E90A00000000200090128831F7
:101AE00001208C319331F3238C310000000003304E
:101AF0002000E0006008A10021002E08FF3E873191
:101B0000EE27E10061082100D500E001DF0120009F
:101B1000690808002100DF015408023E2000E000AF
:101B200060082100D4000330AF070030B03DCE0183
:101B3000CF01DC2C0130080033302100A6005330E7
:101B4000A7003B30A8004030AF001C30B00046304A
:101B5000B1004030AC001C30AD004630AE002C0867
:101B60002000AD0021002D082000AE0021002E082D
:101B70002000AF0021002F082000B0002100300815
:101B80002000B100210031082000B2008631FA2681
:101B90008D312D08C0002E08C1002F08C200003072
:101BA000D000B030D1004030D20021002F082000FA
:101BB000D300210030082000D4002100310820008B
:101BC000D5008B316D238D315008C3005108C400FE
:101BD0005208C5008A31DE228D3140082100A00064
:101BE000200041082100A100200042082100A2009D
:101BF0002C082000AD0021002D082000AE0021009F
:101C00002E082000AF0021002F082000B000210086
:101C100030082000B100210031082000B2008631D8
:101C2000FA268D312D08C0002E08C1002F08C200F1
:101C3000CD30D0009C30D1004030D20021002F08A0
:101C40002000D300210030082000D40021003108FA
:101C50002000D5008B316D238D315008C300510811
:101C6000C4005208C5008A31DE228D3140082100AF
:101C7000A300200041082100A40020004208210008
:101C8000A50026082000D000210027082000D10050
:101C9000210028082000D2000F309631B8268D315F
:101CA0002208AA002108A90094318E248D31290828
:101CB000D3002A08D4002B08D5008B316D238D3139
:101CC00050082200B500200051082200B600200074
:101CD00052082200B700210023082000A90021009B
:101CE00024082000AA00210025082000AB002200C3
:101CF00035082000AC00220036082000AD0022008C
:101D000037082000AE009631E1268D3103188A2E67
:101D100001308B2E0030E000E1016008AF00610867
:101D2000B00096314C268D312F082100A9002000EB
:101D300030082100AA00200031082100AB0029084A
:101D40002000A90021002A082000AA0021002B0859
:101D50002000AB00210020082000AC002100210859
:101D60002000AD00210022082000AE009631E126BF
:101D70008D310318BD2E01300800003008003330CB
:101D80002100B6000330B7004130B8000030B90080
:101D90000030BA000030BB00CD302000C0004C3015
:101DA000C1004030C200210036082000C3002100DD
:101DB00037082000C400210038082000C5008A31FF
:101DC000DE228E3140082100B600200041082100AB
:101DD000B700200042082100B8008C31C3248E31A6
:101DE000003A03190800E9016C302100BC002430DE
:101DF000BD00BE018C3107248E3150082100BF0088
:101E0000200051082100C000200052082100C1001C
:101E100000302000D0002030D1004130D20021001D
:101E20003F082000AD00210040082000AE00210046
:101E300041082000AF0021003C0886003D088700D3
:101E4000403F2000B000413FB100423FB200863128
:101E5000FA268E312D08C0002E08C1002F08C200BE
:101E600021003F082000BA00210040082000BB00EC
:101E7000210041082000BC0021003C0886003D08EC
:101E80008700403F2000BD00413FBE00423FBF00F1
:101E900095317A258E313A08C3003B08C4003C08CE
:101EA000C5008A31DE228E314008D3004108D400BB
:101EB0004208D5008B316D238E3150082100C200BD
:101EC000200051082100C300200052082100C40056
:101ED00042082000A900210043082000AA00210098
:101EE00044082000AB000030AC000030AD000030F2
:101EF000AE009631E1268E3103189E2F0030D000BF
:101F00008030D100BF30D200210042082000D30031
:101F1000210043082000D400210044082000D500FF
:101F20008B316D238E3150082100C20020005108F2
:101F30002100C300200052082100C40021003908FC
:101F40002000A90021003A082000AA0021003B0837
:101F50002000AB00210042082000AC002100430813
:101F60002000AD00210044082000AE009631E1269B
:101F70008E310318C22F21004208B9004308BA006D
:101F80004408BB0000302000A9004030AA004030C7
:101F9000AB00210042082000AC00210043082000D3
:101FA000AD00210044082000AE009631E1268E31BC
:101FB000031CDC2F0000E82F03302100E600703006
:101FC000E70009302000E2006208EA000030080063
:101FD00003302100BC070030BD3D01302000E2008D
:101FE00062082100BE0713303E02031CFA2E0330A4
:101FF000E6007030E7002000EA01EA0A013008003C
:1026F200080020009501080020001F11080020009A
:102702001B140800200095010800200097170800FC
:102712001630210097000800023470341734043454
:102722002700131E08009531D125080020009110C2
:10273200000020001F1508001B0822089A0021082B
:10274200990008000334703401340134AA3401348E
:1027520020001B0871089A007008990008000130D7
:102762009D00E0309E009F019B019C010800220811
:102772002200CB00200021082200CA0008003200FB
:10278200910192019301940195019601080022089A
:102792002200C700200021082200C60008002208EB
:1027A2002200C900200021082200C80008002208D7
:1027B2002200C500200021082200C4000800603069
:1027C200320099009B019D0107309F009E01080085
:1027D20020001B10000000009331FD232100CA01DC
:1027E200CB010800200097130000000093318323DF
:1027F2002100CE01CF01080021006F082000A200B5
:1028020021006E082000A10093319D230800A10041
:102812000B2C0A2C2108013A03190A2C033A03193A
:10282200132C132C08006400800101310130FE02D8
:102832000030FF3B7F087E0403190034152CFE0094
:1028420012001E000130FE020030FF3B7F087E04B2
:1028520003190034212C7108310092007008910094
:1028620015171514000000000000000031001308C5
:102872000800B830F0000B30F1009531B3259431E7
:102882000000B830F0000B30F1009531B32508009C
:102892002208310092002000210831009100151712
:1028A20015140000000000000000310013080800A9
:1028B200FF309E009D0191102100911002302000F6
:1028C200A1000530A2009331D823063020009F00DA
:1028D20008000430F00070082000E70701302100F2
:1028E200DD02031D792C0430F0007008DE000800C0
:1028F200DE01DE0A0800C030240094002630950074
:102902008030960008309700FE309300103092001D
:10291200200091112100911508002908A1002A0820
:10292200A200A3018E30AC002C08A400A5018931BD
:1029320092212108A9002208AA002308AB0008005E
:1029420064080319A62CE401AB2C6408031DAB2C0C
:10295200E401E40A64088931F62109302100B20059
:1029620032082000EA0008000330F000700820005E
:10297200E8008E140000000020000E152200480816
:1029820049040319080049088A0048080A009431DA
:1029920008008330250093009401920191010030D8
:1029A2002000A1000030A2009331B823FC302500A2
:1029B2009F05200014102100141408009012013009
:1029C2002100CE070030CF3D6D0820009600210087
:1029D2006C082000950022004608470403190800ED
:1029E20047088A0046080A0094310800F1002400D2
:1029F200161520006608023E8600870101080319A9
:102A02000D2D7108F0006608023E8600870101085C
:102A120086008701700881002100DE010800911004
:102A2200000093317D239531000093319723953136
:102A320000000530F00070082000EA00220044087F
:102A420045040319080045088A0044080A00953124
:102A5200080020309C009A0199011A082100EF0019
:102A6200200019082100EE0020001110210011148D
:102A720000302000A1000830A2009331D0230130A1
:102A820020009B000800503020009800960195011C
:102A920016082100ED00200015082100EC0020009E
:102AA20090122100901679302000A1001330A2006C
:102AB2009331C82390302000970008009331C0233F
:102AC20095319731792795319331E02395319331BF
:102AD200892395319331B02395319431CA249531AC
:102AE20095314425953195312A25953194315924D2
:102AF20008003C083B043A040319812D8030BC06CF
:102B02003D08AD003E08AE003F08AF003A08B000F5
:102B12003B08B1003C08B2008631FA262D08BA0003
:102B22002E08BB002F08BC000800111021006F08FE
:102B3200F1006E08F0009331A92395310130210094
:102B4200CA070030CB3D01304B02773003194A02ED
:102B5200031CAD2D9431B52421004A08F2007208FD
:102B6200E1000800F401F501F201F30173087102BA
:102B7200031DBD2D72087002031CC52D000001301B
:102B8200F2070030F33DB72D0130F4070030F53D78
:102B920003307502E9300319740203180800B52DD9
:102BA2001430F0000030F1009731B6279531200043
:102BB2000C1EE12D2100E2012000EB01EB0AE72DC2
:102BC2000C1AE72DEB012100E201E20A023020009B
:102BD200A0002008EA002700131208008B137108D6
:102BE20031009200700891007208930015170000DE
:102BF2003100151555309600AA3096009514032E13
:102C02000000000031009518012E00000000310084
:102C12001511000000008B170800E3302000A1000E
:102C220021082100C600E3302000A1002108210074
:102C3200C500C7144710C901C030240094002830D1
:102C42009500083097000330920020009111111175
:102C52002100911511150800A501A601A301A401E7
:102C620024082202031D372E23082102031C402EB2
:102C7200000001302000A3070030A43D312E0130B6
:102C8200A5070030A63D0030260265300319250253
:102C9200031808002F2EB401B01F562EAF09B00939
:102CA200AF0A0319B00AB401B40A2F08A100300810
:102CB200A200A3018E30B2003208A4003408B3008F
:102CC2003308A500893192212108AF002208B00003
:102CD2002308B10008008B13220831009200200063
:102CE20021083100910020002308310093001517BC
:102CF20000003100151555309600AA309600951443
:102D0200842E0000000031009518822E0000000081
:102D120031001511000000008B1708001410033059
:102D22006A060319982E0430F0007008EA00690858
:102D320003199F2E2100CE01CF0108002100600857
:102D4200031DAB2EE001E00A0530F0007008200000
:102D5200E800080093317A23250012082100CD00F3
:102D6200250011082100CC00DF01DF0A0800A400C1
:102D720021001D10000020002408A300A30DA30DB4
:102D820021001D08200023060339230621009D008F
:102D9200000021001D140D30890BCD2E00002100F2
:102DA2009D14000021009D1CD92E00000000D32E8E
:102DB2001C082000A20021001B082000A10008001E
:102DC200AB1FF02E2908003CA9002A08031C2A0F79
:102DD200003CAA002B08031C2B0F803CAB00AE1F4B
:102DE200FF2E2C08003CAC002D08031C2D0F003CCC
:102DF200AD002E08031C2E0F803CAE008030AB06C7
:102E02008030AE062E082B02031D08002D082A0270
:102E1200031D08002C08290208000030A1007030B0
:102E2200A2009431492497312100B2003208B30044
:102E3200AA303306031D2B2F00302000A100703072
:102E4200A200FF302100B20032082000A300963118
:102E52006C2697319331F32397319331E9239731DC
:102E62002000E40164088931F62109302100B20012
:102E720032082000EA00E801080095315F25973109
:102E820097310E2797318B170B17682F9431A12496
:102E92009731682F8831D7209731682F88313120B8
:102EA2009731200069080319682FE9016408893104
:102EB200F621973109302200D00050082000EA00A4
:102EC200682F8E31BF269731003A031DE901200099
:102ED2006A08013A0319472F033A03194B2F013AA3
:102EE20003194F2F073A0319622F682F85314F2D8F
:102EF20022008C018D0101308E00373021008C00C0
:102F0200F0308D00E1308E0023008E01E0308D0024
:102F120021308C0024008D018C018E0125008C0152
:102F22008D018E01373026008C00F0308D00FF308D
:102F32008E003F3027008C00F0308D00FF308E0075
:102F420013121216111619303D00A00002303C0077
:102F5200A00018303D00920010303C00A10021007A
:102F620010160C303C00940008000030F9000030CC
:102F7200F8000030F7000030F6007008F200710827
:102F8200F3000030F31BFF30F400F50075087902FE
:102F9200031DD52F74087802031DD52F73087702FD
:102FA200031DD52F72087602031808000030FD00B9
:102FB2000030FC000030FB000030FA00000000008E
:102FC200000000000130FA070030FB3D0030FC3DFC
:102FD2000030FD3D7D08031DF72F7C08031DF72FF0
:102FE20020307A0203307B3B031CDF2F0130F607CF
:0E2FF2000030F73D0030F83D0030F93DBE2FB5
:00000001FF
