:020000040000FA
:100A00008531762D7E310800853174082000DE00A6
:100A10007808DF007908E0007A08E1007B08E2004E
:100A20007C08E3007D08E4007E08E5007F08E6001E
:100A300000308600003087002100901E262D200007
:100A4000901E262D953108258531622D2100101E1E
:100A5000302D2000101E302D9331BF238531622DA3
:100A60000B1F622D2100141C3C2D2000141C3C2D5A
:100A70009531DB258531622D2100911D502D2000FF
:100A8000911D502D6C08031D492D88313020853172
:100A9000622D6C080319622D8E31EF268531622D8F
:100AA0002100911C5A2D2000911C5A2D9531812531
:100AB0008531622D2100111C622D2000111C622D38
:100AC0009431C62420006608FF006508FE00640813
:100AD000FD006308FC006208FB006108FA00600882
:100AE000F9005F08F8005E08F40009008531782DF0
:100AF000083084008A308500EC308600233087007F
:100B00000030F50080309431312485319331AE23AB
:100B10008531F300CB308400933085006730860048
:100B2000003087000030F5000630943131248531E3
:100B30006C308400243085008430F4000330F500EC
:100B4000943125248531F001F101F2012030840037
:100B5000003085003430F4000030F5009431252455
:100B60002100A001A101A201A301A40120000030E5
:100B70008600003087009631FC2E43317A3FFD001D
:100B80007B3FFE007C3FFF0003107E0D7F0DFD3F8D
:100B9000773FFD00783FFE00793FFF0003107E0D98
:100BA0007F0DFE3F7D3F0319E52D7D3FFF007E3F1A
:100BB0007F020318EB2D7D3FFF007E3FFE007F0884
:100BC000FE0219307E02031CEB2D773FF400783FC4
:100BD000F500793F032E7E3F0319FE2D7E3FFF0077
:100BE0007D3F7F020318052E7E3FFF007D3FFE0004
:100BF0007F08FE0219307E02031C052E7A3FF400A6
:100C00007B3FF5007C3FF600172F0630FF3F7A3F11
:100C1000FD007B3FFE007C3FFF00FF1F122E7F3F49
:100C20008038FF3F773FFD00783FFE00793FFF00AF
:100C3000FF1F1D2E7F3F4038FF3F7B3F8917FB3F43
:100C40000030FC3F783F8917F83F0030F93F7D3F87
:100C5000FF007E3F7F0203185F2E0608840007080E
:100C60008500373180350131800D0131800D7E3FA7
:100C7000F40001307402FE3F7D3FFF007E3F7F069F
:100C80000319582E7F3FF40001307402FF3F7F3F6D
:100C900007390319582E2D2E7C3F8936FC3F7B3FA8
:100CA000890CFB3F7A3F890CFA3F7D3F013EFD3FB7
:100CB0007E3FFF007D3F7F060319962E4C2E7E3F20
:100CC000FF007D3F7F020318962E06088400070868
:100CD00085003A3180350131800D0131800D7D3F35
:100CE000F40001307402FD3F7D3FFF007E3F7F0630
:100CF0000319902E7F3FF40001307402FF3F7F3FC5
:100D000007390319902E652E793F8936F93F783FD0
:100D1000890CF83F773F890CF73F7E3F013EFE3F4D
:100D20007E3FFF007D3F7F06031D842E7F3F891F8E
:100D3000B52EFF30FD00FF30FE00FF30FF007A3F90
:100D40007D06FA3F7B3F7E06FB3F7C3F7F06FC3FF4
:100D500006088400070885003A3101308007013118
:100D60000030803D01310030803D7F3F091FD42E8F
:100D7000FF30FD00FF30FE00FF30FF00773F7D06B3
:100D8000F73F783F7E06F83F793F7F06F93F060838
:100D900084000708850037310130800701310030B9
:100DA000803D01310030803D0030FF3F773FF4004F
:100DB0007A3F7407F73F783FF4007B3F743DF83F7C
:100DC000793FF4007C3F743DF93F773FFD00783F69
:100DD000FE00793FFF00FF1F0B2FFF30FD00FF30AB
:100DE000FE00FF30FF00773F7D06F73F783F7E062D
:100DF000F83F793F7F06F93F060884000708850021
:100E000037310130800701310030803D0131003041
:100E1000803D0130FF3F7F3F1E007C3F1E00753F3D
:100E20001E00753F1E00753F1E008A3188227731F3
:100E300008004F313330FD005330FE003B30FF00DF
:100E40007D08F73F7E08F83F7F08F93F4030FD00FE
:100E50001C30FE004630FF007D08F13F7E08F23F67
:100E60007F08F33F4030FD001C30FE004630FF009D
:100E70007D08F43F7E08F53F7F08F63F713F1E0076
:100E8000713F1E00713F1E0000301E00B0301E007A
:100E900040301E008B31CC23873174081E0075084A
:100EA0001E0076081E006E3F1E006E3F1E006E3F45
:100EB0001E006E3F1E006E3F1E006E3F1E008531FD
:100EC000BD25873174081E0075081E0076081E00B7
:100ED0008B31262387317408FD3F7508FE3F760865
:100EE000FF3F713F1E00713F1E00713F1E00CD305D
:100EF0001E009C301E0040301E008B31CC238731F9
:100F000074081E0075081E0076081E006E3F1E0045
:100F10006E3F1E006E3F1E006E3F1E006E3F1E00A5
:100F20006E3F1E008531BD25873174081E0075088F
:100F30001E0076081E008B31262387317408FA3F85
:100F40007508FB3F7608FC3F0F309531FE25873151
:100F500074081E0075081E0095311F25873174081E
:100F60001E0075081E0076081E00743F1E00743FA8
:100F70001E00743F1E008B31CC2387317408200083
:100F8000AC007508AD007608AE007D3F1E007D3FC9
:100F90001E007D3F1E002C081E002D081E002E087E
:100FA0001E00743F1E00743F1E00743F1E008931F6
:100FB000962187310318DE2F0130DF2F0030FE002D
:100FC000FF017E081E007F081E00963170268731C3
:100FD00074081E0075081E0076081E0089319621CF
:100FE00087310318F52F0130F62F003071310800DA
:100FF000320091019201930194019501960108003C
:1010000044310030FC3FFD3F0030FE3FFF3F7B3F5F
:10101000F4007F3F7402031D11287A3FF4007E3FE5
:101020007402031C1C2800007E3F013EFE3FF401B9
:101030007F3F743DFF3F07287C3F013EFC3FF401AA
:101040007D3F743DFD3F7C3FFE007D3FFF00003053
:101050007F02653003197E02031C04287A310800E0
:10106000200091113D08203E8400850124001108D4
:101070008000141D5C28941A161F43280330883101
:101080007A2088315A2820002003031D5028003080
:101090001E0070301E0094315A24883124009100C3
:1010A000AA3020002006031D582855302400910046
:1010B0002000BD0100007728941E5A28941E77282E
:1010C000023020002006031D7428BD0124001516DF
:1010D00094314B248831AA301E0000301E0070303D
:1010E0001E009531BB25010000002000BD0A240030
:1010F000151608004131FF3FBB282000BB01BB0A89
:10110000CC2802302000BB00CC287308BC00A728E4
:101110003C08EC3EFE00FF012330FF3D7E088400CA
:101120007F08850073088000BC0A80303C02031CE5
:10113000A728BC01A72820003B08003A03198828EB
:10114000013A03198528033A0319A7288828BB0107
:10115000CC2820003C08EC3E840085012330853DEE
:101160000008240091002000BC0A80303C02031CCF
:10117000CC28BC01CC287F3F003A03197D28013AD6
:101180000319A928033A03199B28013A0319CC280B
:10119000073A03198128CC287F3108004131FF3FED
:1011A0007F3F0319F228873119278831003A031D40
:1011B000DD28013094313D248831A13021008E009A
:1011C0000000000020008E100000000020000E151E
:1011D000000000002000EC0194318A2488312000B6
:1011E0000E162D297F3F031D2D2920000E1700000C
:1011F000E13021008E0064301E0000301E00883176
:101200000020883107296B08031D0A2900002000EF
:101210000E1B0329000020008E1400000000200097
:101220000E110000000020006B08031D262930303D
:101230001E0075301E0088310020883100003030DB
:101240001E0075301E0088310020883120000E12EB
:10125000EB01EC01EC0A95314E257F310800483155
:101260000030FC3FFD3FFE3FFF3F763FFE00773FF3
:10127000FF007E08FC007F08FD000030FD1BFF30F2
:10128000FE00FF007C3FF8007D3FF9007E3FFA0042
:101290007F3FFB007F087B02031D58297E087A02EE
:1012A000031D58297D087902031D58297C087802FE
:1012B000031894290030F83FF93FFA3FFB3F000044
:1012C000000000000000060884000708850038318F
:1012D0000130800701310030803D01310030803D18
:1012E00001310030803D7B3F031D83297A3F031D80
:1012F0008329783FF40020307402793FF4000330F2
:10130000743B031C5F2906088400070885003C31F4
:101310000130800701310030803D01310030803DD7
:1013200001310030803D3529763108007D3FFD00D8
:101330007E3FFE007F3FFF00FF1FB6297D3FFD007F
:101340007E3FFE007F3FFF000030FA000030FB00D0
:101350008030FC007D08FA027E08FB3B7F08FC3BE6
:101360007A08FD3F7B08FE3F7C08FF3F7A3FFD0087
:101370007B3FFE007C3FFF00FF1FD6297A3FFD0028
:101380007B3FFE007C3FFF000030FA000030FB0096
:101390008030FC007D08FA027E08FB3B7F08FC3BA6
:1013A0007A08FA3F7B08FB3F7C08FC3F0030FD00D9
:1013B0000030FE008030FF007D3F7D06FD3F7E3F18
:1013C0007E06FE3F7F3F7F06FF3F0030FD0000307E
:1013D000FE008030FF007A3F7D06FA3F7B3F7E06AD
:1013E000FB3F7C3F7F06FC3F7F3FF4007C3F740265
:1013F000031D042A7E3FF4007B3F7402031D042A70
:101400007D3FF4007A3F7402031C03107A31080018
:101410000034013402340334043405340634073410
:10142000083409340A340B340C340D340E340F34C0
:101430001034113412341334143415341634173470
:10144000183419341A341B341C341D341E341F3420
:1014500020342134223423342434253426342734D0
:10146000283429342A342B342C342D342E342F3480
:101470003034313432343334343435343634373430
:10148000383439343A343B343C343D343E343F34E0
:101490004034413442344334443445344634473490
:1014A000483449344A344B344C344D344E344F3440
:1014B00050345134523453345434553456345734F0
:1014C000583459345A345B345C345D345E345F34A0
:1014D0006034613462346334643465346634673450
:1014E000683469346A346B346C346D346E346F3400
:1014F00070347134723473347434753476347734B0
:10150000783479347A347B347C347D347E347F345F
:101510007C3F0319932A7F3FF4007E3FF4047D3F14
:10152000F404031DA32AF401F501F601242B7C3FEA
:10153000013EFC3F7F3F8936FF3F7E3F890CFE3FE7
:101540007D3F890CFD3F7D3FFD007E3FFE007F3FDC
:10155000FF00FE307F050319C72A972A7C3F013E12
:10156000FC3F06088400070885003D3101308007F4
:1015700001310030803D01310030803D7F3F8936B0
:10158000FF3F7E3F890CFE3F7D3F890CFD3F7D3F45
:10159000FD007E3FFE007F3FFF00FF307F05031907
:1015A000E72AAE2A7C3FFF0002307F02031CEA2AB2
:1015B0007C3FF40001307402FC3F060884000708F9
:1015C00085003D3180350131800D0131800D7E3F38
:1015D000891FD22A7C3F0918FC2AFF30FD007F308A
:1015E000FE00FF30FF007D3F7D05FD3F7E3F7E0515
:1015F000FE3F7F3F7F05FF3F7C3F8936FC3F7C3FBE
:10160000FF00FE01FD017D3F7D04FD3F7E3F7E0426
:10161000FE3F7F3F7F04FF3F7B3F03191E2B0030BF
:10162000FD000030FE008030FF007D3F7D04FD3F67
:101630007E3F7E04FE3F7F3F7F04FF3F7D3FF400FF
:101640007E3FF5007F3FF6007B3108004631743F56
:10165000FD00753FFE00763FFF0003107E0D7F0DFD
:10166000FE3F89080319412B773FFD00783FFE00BC
:10167000793FFF0003107E0D7F0DFD3F8908031D9C
:10168000452BF401F501F601CA2B0030FA3FFB3F70
:10169000FC3F7D3FFF008930FF077E3FF4007F085D
:1016A0007402FE3F763FFD3FF93006078400FF30AD
:1016B000073D85007D3FF40000087406FD3F7D3F37
:1016C0008039FD3F753F8917F53F0030F63F783F81
:1016D0008917F83F0030F93F1830FF3F06088400B3
:1016E000070885003A3180350131800D0131800DC8
:1016F000763FF400793F7402031D882B753FF40098
:10170000783F7402031D882B743FF400773F740206
:10171000031CAD2B773FFD00783FFE00793FFF00B3
:10172000060884000708850034317D0880020131F5
:101730007E08803B01317F08803B3E310130FD0057
:101740000030FE000030FF007A3F7D04FA3F7B3F0F
:101750007E04FB3F7C3F7F04FC3F060884000708B3
:101760008500343180350131800D0131800D7F3F9E
:10177000F40001307402FF3F031D6E2B7D3F1E00FD
:101780007D3F1E00783F1E00783F1E00783F1E0000
:101790008A318822743108004631773FFD00783F56
:1017A000FE00793FFF0003107E0D7F0DFF3F89088B
:1017B0000319E72B743FFD00753FFE00763FFF00E5
:1017C00003107E0D7F0DFD3F8908031DEB2BF401F7
:1017D000F501F601752C7D3FFF007B30FF077F3F51
:1017E0007F07FF3F793FFD3FF63006078400FF305B
:1017F000073D85007D3FF40000087406FD3F7D3FF6
:101800008039FD3F783F8917F83F753F8917F53FCD
:101810000030F63F0030FA3FFB3FFC3F0730FE3F11
:10182000773F091C222C7A3FF400743F7407FA3F7B
:101830007B3FF400753F743DFB3F7C3FF400763FF7
:10184000743DFC3F793F8936F93F783F890CF83F7A
:10185000773F890CF73F060884000708850034317C
:1018600080350131800D0131800D7E3FF400013063
:101870007402FE3F031D102C0930FE3F773F091C08
:10188000502C7A3FF400743F7407FA3F7B3FF4001A
:10189000753F743DFB3F7C3FF400763F743DFC3F59
:1018A000793F8936F93F783F890CF83F773F890CBB
:1018B000F73F7C3F8936FC3F7B3F890CFB3F7A3FFB
:1018C000890CFA3F7E3FF40001307402FE3F031D95
:1018D0003E2C7D3F1E007E3F1E00783F1E00783F5D
:1018E0001E00783F1E008A3188227431080045317D
:1018F000FB300607FE00FF30073DFF007E08FE3F7D
:101900007F08FF3F20006708023EFE000030683D70
:10191000FF007E081E007F081E0094315A248C317F
:10192000FD00FE01FF017E3F84007F3F85007D08B2
:10193000803F7E08813F7F08823F7E3F84007F3F5B
:101940008500003FFD00013FFE00023FFF007E08D2
:10195000FF007D08FE00FD017E3F84007F3F850083
:101960007D08803F7E08813F7F08823F7E3F840064
:101970007F3F8500003FFD00013FFE00023FFF006A
:1019800020006708013EFA000030683DFB007A083D
:101990001E007B081E0094315A248C31FA00FB0192
:1019A000FC017A08FD047B08FE047C08FF047E3FEE
:1019B00084007F3F85007D08803F7E08813F7F084F
:1019C000823F7E3F84007F3F8500003FFD00013F56
:1019D000FE00023FFF007E08FF007D08FE00FD01C3
:1019E0007E3F84007F3F85007D08803F7E08813FE9
:1019F0007F08823F7E3F84007F3F8500003FFD00DF
:101A0000013FFE00023FFF00200067081E0068083B
:101A10001E0094315A248C31FA00FB01FC017A0833
:101A2000FD047B08FE047C08FF047E3F84007F3FAA
:101A300085007D08803F7E08813F7F08823F03301C
:101A40002000E7070318E80A7B3F1E007B3F1E00CB
:101A50007B3F1E0000301E0080301E003F301E0005
:101A60008B3126237B3FF4007C3FF5007D3FF60061
:101A70007B3108004C310130FF3F3730FD0006302C
:101A8000FE003C30FF007D08FA3F7E08FB3F7F08E8
:101A9000FC3F3830FD000630FE003430FF007D088A
:101AA000F73F7E08F83F7F08F93F1230FD00033012
:101AB000FE003C30FF007D08F43F7E08F53F7F08C4
:101AC000F63F6C30FE002430FF007E08FD3F7F08AB
:101AD000FE3F0230200048060319032E4608031972
:101AE000742D9331B8238D3144080319692D3608BC
:101AF000023EFE000030373DFF007E081E007F08DA
:101B00001E0095311F258D3174081E0075081E00BA
:101B100076081E00743F1E00743F1E00743F1E00B6
:101B20008B31CC238D3174081E0075081E00760899
:101B30001E00200038081E0039081E0095311F25A0
:101B40008D3174081E0075081E0076081E00743F53
:101B50001E00743F1E00743F1E008B31CC238D315C
:101B600074081E0075081E0076081E008531BD250C
:101B70008D317D3F84007E3F85007408803F75086D
:101B8000813F7608823F7F3F013EFF3F743F1E004A
:101B9000743F1E00743F1E007A3F84007B3F850027
:101BA000003F1E00013F1E00023F1E0089319621AA
:101BB0008D31031CF72D2000C701C70A000000006B
:101BC000200090129631CA268D319331FF238D313A
:101BD000000000007F3FFF00FF30FF077F087F0706
:101BE0007F072000BA00C601C4014708042E200068
:101BF000C4017D3F033EFD3FF4017E3F743DFE3F47
:101C0000B801B901692D0130743108004931003043
:101C1000FA3FFB3FFC3F00008D313A258E31003A00
:101C20000319ED2EC7016C30FE002430FF007E0842
:101C3000FD3F7F08FE3F0030FF3F8C3177248E311F
:101C40007408F73F7508F83F7608F93F7D3F840038
:101C50007E3F8500003F1E00013F1E00023F1E0028
:101C6000743F1E00743F1E00743F1E0096314926CB
:101C70008E3174081E0075081E0076081E007A3F1B
:101C800084007B3F8500003F1E00013F1E00023F95
:101C90001E00713F1E00713F1E00713F1E00853106
:101CA000BD258E3174081E0075081E0076081E00C2
:101CB0008B3126238E3174081E0075081E007608AD
:101CC0001E0000301E0020301E0041301E008B31EF
:101CD000CC238E3174082000AF007508B000760860
:101CE000B10000301E0000301E0000301E002F0822
:101CF0001E0030081E0031081E00893196218E31E9
:101D00000318992E20002F081E0030081E003108ED
:101D10001E0000301E0080301E00BF301E008B31C0
:101D2000CC238E3174082000AF007508B00076080F
:101D3000B10020002F081E0030081E0031081E00D0
:101D4000773F1E00773F1E00773F1E0089319621A6
:101D50008E310318B82E20002F08FD003008FE0039
:101D60003108FF007D08FA3F7E08FB3F7F08FC3FFB
:101D700020002F081E0030081E0031081E00003011
:101D80001E0040301E0040301E00893196218E31E9
:101D9000031CCC2E0000D52E03302000E70070304D
:101DA000E8000930C8000030ED2E7D3F033EFD3FC6
:101DB000F4017E3F743DFE3F7F3F013EFF3F7F3F8A
:101DC000FF0013307F02031C1D2E03302000E700AC
:101DD0007030E800C801C80A0130773108002000DF
:101DE00091112400951FDB2F95132000C30140089B
:101DF000023E84008501003FFE00013FFF007E0897
:101E000084007F0885008001800AC0010800A918AD
:101E100008002808C0002808840085010008C200C6
:101E2000280884008501013FC1000430A807280864
:101E3000543A031D1D2F5030A800291028082706EA
:101E40000319A9142400161402302000C30008004E
:101E5000932F2400161F322F2000AB0A0430953137
:101E60009D2508007208FF007108FE00FF36FE0C79
:101E70007E089100711C402F0B302000C300080029
:101E800003302000C30008002400161F4D2F20003F
:101E9000AB0A043095319D25080096140630720572
:101EA000FF00F0307F04F1000030F20071142000D8
:101EB000BE01BE0A242F3E030319722F410884007D
:101EC0008501003FF100013FF2004108033E84001C
:101ED0008501003FB200013FB30041088400850145
:101EE000023FBF00710824009100711C402F053093
:101EF0002000C30008002400161F862F2000AB0A14
:101F000024001613053095319D2508002000BF03DD
:101F10003F0A031D962F0530C107C20B932F0030D7
:101F200095319D25080024009614242F3208840042
:101F3000330885000008240091002000B20A03192C
:101F4000B30A08002400161FAD2F2000AB0A04308E
:101F500095319D25240016130800961508302000A1
:101F6000C30008000830C30024009615080032089A
:101F70008400330885002400110880002000B20A84
:101F80000319B30ABF030319CB2F2400961206309E
:101F90002000C300CF2F2400961694311A24240069
:101FA00016160800003095319D250800AB0A063052
:101FB00095319D25080020004308003A0319072F9A
:101FC000013A0319282F033A03195B2F013A031929
:101FD0007B2F073A0319D22F013A0319A22F033A94
:101FE0000319B22F013A0319D22F0F3A0319B72F51
:101FF000023A0319292F013A0319442FD62F08005A
:10275600080008000800553420001F11080020005A
:102766001B14080020009501080020009717080098
:1027760016302100970008002700131E0800953127
:102786003625080020009110000020001F150800C3
:102796000334703402347034013401347E3F200037
:1027A600D6007F3FD7007E3108007E3F2000DA004A
:1027B6007F3FDB007E3108007E3F2000D4007F3F54
:1027C600D5007E31080020001B087F3F9A007E3F1F
:1027D60099007E31080020005C081E005D081E007E
:1027E6009331E623080020001B10000000009331FF
:1027F600EE23B401B5010800200097130000000085
:102806009331B523B801B9010800013021009D00BC
:10281600E0309E009F019B019C0108006030320061
:1028260099009B019D0107309F009E01080005301D
:102836002000C107C20B222C0430C3000800C301CC
:10284600C30A08006400800101310130F40200303F
:10285600F53B7508740403190034262CF4001200A5
:102866001E000130F4020030F53B750874040319AC
:102876000034322C4131FF3F412C402C7F3F013A3E
:102886000319402C033A0319492C492C7F310800BF
:10289600B8301E000B301E0096319A269431000087
:1028A600B8301E000B301E0096319A2608007E3F77
:1028B600310091007F3F92001517151400000000AB
:1028C60000000000310013087E310800FF302000B0
:1028D6009E009D01911021009110AD301E00133015
:1028E6001E009331DF2306309F000800700803198D
:1028F6007E2CF001832C7008031D832CF001F00A56
:1029060070088831CE2009302000C8000800C03089
:1029160024009400263095008030960008309700F9
:10292600FE30930010309200200091112100911585
:102936000800833025009300940192019101003034
:102946001E0000301E0085310225FC3025009F0543
:102956002000141021001414080003302000C500C4
:102966008E140000000020000E155A085B0403199F
:1029760008005B08FF005A08FE007F088A007E08F0
:102986000A0094310800200011105C081E005D0842
:102996001E009331E6239431B40A0319B50A0130B7
:1029A6003502773003193402031C08009431B02431
:1029B6000800503020009800960195011608D900AD
:1029C600D8011508D804901221009016AB301E00CD
:1029D60013301E009331D123903097000800203029
:1029E60020009C009A0199011A08DD00DC011908F3
:1029F600DC04111021001114AC301E0013301E002F
:102A06009331D82301309B00080020009012B80AA9
:102A16000319B90A5908960058089500560857042C
:102A2600031908005708FF005608FE007F088A00B1
:102A36007E080A009531080000301E008E301E0008
:102A46007C3FFE007D3FFF007E08FD007F08FE0004
:102A5600FF017D081E007E081E007F081E008A31C9
:102A660088227E31080014301E0000301E00893195
:102A76002F21953120000C1E442DCA01C901C90A17
:102A8600492D0C1A492DC901CA01CA0A0230C800CB
:102A960027001312080050302000A8005030A7006D
:102AA600A9142910AB01C0302400940028309500E9
:102AB6000830970003309200200091111111210077
:102AC6009115111508008731F8279531973133276D
:102AD60095319431112495319331BB23953194313D
:102AE6000824953194319C2495319431DC24953118
:102AF6009431F22495319431692408002000911014
:102B060000009331AF23953100009331C5239531F1
:102B1600000005302000C8005408550403190800B9
:102B26005508FF005408FE007F088A007E080A0048
:102B3600953108004131FF3F24001615200040085A
:102B4600023E84008501120000040319B82D4008D6
:102B5600023E84008501003FFE00013FFF007E0823
:102B660084007F0885007F3F8000C3017F31080015
:102B76008B137F3F310092007E3F91007D3F930093
:102B8600151700003100151555309600AA3096002D
:102B96009514CF2D0000000031009518CD2D0000B2
:102BA600000031001511000000008B177D31080070
:102BB60020001410033048060319E32D0430C80022
:102BC60047080319E92DB801B90108004608031D95
:102BD600F12DC601C60A0530C50008009331B5239C
:102BE600250012082000B700250011082000B600B5
:102BF600C401C40A08004131FF3F21001D10000036
:102C06007F3FFF00FF0DFF0D21001D087F060339E2
:102C16007F069D00000021001D140D30890B112E2A
:102C2600000021009D14000021009D1C1D2E0000A7
:102C36000000172E1C08F5001B08F4007F31080061
:102C4600413100301E0070301E0094315A249631F6
:102C5600FF3F7F3FAA3A031D392EFF301E0000308A
:102C66001E0070301E009531BB2596319331FF232F
:102C760096319331F6239631F00170088831CE20D3
:102C860009302000C800C5017F3108007F3FF400ED
:102C96007E3FF4047D3FF4040319602E0030FD00EE
:102CA6000030FE008030FF007D3F7D06FD3F7E3F09
:102CB6007E06FE3F7F3F7F06FF3F7D3F1E007D3F36
:102CC6001E007D3F1E00773F1E00773F1E00773FA8
:102CD6001E008531BD257A31080041310030FF3FA5
:102CE6007E3F891F832E7E3FF400F4097D3F8909CC
:102CF600890A0319F40AFD3F7408FE3F0130FF3FBD
:102D06007F3F1E008E301E007B3FFE007C3FFF0093
:102D16007E08FD007F08FE00FF017D081E007E087C
:102D26001E007F081E008A3188227D31080044314A
:102D36000030FC3FFD3F0030FE3FFF3F7B3FF4008D
:102D46007F3F7402031DAB2E7A3FF4007E3F740270
:102D5600031CB62E00007E3F013EFE3FF4017F3F7E
:102D6600743DFF3FA12E7C3F013EFC3FF4017D3FB9
:102D7600743DFD3F7C3FFE007D3FFF0003307F0238
:102D8600E93003197E02031C9E2E7A310800433176
:102D96002000B801B9010030FD3FFE3FFF3F901E05
:102DA600E02E0030FD3FFE3FFF3F003039023C3051
:102DB600031938020318FA2E901206088400070831
:102DC60085003D310130800701310030803D013101
:102DD6000030803D3E31003FFF3A031DF82E013F93
:102DE600FF3A031DF82E023F023A031DD22E7D3113
:102DF60008009531662596319631232696318B1734
:102E06000B17232F943179249631232F973170276E
:102E16009631232F9731B82796312000470803199A
:102E2600232FC70170088831CE2096310930200043
:102E3600C800232F8E3106269631003A031DC7019E
:102E46004808013A0319052F033A0319092F013AD5
:102E560003190D2F073A03191D2F232F8531762DC0
:102E660022008C018D0101308E00373021008C004C
:102E7600F0308D00E1308E0023008E01E0308D00B1
:102E860021308C0024008D018C018E0125008C01DF
:102E96008D018E01373026008C00F0308D00FF301A
:102EA6008E003F3027008C00F0308D00FF308E0002
:102EB60013121216111619303D00A00002303C0004
:102EC600A00018303D00920010303C00A100210007
:102ED60010160C303C009400080020004A08031924
:102EE600772F9331B223080049080319862F033040
:102EF60045060319862F9331F6231110CA01C9011D
:102F0600C801C80A080049080319A22F033045065C
:102F1600031DA22F0130350277300319340203183E
:102F2600A22F9331F62397311110CA01C901C501A9
:102F360070088831CE2009302000C80008004908F2
:102F46000319080003304506031D08000130350249
:102F5600773003193402031C08009331F62311104D
:102F6600CA01C9010330C800080043318D313A2532
:102F76009731003A0319FE2F6C30FE002430FF0013
:102F86007E08FD3F7F08FE3FAA301E0001301E006E
:102F960070301E009531BB25973120003A081E007F
:102FA60069081E006A081E009531BB25973100305E
:102FB600FF3F7F3F20003A02031CFD2F7D3F840028
:102FC6007E3F850000081E0067081E0068081E0078
:102FD6009531BB2597312000E70A0319E80A7D3FA2
:102FE600013EFD3FF4017E3F743DFE3F7F3F013EC3
:0A2FF600FF3FDC2F00007D310800D2
:00000001FF
